:1000000000200010FD000000B5010000B501000057
:10001000B5010000B5010000B501000000000000BE
:10002000000000000000000000000000B50100001A
:10003000B501000000000000B50100000D4C0000FB
:100040000D0200000D0200000D0200000D02000074
:100050000D0200000D0200000D0200000D02000064
:100060000D0200000D020000000000000000000072
:10007000F14C000000000000015300008D4F000013
:1000800011540000A154000029550000B55500008E
:10009000255A000099620000A55700000D020000DB
:1000A0000D020000494C00000D0200000D0200008E
:1000B0000D0200000D0200000D0200000000000013
:1000C0003C7C000000000010040600003C7C0000A6
:1000D00000400020000000003C7C000000000020E8
:1000E00000000000080600103C0D00000040002049
:1000F00000000000000000200000000070B5274B49
:10010000274905E0986893E830000C3300283DD17A
:100110008B42F7D3234900248B4202D30DE08B425C
:100120000BD258681D6808330028F8D000225451BB
:1001300004329042FBD88B42F3D300F07BF84FF4AB
:100140000043C4F2040301229A67D3F880206FF0C1
:10015000010042F4803242F04002C3F8802004F0F3
:10016000D7FD4FF0FF3004F029FE04F021FD0E4BC7
:100170000BB101F0EFF80D4B0BB1AFF300800C4B5E
:100180005BB100F01FF900F01DF9FAE700221659E3
:10019000565104329042BBD9F9E7FEE7C000000097
:1001A000E4000000FC000000551300000000000007
:1001B000C503000010B44FF48042C4F20402502181
:1001C0004FF400535160C5F20003D1601C684FF436
:1001D000025144F00A041C60C5F200016FF00A03EA
:1001E0004FF406500B60C5F200004FF40C5202238E
:1001F000C5F200020A2103604AF220131160C0F226
:10020000070300BF013BFCD1F6E700BF704700BF0A
:1002100010B42AB100231C585C5004339A42FAD817
:1002200010BC704729B100231A461A500433994272
:10023000FBD870474FF40042C4F20402D2F83832BF
:10024000002123F02003C2F83832C823116200BF16
:10025000013BFCD14FF40043C4F2040301221A64B1
:1002600025229A60D3F83822194622F08002C3F87A
:100270003822CA684FF40043D207C4F20403F8D509
:1002800003221A67704700BFFFFFFFFFFFFFFFFF5A
:10029000FFFFFFFFFFFFFFFFFFFFFFFFFFFFFFFF6E
:1002A000FFFFFFFFFFFFFFFFFFFFFFFFFFFFFFFF5E
:1002B000FFFFFFFFFFFFFFFFFFFFFFFFFFFFFFFF4E
:1002C000FFFFFFFFFFFFFFFFFFFFFFFFFFFFFFFF3E
:1002D000FFFFFFFFFFFFFFFFFFFFFFFFFFFFFFFF2E
:1002E000FFFFFFFFFFFFFFFFFFFFFFFFFFFFFFFF1E
:1002F000FFFFFFFFFFFFFFFFFFFFFFFFFFFFFFFF0E
:100300002DE9F041DFF8B880284FD8F80030284EAA
:10031000284D294C002B38D04FF461733B8064206A
:1003200033802B80238004F0EFFB40F233436420C2
:100330003B8004F0E9FB4FF4617321203B8004F023
:10034000E3FB40F233436420338004F0DDFB4FF4E1
:1003500061732120338004F0D7FB40F233436420E3
:100360002B8004F0D1FB4FF4617321202B8004F02B
:10037000CBFB40F233436420238004F0C5FB4FF4F1
:1003800061736420238004F0BFFB0C4A0023518872
:100390003B8021F0070141F003013380C8F80030B1
:1003A0002B8051802380BDE8F08100BF860E0010B5
:1003B0001C1300107E0E0010FA100010B006001082
:1003C000380E001070B50A4D2C682CB9094E40F655
:1003D000B83332689A4201D830BF70BD05F05EFD77
:1003E000054B34601C60C8232B6030BF70BD00BF5C
:1003F0007C0600102807001054070010F8B5414E85
:1004000048F21F533468C5F2EB130134A3FB0427F1
:100410003D4DF90801EB81014FF47A70D5E90023D5
:1004200001EB810E0021121843EB01037445346087
:10043000C5E9002322D164237F0903FB1744334B12
:100440001B78002C2AD14BB14FF40C52304BC5F223
:100450000002022111601A784A401A702D4B1B7855
:100460004BB14FF40C522A4BC5F200020821116027
:100470001A784A401A70284B1B78CBB905F0A2F9BC
:10048000264B002823D0264A1C68264811680460A1
:100490000020186009B101391160F8BD022B25D088
:1004A0001C4B1B78022B16D01B4B1B78022BE5D163
:1004B0004FF40C52164B0121C5F2000211601A785C
:1004C0004A401A7005F07EF9144B0028DBD11A68F7
:1004D00001321A60F8BD4FF40C520D4BC5F2000208
:1004E000082111601A784A401A70DDE74FF40C5168
:1004F000074AC5F200010B60137883F00203137002
:10050000CEE700BF94060010180E00102C0C00104F
:1005100024130010800C0010C00B001028070010DE
:100520007C060010540700102DE9F041324D334E87
:100530002C6833689C4256D2A4B24FEA840C3048EF
:100540000CEB0407BF00C119D1F810E02D4AC75DBC
:100550004FEA1E481480A2F802E0A2F80480D3807B
:100560001772002F33D04F785772002F2FD08F780B
:100570009772002F2BD0CB78D372002B27D00B791A
:10058000137323B34B7953730BB38B799373F3B119
:10059000CB79D373DBB10B7A1374C3B10CEB0403C7
:1005A00000EB8303587A1146507480B19A7A8A74AA
:1005B0006AB1DA7ACA7452B11A7B0A753AB15A7BB7
:1005C0004A7522B19A7B8A750AB1DB7BCB754FF4F1
:1005D00081700C490C2205F043FA20B10A4B1A78BD
:1005E0001AB901342C60BDE8F0813268002119701D
:1005F0002A60BDE8F08100BF900600103C0E00109C
:100600000000001030070010C00600102DE9F04176
:1006100082B0684606F08EFA002800F0A980574C98
:10062000BDF80010A56FBDF80220BDF8043005F13B
:100630000C00218004EB40002285A4F85030B4F86F
:100640000080B0F90430B4F828C0B4F850E0A269D2
:1006500005F12001D31AA36104EB4101266CB1F925
:10066000043005F13402F31A236404EB4202A76E4E
:10067000B2F90460424BBE1BA666A7692688A3F8A0
:10068000068036B2BE19A661276C268DA3F808C075
:1006900036B2BE192664A66EB4F85070A3F80AE00C
:1006A0003BB2F318A366238801358380238D8B80AA
:1006B000B4F850309380A06907F016F80021C4F216
:1006C000C00107F019F96060206C07F00DF80021F7
:1006D000C4F2C00107F010F9E062A06E07F004F860
:1006E0000021C4F2C00107F007F9052D6065A56778
:1006F00041D86068E16806F041FF4AF2B601C4F2F1
:100700004C4107F0F9F8A060E06A616B06F036FF33
:100710004AF2B601C4F24C4107F0EEF82063606D76
:10072000E16D06F02BFF4AF2B601C4F24C4107F02E
:10073000E3F80021A065A068C4F27A4107F028F828
:1007400007F0ECF90F4D03460021206BC4F27A410B
:10075000EB8007F01DF807F0E1F900210346C4F231
:100760007A41A06D2B8107F013F807F0D7F9688163
:1007700002B0BDE8F0810023A367BAE7840D001042
:10078000B40C0010940C00102DE9F04FB44C87B05D
:100790000590FFF73BFF20884FF0000800B206F0FD
:1007A000A3FF0746208D00B206F09EFF0646B4F870
:1007B000500041F2883200B2019206F095FF0546E2
:1007C00040F62C400123C1F200000370CDF80C80EC
:1007D000CDF80880CDF8108068E0029840F6845289
:1007E000C1F20002118801301346128DB3F8503067
:1007F0000290049809B24018039912B28918029A1B
:100800001BB2B2F5A67F04900391984400F2B78022
:1008100043F23331C3F67371384606F0B9FF074629
:10082000208800B206F060FF4CF6CD41C3F64C5173
:1008300006F0AEFF0146384606F0A2FE43F2333121
:10084000C3F673710746304606F0A2FF0646208DB8
:1008500000B206F049FF4CF6CD41C3F64C5106F00C
:1008600097FF0146304606F08BFE43F23331C3F664
:1008700073710646284606F08BFF0546B4F8500013
:1008800000B206F031FF4CF6CD41C3F64C5106F0F4
:100890007FFF0146284606F073FE0546032004F05C
:1008A00033F9019B013B019300F0D680FFF7AEFEC8
:1008B0002088B4F800A000B206F016FF01463846C2
:1008C00006F05CFE1FFA8AFA81460FFA8AF006F0FB
:1008D0000BFF0146384606F051FE0146484606F039
:1008E00057FF8146208DB4F828B000B206F0FCFE18
:1008F0000146304606F042FE1FFA8BFB82460FFA95
:100900008BF006F0F1FE0146304606F037FE014658
:10091000504606F03DFF0146484606F031FE81464E
:10092000B4F85000B4F850B000B206F0DDFE014655
:10093000284606F023FE1FFA8BFB82460FFA8BF047
:1009400006F0D2FE0146284606F018FE0146504643
:1009500006F01EFF0146484606F012FE0021C4F2D2
:10096000FA4107F0B3F800287FF437AF4FF00008E2
:10097000CDF80C80CDF81080CDF8088048E781468E
:10098000384D022269884FF40A5321F007011143C0
:10099000698040F62C400599334EC5F20003C1F240
:1009A000000040F24D1A02700AFB01FA1A60337817
:1009B00013433370BAF1000F16D0DDF80CB00027E6
:1009C000FFF724FE2188228DB4F8503009B212B20C
:1009D0001BB20320013789449344984404F094F8EF
:1009E0005745EDD1CDF80CB0059A40F24D1002FB01
:1009F000000006F075FE0746484606F075FE3946CB
:100A000006F07AFF03460398E36006F06DFE394670
:100A100006F072FF03464046636306F065FE394602
:100A200006F06AFFE06540F62C4000224FF40853C0
:100A3000C1F200000270C5F2000302221A606B8846
:100A4000327823F0070302F0FD0243F00303327013
:100A50006B8007B0BDE8F08FDDF8109090E700BF25
:100A6000840D0010B0060010241300102C4B2DE94B
:100A7000F0410021D3F8240507F046F8DFF8C080E4
:100A8000002845D10F2005F0D9FD264F264E274DD1
:100A9000274CD8F800304FF461723A8032802A80B7
:100AA00022802BBB4FF4FA7004F02EF840F233434F
:100AB0003B80642033802B80238004F025F84FF4A2
:100AC00061723A804FF4967032802A80228004F05E
:100AD0001BF840F233433B80642033802B8023801B
:100AE00004F012F84FF461723A8032802A8022803A
:100AF000104B11495A880868012122F00702C8F8F2
:100B000000100E4942F0040208605A80BDE8F081EE
:100B1000D8F80030002BB5D10120FFF735FEB1E742
:100B200000000010860E00101C1300107E0E001036
:100B3000FA100010B0060010DC0B0010580700106F
:100B4000380E00102DE9F04383B0684605F0C6FF6B
:100B5000002800F0CE806A4CBDF80010D4F8105286
:100B6000BDF80220BDF80430218005F10800A4F88A
:100B7000B020A4F86031B4F8008034F91030B4F833
:100B8000B0C0B4F860E1E26805F16001D31AE36037
:100B9000D4F8BC6034F9113005F1B802F31AC4F886
:100BA000BC30D4F86C7134F91260564BBE1BC4F8DB
:100BB0006C61E7682688A3F8008036B2BE19E6604B
:100BC000D4F8BC70B4F8B060A3F802C036B2BE1955
:100BD000C4F8BC60D4F86C61B4F86071A3F804E0A8
:100BE0003BB2F318C4F86C312388013524F8103077
:100BF000B4F8B03024F81130B4F8603124F8123071
:100C0000E06806F071FD0021C4F2A02106F074FE38
:100C10006060D4F8BC0006F067FD0021C4F2A0219A
:100C200006F06AFEC4F8B400D4F86C0106F05CFD6E
:100C30000021C4F2A02106F05FFE4F2DC4F864012C
:100C4000C4F8105258D860686168D4F8B420D4F859
:100C5000B4309146984606F09BFD4146054648460D
:100C600006F096FD0146284606F08AFCD4F8647129
:100C7000D4F8646105463146384606F089FD0146E0
:100C8000284606F07DFC03F051FD054629466068C4
:100C900006F07EFDA060D4F8B400294606F078FD89
:100CA000C4F8B800D4F86401294606F071FD0021AB
:100CB000C4F86801A068C4F27A4106F069FD06F044
:100CC0002DFF114D03460021D4F8B800C4F27A413B
:100CD0002B8006F05DFD06F021FF00210346C4F2E3
:100CE0007A41D4F868016B8006F052FD06F016FFD9
:100CF000A88003B0BDE8F0830023C4F81032A2E757
:100D000068070010B40C0010940C00102DE9F04F8F
:100D100087B004A805F03CFF002800F02D81984C16
:100D2000BDF81010D4F81052BDF81220BDF81430E0
:100D30002180A4F8B02005F10801A4F86031E06832
:100D400034F9113005F16002C31AE360D4F8BC60D5
:100D500034F9120005F1B803301AC4F8BC00D4F815
:100D60006C6134F913000135301AC4F86C01E6687F
:100D7000208800B23018E060D4F8BC60B4F8B0004D
:100D800000B23018C4F8BC00D4F86C61B4F860014B
:100D900000B23018C4F86C01208824F81100B4F8AF
:100DA000B01024F81210B4F8602124F81320E06881
:100DB00006F09AFC0021C4F2C00106F09DFD6060BF
:100DC000D4F8BC0006F090FC0021C4F2C00106F08B
:100DD00093FDC4F8B400D4F86C0106F085FC002142
:100DE000C4F2C00106F088FD052DC4F86401C4F802
:100DF000105202D90023C4F81032606806F08EFE4B
:100E0000604DD4F8B430A881184606F087FE03463A
:100E1000D4F86401EB8106F081FEDFF8908103468F
:100E2000D8F800A000212B82C4F22011504606F011
:100E300043FE534DA8B1544B6868196806F0A0FBF7
:100E4000524B6860D5F8B400196806F099FB504B16
:100E5000C5F8B400D5F86401196806F091FBC5F82F
:100E600064014C4D6768D5F8CC12D4F8B40006F094
:100E700085FBD5F8E0120646D4F8640106F07EFB47
:100E8000D5F8B8128146384606F078FBD5F84012FE
:100E900006F07EFCD5F854120746304606F078FC82
:100EA0000146384606F06CFBD5F8681207464846FE
:100EB00006F06EFC0146384606F062FBD5F87C125F
:100EC0000746304606F064FCD5F8901206464846C0
:100ED00006F05EFC0146304606F052FBD5F8A4123F
:100EE0000646484606F054FC2B4B4FF000090546D9
:100EF0004946186806F0E0FD214B68B15868D3F800
:100F0000B410D3F86421254BC8F800901860244B26
:100F1000CA461960234B1A60234B1B68012B47D02C
:100F20003946384606F034FC31468046304606F0F5
:100F30002FFC0146404606F023FB29468046284602
:100F400006F026FC0146404606F01AFB03F0EEFBD5
:100F500080464146384606F01BFC41460346304673
:100F6000A36006F015FC414603462846C4F8B83095
:100F700006F00EFCC4F8680107B0BDE8F08F00BFB2
:100F80008C090010B40C0010000E00102C0E001084
:100F9000340C001000000010EC060010C40B001010
:100FA000700D00103C0C0010F00600104C070010F3
:100FB00000215046C4F2201106F088FD0028AFD071
:100FC0004FF07E51504606F0DBFA6368DFF8C4A0AC
:100FD00099462D4B83461968DAF80000C8F800B02E
:100FE00006F0CEFA494606F0C9FAD4F8B420DFF884
:100FF000A8909046254A0346CAF800301168D9F8EF
:101000000000009306F0BCFA414606F0B7FA0290E1
:10101000DDF808E0DFF884801D49D4F86421D8F8B1
:101020000000C9F800E00968019206F0A9FA019AE7
:10103000114606F0A3FA0390039A0021C4F220118E
:101040005846C8F8002006F037FD009B00283FF402
:1010500067AF0021C4F22011184606F04DFC0021B4
:101060000346C4F22011CAF80030029806F044FC8E
:1010700000210346C4F220110398C9F8003006F09D
:101080003BFCC8F800004BE7C40B0010700D0010CB
:101090003C0C0010000E00102C0E0010340C001040
:1010A0002DE9F04182B0684605F044FD18B168466C
:1010B00005F06EFD48BB0A2003F02AFE4FF40052F3
:1010C000C5F2000210684FF4085140F00A001060A9
:1010D0007D4BC5F200010A220A601C784FF40A50C9
:1010E0000222C5F2000004F0F5041C7002601878BA
:1010F0001043187008200860197801F0F701197082
:10110000724B1A70724B1A70FEE7684605F0E6FCE7
:101110000028D0D005F064FD0028CCD0DFF8C081D5
:1011200000246C4D6C4E00272146A02208F11000CF
:10113000AC612C772C646C77AC66AC77C8F80C404B
:10114000EC77C8F8BC4085F82040C8F86C4185F8B9
:101150002140F46085F82240C6F8BC4085F8234061
:10116000C6F86C4185F824402F6185F82540AF63AF
:1011700085F826402F6685F827406F6185F8444042
:10118000EF6385F8454085F8464085F8474085F887
:10119000484085F849406F6685F84A4085F84B40DD
:1011A00085F84C4085F84D4085F84E4085F84F4015
:1011B00085F86C4085F86D4085F86E4085F86F4085
:1011C00085F8704085F8714085F8724085F8734065
:1011D00085F8744085F8754085F8764085F8774045
:1011E00006F0E2FC2146A02208F1C00006F0DCFC7B
:1011F0002146A02208F5B87006F0D6FC06F5BA73B1
:1012000034747474B474F47434757475B475F4759A
:1012100034767476B476F47686F8C04086F8C140A9
:1012200086F8C24086F8C34086F8C44086F8C540B8
:1012300086F8C64086F8C74086F8C84086F8C94098
:1012400086F8CA4086F8CB4086F8704186F871412E
:1012500086F8724186F8734186F874415C7006F531
:10126000BC7386F8764186F8774186F878415C70E1
:10127000EF6086F87A4186F87B416F63EF65FFF790
:10128000C5F9FFF7C3F9FFF7C1F9FFF7BFF9FFF79A
:10129000BDF9FFF7BBF95024FFF754FC013CFBD12B
:1012A000FFF734FDFFF732FDFFF730FDFFF72EFDAE
:1012B000FFF72CFDFFF72AFD084B5A8842F0780211
:1012C0005A8002B0BDE8F081241300102C0C0010ED
:1012D000800C0010840D00108C090010B006001066
:1012E0006807001070B5194CE6B022680020920023
:1012F000023201A903F0F6F926681221B50001AA0D
:1013000008BF0B460BD054190B4612F8010BC3183B
:10131000DBB25918A242C9B2F7D101A8421912781A
:101320009A4201D066B070BD01AA53195B788B4216
:10133000F8D1002EF6D06B46054AE81853F8041F82
:10134000116114328342F9D1ECE700BF3C0E00106A
:10135000000000102DE9F04F0A208DB003F0D8FCFA
:101360004FF0A04303F50052116841F224344FF4CA
:101370000855C1F200040A23C5F2000541F00A0134
:10138000116002942B60227840F2000602F0F50210
:10139000C1F2000622702B60019640F6C0364FF075
:1013A000000C94F800E0C1F2000640F2D06286F82A
:1013B00000C0DDF804900026DDF808A0C1F20002AC
:1013C00040F6804740F6386540F2346440F6C83352
:1013D00040F62C480EF0F50EC1F20003C1F20008F1
:1013E0001660C1F200073222C1F20005C1F200040A
:1013F0008AF800E088F800C087F800C01A604FF053
:101400007E51D9F848042E602660CDF80C8006F095
:10141000B7F806F0A9FB40F6306240F29463C1F2DF
:101420000003C1F2000240F61861C1F20001106031
:101430001E6000220023C1E9002340F63C6403F053
:10144000B7FBC1F200044D232360FFF74BFF40F2CE
:10145000B066246840F2906140F2C06240F6884372
:101460000125C1F20003C1F20006C1F20001C1F280
:10147000000200274FF000080C601770758035805F
:1014800000201D805D80A3F8048004F0CFF940F2B5
:10149000EC604FF00009C1F2000040F6406140F6F8
:1014A000045240F69043C1F20001C1F20002C1F2C1
:1014B0000003C0F80090002008601060186004F07D
:1014C00009FC04F077FB40F20473C1F200034FF40F
:1014D0004044C4F201048020C3F81C9004F0AEF82C
:1014E0002368284623F0FF032360236840F6BC38B6
:1014F00043F0807343F08003236003F005FB6368CF
:1015000041F6B502C3F30B1302FB03F39B12B38046
:101510004FF4FA7003F0F8FA05F0E4F9FFF7C0FDB4
:1015200040F24C73C1F20003C3F8009004F042FB98
:10153000019B019A1B6940F68F690A9340F29863F8
:10154000C1F20003009340F25063C1F20003049320
:1015500040F6B043C1F20003059340F67853C1F260
:101560000003069340F6F843C1F20003079340F6E8
:101570000853C1F20003089340F63C53C1F2000344
:10158000526AC1F20009099340F61067012340F244
:101590002C6640F6B03540F6745489F80030C1F23C
:1015A000000800234FF07E59C1F20007C1F2000687
:1015B000C1F20005C1F200043B602B602360C6F855
:1015C00000900B92C8F80090009C049D059E069F19
:1015D000DDF81C8040F2A86C40F6841E40F2FC62EC
:1015E00040F2F86A40F2007BC1F2000EC1F2000244
:1015F000C1F2000CC1F2000AC1F2000BCEF80030BB
:101600001360CCF80030CAF800302B603B60C4F89F
:101610000090CBF80030C6F800900B98C8F8003066
:10162000DDF82090DDF824A00021C9F82C30CAF89C
:101630002C30C4F2C82106F0ABF8DDF804C0034634
:101640000021CCF82430C4F2C8210A9806F0A0F892
:10165000019A034613613B2003F072FE422140F6DB
:10166000B83003F093FE4FF47A7003F04DFADDF8D2
:1016700004A0DDF82C9040F6D438CAF82490DDF8A8
:101680002890C1F20008CAF8109040F2706C4FF038
:10169000000A40F6AC4E40F6801740F6A84640F2ED
:1016A000D46540F6206440F2607140F6B83240F6EE
:1016B0007443C1F2000CC1F20001C1F20002C1F298
:1016C000000EC1F20003A8F800A0C1F200074FF01D
:1016D0000008C1F20006C1F20005C1F20004CCF816
:1016E0000080C1F80080C2F800803020CEF8008071
:1016F000C7F80080C6F80080C5F80080C4F80080F4
:10170000C3F8008004F09AFF40F2F463C1F20003D2
:101710004220C3F8008003F0B1FADDF80C900223F8
:1017200089F800A04FF4085ADDF808C0C5F2000A95
:10173000CAF800309CF8007040F63850C1F2000042
:1017400040F28C6640F6286540F6384440F60C615D
:1017500040F2486240F6F83307F0FD07C1F2000698
:10176000C1F20005C1F20004C1F20001C1F20002A1
:10177000C1F20003C0F8008000208CF80070C6F8A9
:101780000080C5F80080C4F80080C1F80080C2F86D
:10179000008018600DB0BDE8F08F00BF2DE9F0416A
:1017A000234BE6B0D3F800E012267346304601A979
:1017B000BEF1000F2DD01F4C6F460023304601A90B
:1017C000256901EB830247F8045F11F823C05578BF
:1017D0006044C0B2451992F80280EDB2A84492F874
:1017E00003C086195FFA88F201337619734502EB5C
:1017F0000C002CBF00250125B618C0B23618632B8B
:101800008CBF002505F0010506F0FF061434002DFD
:10181000D6D14FEA8E0201EB830401F82300023295
:101820006670002002F03AFF66B0BDE8F08100BFAC
:101830003C0E0010000000102DE9F04F784B8BB0EB
:101840001C6814B10BB0BDE8F08F40F2B06140F6F7
:101850008042C1F200010123C1F200020220137094
:101860004880FFF753FA40F68C13C1F20003198841
:10187000B3F8B020B3F8603112B21BB205920693F0
:1018800041F288320292059B069A0025039409B220
:101890000491644C2F462E46DDF80C800791089386
:1018A000099259E008F10108B8F1090F09D940F689
:1018B00080410220C1F200010122087003924FF022
:1018C000000843F23331C3F67371304605F060FF10
:1018D0000646208800B205F007FF4CF6CD41C3F65E
:1018E0004C5105F055FF314605F04AFE43F23331C5
:1018F000C3F673710646384605F04AFF0746208D49
:1019000000B205F0F1FE4CF6CD41C3F64C5105F0A6
:101910003FFF394605F034FE43F23331C3F67371AD
:101920000746284605F034FF0546B4F8500000B2DB
:1019300005F0DAFE4CF6CD41C3F64C5105F028FF18
:10194000294605F01DFE05460E2003F0DDF8029A3B
:10195000013A029200F0AE80FEF758FE2088B4F8FB
:1019600000A000B205F0C0FE0146304605F006FEBC
:101970001FFA8AFA81460FFA8AF005F0B5FE014691
:10198000304605F0FBFD0146484605F001FF814663
:10199000208DB4F828B000B205F0A6FE0146384606
:1019A00005F0ECFD1FFA8BFB82460FFA8BF005F079
:1019B0009BFE0146384605F0E1FD0146504605F024
:1019C000E7FE494605F0DCFD8146B4F85000B4F866
:1019D00050B000B205F088FE0146284605F0CEFD65
:1019E0001FFA8BFB82460FFA8BF005F07DFE014655
:1019F000284605F0C3FD0146504605F0C9FE49469C
:101A000005F0BEFD039B7BB90021C4F2FA4106F04C
:101A10007BF800287FF446AFDDF80C8051E700BF6B
:101A2000380E0010840D00100190FFF76FF940F69A
:101A30008C11C1F200010B88049A1BB293420198E9
:101A400040F3A38040F68C11C1F200010B881BB259
:101A5000049340F68C12C1F20002B2F8B030059A3D
:101A60001BB293427DDD40F68C11C1F20001B1F84A
:101A7000B0301BB2059340F68C12C1F20002B2F8EE
:101A80006031069A1BB2934257DD40F68C11C1F2C9
:101A90000001B1F860311BB206930021C4F2FA4193
:101AA00006F014F8002845D008F10108B8F1C70F76
:101AB0007FF607AF049A07983D4C131803EBD373D6
:101AC000581005F011FE059902460898C4F8B8228E
:101AD0000B1803EBD373581005F006FE0699024667
:101AE0000998C4F8CC220B1803EBD373581005F0F7
:101AF000FBFDC4F8E002FFF751FE2E494FF40852F7
:101B00000020C5F200020870022111602A4B40F249
:101B1000B061C1F200014A88197822F0070201F091
:101B2000FD01197040F2B06342F00302C1F20003FC
:101B30005A8087E64FF00008C3E640F68C12C1F2E7
:101B40000002B2F86031099A1BB29342BFBF40F65F
:101B50008C11C1F20001B1F860311BB2B8BF09931A
:101B60009BE740F68C12C1F20002B2F8B030089A3E
:101B70001BB29342BFBF40F68C11C1F20001B1F815
:101B8000B0301BB2B8BF089375E740F68C12C1F2B3
:101B900000021388079A1BB29342BFBF40F68C1114
:101BA000C1F200010B881BB2B8BF079351E700BF19
:101BB000000000102C0C0010241300100000000086
:101BC000AE4B2DE9F04F1A8897B0013292B2042A39
:101BD0001A8001F28B83AA4CAA4DAB4F0C9410953E
:101BE000AA4CAB4D0497AB4F14940D951297AA4C89
:101BF000AA4DAB4F11940895139740F68457C1F244
:101C00000007FEF79FFFFEF701FDB868396905F090
:101C1000B5FC0021C4F2C83105F06EFE40F6845ECA
:101C2000C1F2000E0746DEF83000DEF8381005F08D
:101C3000A5FC0021C4F2C83105F05EFE40F68451D7
:101C4000C1F200018146886D096E05F097FC002104
:101C5000C4F2C83105F050FE40F2A863C1F200039F
:101C6000D3F8008082464146384605F091FD40F6A3
:101C700084148C4DC1F2000426682A68044631465B
:101C80004846059205F084FD0146204605F078FCA3
:101C900005998346504605F07BFD834C0146584626
:101CA000D4F800B005F06CFC4FF03F4105F070FD3A
:101CB000594605F065FC8446C4F800C059463846CC
:101CC000CDF804C005F064FD314603465046039349
:101CD00005F05EFD039B0146184605F051FC059991
:101CE00003464846039305F053FD039B01461846FF
:101CF00005F044FC4FF07C5105F04AFD014640469A
:101D000005F03EFC40F2A86302465946C1F20003CA
:101D100048461A60029205F03BFD41460346504694
:101D2000039305F035FD039B0146184605F026FC9C
:101D3000059903463846039305F02AFD039B0146A7
:101D4000184605F01DFC4FF07C5105F021FD0146C1
:101D5000304605F015FC40F6841EC1F2000E034625
:101D6000CEF8003059465046039305F011FD414628
:101D70008246484605F00CFD0146504605F000FC41
:101D800031468046384605F003FD0146404605F0E1
:101D9000F5FB4FF07C5105F0FBFC0146059805F082
:101DA000EFFBDDF804C00646614660462E6005F094
:101DB000EFFC029A07461146104605F0E9FC014681
:101DC000384605F0DDFB039B07461946184605F02B
:101DD000DFFC0146384605F0D3FB31460746304666
:101DE00005F0D6FC0146384605F0CAFB02F09EFC21
:101DF0002168804605F0CCFC074640F2A860C1F29D
:101E0000000001682760404605F0C2FC40F68412DD
:101E100040F2A863C1F20002C1F200030646116855
:101E20001E60404605F0B4FC40F6841EC1F2000E70
:101E30008146CEF800902968404605F0A9FC80460E
:101E40003946C5F80080384605F0A2FC31460990B5
:101E5000304605F09DFC49460590484605F098FC43
:101E600041468346404605F093FC49460790384674
:101E700005F08EFC41468246304617E0D40B001038
:101E8000A00B00107806001000000010380E0010A3
:101E9000180C0010080E0010300E0010040700107F
:101EA00038060010100E0010BC0B001005F070FC7E
:101EB0000146504605F062FB014605F061FB4146D4
:101EC0008246484605F064FC31468046384605F0B7
:101ED0005FFC0146404605F053FB014605F050FB10
:101EE0004FF07E518046504605F0E6FD002841F057
:101EF000E68100215046CBF6807105F0DDFD00281B
:101F000040F07681AC4F50460E9702F0B1FC03468C
:101F10003B605946059805F033FB014605F030FB60
:101F200001464FF07E5005F029FBA44F0146404684
:101F30000F9702F015FC03463B602968206805F006
:101F400027FC40F6841E40F2A862C1F2000EC1F2E6
:101F50000002DEF800100446106805F019FC014686
:101F6000204605F00DFB014605F00AFB07990446E3
:101F7000584605F005FB014605F002FB01464FF00F
:101F80007E5005F0FBFA014620468D4C0A9402F083
:101F9000E7FB20600599099805F0F0FA594605F02D
:101FA000EDFA079905F0ECFA864C05464146D4F85F
:101FB000680105F0EDFBD4F8B860074629463046C5
:101FC00005F0E6FB0146384605F0D8FA40F684579E
:101FD000C1F200077861A068294605F0D9FBD4F862
:101FE000686105465146304605F0D2FB0146284659
:101FF00005F0C6FA744DF863A868A168D5F8B82052
:10200000D4F8B8309246994605F0C2FB494680465E
:10201000504605F0BDFB0146404605F0B1FAD5F843
:102020006871D4F8686180463146384605F0B0FBE7
:102030000146404605F0A4FAAB680646A768D5F805
:10204000B8203146D4F8B8001D46144605F0A0FB70
:102050000146204605F092FA31460446384605F01E
:1020600097FB0146284605F089FA0146204602F012
:1020700077FB0A9C40F68455D4F80080C1F2000535
:10208000414605F07DFA6866686E04F035FF44A3AA
:10209000D3E900234D4C05F013FA50B1606E04F003
:1020A0002BFF41A3D3E9002304F0C6FD05F012FA8B
:1020B000606640F68457C1F20007786E04F01CFF9A
:1020C0003BA3D3E90023414C05F0DCF950B1606E2D
:1020D00004F012FF34A3D3E9002304F0AFFD05F0B0
:1020E000F9F96066049D40F6845E2C69C1F2000E29
:1020F00004F10044DEF81410204605F049FB40F6D8
:102100008457C1F200073861F96B204605F040FBA7
:1021100040F2EC64C1F2000424680346002120462A
:10212000BB63069405F0C8FC294E284C002800F03B
:102130007582706A04F0E0FE656E00230022C4F22E
:10214000590304F02DFF064628460F4604F0D4FE3E
:1021500002460B463046394604F022FF05F0BAF934
:1021600020660C9D109F2A88B7F900301949D31AB0
:10217000312B5BDC184B1B68002B57D0174B1B68AF
:10218000312B41F2F782164B002200261A60154DC2
:1021900034460795144F154D05970995049FE0E2C5
:1021A000182D4454FB210940182D4454FB2119409B
:1021B000182D4454FB2109C07C0C00109C06001013
:1021C000DC0B0010680700108C090010840D001053
:1021D00000000010A00B0010400E0010C80B0010F3
:1021E000D0060010080D00103C0D0010C80C0010A7
:1021F0003946304602F0B4FA4FF0404105F0C8FAD3
:10220000074D40F6DB73074C074FCBF6C9732B60C5
:1022100000230A940E950F9720603B60BAE600BF3A
:102220007C0C0010DC0B00109C06001000210698AE
:10223000C4F2AF3105F068FC8F4A166808B1013668
:10224000166040F2D173049F9E4284BF13601E4605
:10225000D7F80006002105F02FFC884C002840F03C
:10226000F787874B5D681C68D3F80880854F284640
:102270000797854F0597079FF96A05F081F9059F34
:1022800005462046079CF96AA56005F079F97F4B61
:1022900004461A68B860012A01F08A80079F284620
:1022A0007E68DFF8E091314605F02EFC049F00289F
:1022B00000F0C7810021D7F8BC03C4F2C83105F093
:1022C0001BFB31460746284605F058F9394605F00C
:1022D0001BFC002841F0A981DDF81CE0CEF8045079
:1022E0000598694E45682046294605F00DFC0028F2
:1022F00000F096872946204605F040F9394605F05A
:1023000003FC002841F08381059D6C60404604F089
:102310008BFC049CD4F8881005F0F6FB40B9574BB1
:102320000021D3F8000605F0C7FB002841F06A81C0
:10233000574F40467968099705F022F9786004F014
:10234000DBFD45A3D3E9002304460D4605F0B8F8AC
:10235000002800F0428742A3D3E900232046294603
:1023600004F06AFC05F0B6F8099C03466360E06976
:1023700004F0C2FD3AA3D3E9002304F05DFC05F0AC
:10238000A9F8E061434CDFF830912568E068294600
:1023900005F0F4F804F0B0FD33A3D3E9002304F012
:1023A000FFFD05F097F8034661682069C9F8003021
:1023B00005F0E4F804F0A0FD2BA3D3E9002304F01A
:1023C000EFFD064628460F4604F096FD28A3D3E904
:1023D000002304F0E5FD05F07DF802F019FB04F0A0
:1023E0008BFD02460B463046394604F0D9FD05F018
:1023F00071F8294B0646A16860691E6005F0BEF8B9
:10240000049F264DD7F8101505F0BAF8DDF810E056
:1024100007464FF07E51DEF85C042F6005F04CFB60
:10242000DFF85880002800F03981238B002B41F021
:102430007C801B4B1B4F1C681B4B0697D3F800A0DE
:102440001A4B1B4F1B6815970B931A4BD3F800B010
:1024500034E000BFAFF30080182D4454FB21094045
:10246000182D4454FB211940AD3E89D3AE25FB40C5
:10247000399D52A246DF913FF80B0010000000107A
:1024800054060010080D00103C0D0010900C0010B8
:10249000C80C0010580C0010280E0010A4060010E4
:1024A000380C0010840C00100C0E0010380D0010B9
:1024B00084060010480600108C060010049FD9F80E
:1024C0000010D7F87084D7F89874404605F060F98A
:1024D00021468146384605F05BF9DDF810E00146FB
:1024E0004846DEF8AC4405F04BF85146814620469C
:1024F00005F04EF90146484605F042F8079A0346B2
:1025000053604146304605F043F90B99064638467C
:1025100005F03EF90146304605F032F859460646C8
:10252000204605F035F90146304605F029F80A9CA9
:10253000059F2368786003F1004004F0DDFC52A39E
:10254000D3E9002304F07AFB04F0C4FF02F0F0F9B1
:10255000079C616805F01CF90A9F0446386800F181
:10256000004002F0E5F9059F796805F011F9014690
:10257000204605F003F80A9F0446386800F1004041
:1025800002F0D6F9079F796805F002F90A9F06461E
:10259000386800F1004004F0AFFC3BA3D3E900230E
:1025A00004F04CFB04F096FF02F0C2F9059F796835
:1025B00005F0EEF80146304604F0E2FF2968049D7C
:1025C0000646D5F8C00405F0E3F8069F05463968CD
:1025D000049FD7F8D40405F0DBF80146284604F040
:1025E000CFFF159F05463968049FD7F8FC0405F016
:1025F000CFF80146284604F0C3FF254B196804F0C4
:10260000BFFF40F2EC6E234B0A9DC1F2000E069014
:10261000CEF800001860D5F80080A2E01E4B002123
:10262000C4F22011186805F047FA002800F0B986B6
:10263000706A04F061FC0023656E0022C4F224037A
:102640007FE50021D7F8BC03C4F2C83105F054F986
:1026500029460746304604F091FF394605F054FA02
:1026600000283FF439AE3046002105F02FFA00284B
:102670003FF432AE3046394604F080FFC9F804001A
:102680002EE600BFAFF30080182D4454FB21F93F24
:10269000480C0010540C00104C0700108C4C002308
:1026A00023608C4CD9F8002023608B4C40F2EC6EF8
:1026B00022608A4AC1F2000E1660894ADEF8005094
:1026C0001360884AD8F8C8011360874A4FF07E51DA
:1026D0001360864A1760864A864F1360864B1D60DA
:1026E00005F0EAF9002840F0AD864CF6E430C4F27B
:1026F000160002F01DF9079C616805F049F80446D0
:1027000040F6DB70C3F6497002F012F9059D696866
:1027100005F03EF80146204604F030FF044640F63E
:10272000DB70C3F6497002F003F9079D696805F094
:102730002FF805464CF6E430C4F2160002F0F8F823
:10274000DDF814E0DEF8041005F022F80146284612
:1027500004F016FF3F680A9D0697D5F80080049F95
:102760000646D7F818522146284605F0AFF900B1C1
:102770002C4605F100473846214605F0C5F900B161
:102780003C463046294605F0BFF900B12E4630469A
:10279000394605F09BF900B13E46079D2046E969A0
:1027A00004F0ECFE059F8146F9693046C5F8249097
:1027B00004F0E4FE099D83466F68E969059D38468B
:1027C000C5F824B004F0DAFE0E9D0B90DDF824E08D
:1027D00029680B9D2046CEF82450079DCEF81C702A
:1027E000EC61059CE66104F0CBFE0F9D0446296870
:1027F000304604F0C3FE41460546384604F0C0FEAC
:102800008246204604F078FB2DA3D3E90023064638
:102810000F4604F055FE002801F042802AA3D3E9B8
:1028200000233046394604F007FA04F053FE04460C
:10283000284604F061FB22A3D3E9002306460F4695
:1028400004F03EFE002801F015801FA3D3E9002309
:102850003046394604F0F0F904F03CFE0546504697
:1028600004F04AFB16A3D3E9002306460F4604F002
:1028700027FE002800F0E88713A3D3E900233046A1
:10288000394604F0D9F904F025FE82460021069865
:10289000C4F2AF3105F038F9002800F0BB87079F7C
:1028A0002046B96A04F06CFEDDF814E00746DEF855
:1028B0002810284604F064FE06461FE0AFF30080AF
:1028C000182D4454FB210940182D4454FB21194074
:1028D000380C0010380D0010400C0010040E0010D1
:1028E0000C0E001048060010840C0010B40B0010F1
:1028F00084060010EC060010480C00100498D0F874
:102900000011384604F044FF049A079B0746D2F8AA
:1029100078119F62304604F03BFF40F6845E059AD2
:10292000C1F2000E06460498DEF83030D0F8EC1004
:1029300096624846984604F02BFF0146404604F054
:102940001DFE049B00F10040D3F8C41004F020FFEA
:102950000499079A40F6845EC1F2000ED1F8D8308F
:102960008046116ADEF8300003F1004904F006FEEB
:102970000146484604F00CFF414604F001FE049B6A
:102980008046D3F89C00214600F1004004F000FF8F
:10299000414604F0F5FDDDF810E00446DEF8B01025
:1029A000384601F1004104F0F3FE214604F0E8FD51
:1029B000049F804640F68450C1F200008468D7F836
:1029C0006411584604F0E4FE0146204604F0D6FDAA
:1029D000D7F83C1100F1004004F0DAFE059A40F609
:1029E000845EC1F2000E116A0446DEF8080004F0AD
:1029F000C5FD049F0146D7F8507107F100473846DE
:102A000004F0C6FE214604F0BBFD04462846049DA2
:102A1000D5F8141104F0BCFE214604F0B1FDD5F840
:102A200028110446304604F0B3FE214604F0A8FD08
:102A300040F6845EC1F2000E0746D5F8B4110B983B
:102A4000DEF8584004F0A4FE0146204604F098FD4C
:102A5000D5F8A01100F1004004F09AFE0446D5F824
:102A60008C01514600F1004004F092FE214604F032
:102A700087FD044640F68450C1F20000036B079DB9
:102A800021462B628268059D836D2A62099D40461E
:102A90002B6204F073FD40F2706EC1F2000E054629
:102AA000CEF800503946204604F068FD40F6AC42AE
:102AB000C1F2000206461660214608F1004004F00B
:102AC0005DFD40F68013C1F200038146C3F800901B
:102AD0002146384604F054FD049F40F6A84ED7F82E
:102AE000EC45C1F2000E8046CEF8008021464FF042
:102AF0007E5004F043FD074640F2D460C1F200006E
:102B00000168204604F044FE39468246284604F017
:102B10003FFE0146504604F033FD40F6206240F28D
:102B2000D46EC1F2000E0346C1F20002CEF80030AE
:102B30001168204604F02CFE39468246304604F0E7
:102B400027FE0146504604F01BFDA64D40F62062CC
:102B5000C1F20002034613602968204604F018FE03
:102B600039468246484604F013FE0146504604F0BA
:102B700007FD9D4E03462B603168204604F008FE99
:102B800039460446404604F003FE0146204604F060
:102B9000F7FC40F2F063C1F200031F68934C306011
:102BA00097BBDDF830E01099BEF80000B1F90030B5
:102BB000DFF85082C01A04F097FDDDF820E0D8F865
:102BC000009040F2EC62C1F200020023D4F80CA4A1
:102BD00049461060CEF81C30069004F0CFFC5146F8
:102BE00004F092FF68B1D4F8DC014FF07E5104F09C
:102BF00063FF30B14846514604F0C2FC7C4B06905E
:102C00001860069CC8F80040049CD4F844A3089CB3
:102C10005146206804F078FF764B002800F0F485D8
:102C2000002F40F0F18540F2F06E734A06980024C0
:102C30000127C1F2000ECEF800701060DC610C9923
:102C4000088804F04DFD109A8046B2F9000004F0A7
:102C50004BFD0146404604F091FC0699834604F082
:102C60008DFC049B8146D3F83484414604F04CFF2C
:102C700028B908F10041484604F028FF08B3DFF8FE
:102C80008881DDF810E0069A0021DEF8E403C8F838
:102C90000820C4F2C831C8F80040C8F804B004F0F5
:102CA0002BFE03460146C8F81030484604F070FD7C
:102CB0000146204604F064FC089B0446D861C8F82D
:102CC0000C00DDF810E02146DEF82C8208F1004906
:102CD000484604F019FF18B1089CC4F81C904C46F3
:102CE0004046214604F0F2FE18B1089CC4F81C804E
:102CF00044462146504604F043FCDDF848E0089A7B
:102D0000DEF8008004464FF0000940464946D46092
:102D100004F0FAFEDFF8DCB058B1049B4046D3F86B
:102D2000581304F0D3FEDFF8C48010B1012F00F077
:102D300085860898314BD0F8008000221A60414601
:102D4000204604F01BFC089A814651684046C2F8B0
:102D5000089004F013FCDDF820E0049B8246D3F8D1
:102D60003013DEF81800CEF814A004F011FD8046F0
:102D70000898012FC0F8188000F08686204A0B9230
:102D80001199086804F0ACFC049AD2F8481404F0D5
:102D9000B1FE002800F0158540F2EC63C1F200039B
:102DA00000211868C4F2483104F0AEFE002800F09B
:102DB0000885DFF858800D4BD8F80000D3F82014B0
:102DC00004F0DCFB8146C8F80000049B4FF07E5104
:102DD000D3F8DC81404604F06FFEC8B1012F00F04B
:102DE000E48515E060070010B80B0010000000102B
:102DF000EC060010040700104C0E001088090010AB
:102E0000500C0010740C001010060010E8060010A2
:102E1000DDF84CE0002740463946CEF8044004F087
:102E20004BFE002800F0CC85049C3946D4F85C04A5
:102E300004F042FE002840F034860C9F109CB7F846
:102E40000080B4F90030C3EB08080B9F3C68002CED
:102E500040F0968540F2EC6EC1F2000EDEF8007094
:102E60004FF000093846494604F030FE002800F0D3
:102E70009585AD4B0694C3F800904F4640F2D4635D
:102E8000C1F20003186804F049FE069900B2401828
:102E900000F5617004F028FCA44B40F62062C1F2FA
:102EA00000028246C3F800A0106804F037FE069BBB
:102EB00000B2C01800F5617004F016FC9C4B81460E
:102EC000C3F80090286804F029FE069900B2401863
:102ED00000F5617004F008FC964B8346C3F800B01F
:102EE000306804F01BFE069A00B2801800F561708D
:102EF00004F0FAFB904AB8F1310F0346106040F33A
:102F0000E584002C40F066858C4A1268192A00F28C
:102F10006185149D2A68002A00F08D800024C4F287
:102F2000874438462146039304F0EEFD039B20B10D
:102F300040F2EC67C1F200073C604FF4804150461C
:102F4000C4F20351039304F0DFFD40F63402039B07
:102F5000154688B94FF4C0415046C4F2864104F08A
:102F6000B5FD40F23342039B154628B9504604F0A4
:102F7000FBFD039B85B22A46714C4FF480412280B1
:102F80000D9C48462580C4F20351039304F0BCFD18
:102F900040F63402039B154688B94FF4C0414846B9
:102FA000C4F2864104F092FD40F23342039B154681
:102FB00028B9484604F0D8FD039B85B22A46614CE7
:102FC0000D9F4FF4804122807D805846C4F203510A
:102FD000039304F099FD40F63402039B154688B92B
:102FE0004FF4C0415846C4F2864104F06FFD40F2F0
:102FF0003342039B154628B9584604F0B5FD039BA0
:1030000085B22A46504C4FF4804122800D9C1846D0
:10301000A580C4F20351039304F076FD039B0028BE
:1030200000F0518640F634031A460D9D0127EA80D0
:10303000464AAF8113804CF6C230C4F2160001F04C
:1030400077FC0E9C216804F0A3FB044640F6527006
:10305000C3F6497001F06CFC0F9D296804F098FBE1
:103060000146204604F08AFA044640F65270C3F640
:10307000497001F05DFC0E9F396804F089FB05463C
:103080004CF6C230C4F2160001F052FC049F804698
:10309000D7F89C0503F030FFDDF83CE006460F460C
:1030A0004046DEF8001004F073FB0146284604F0A9
:1030B00067FA049DD5F8B01504F06AFB03F01CFF15
:1030C00017A3D3E9002304F095F802460B463046D7
:1030D000394603F0B3FD04F0FDF9049D0646D5F82A
:1030E000C4550146284604F0F1FC00B93546049F5A
:1030F0002946D7F8D865304604F006FD00B92E46BB
:10310000304604F031FD124A049D0D9F034681B202
:103110003B811180D5F8380503F0EEFE0F4619E02B
:10312000182D4454FB210940EC060010440C0010FB
:10313000BC06001074060010C8060010C80B001072
:10314000860E00101C1300107E0E0010FA100010E6
:10315000401300100646D5F84C15204604F018FB25
:1031600003F0CAFE9CA3D3E9002304F043F802460F
:103170000B463046394603F061FD9D4B049F0446E3
:103180000D46D7F88805196804F002FB03F0B4FE79
:1031900002460B462046294603F050FD04F09AF9FA
:1031A000D7F8604505460146204604F08FFC08B973
:1031B000049F2C46D7F874552146284604F0A4FCF9
:1031C00000B92546284604F0CFFC8A4B0D9C82B2FC
:1031D0001A80608117B0BDE8F08F2046294680A391
:1031E000D3E9002304F04EF900283FF4CBA87EA3D6
:1031F000D3E900232946204603F020FD04F06AF9B4
:10320000099D03466B60E86903F076FE76A3D3E977
:10321000002303F013FD04F05DF9E861FFF7B2B895
:103220002146284604F0AAF9394604F06DFC58B14D
:103230002846002104F04AFC30B12846394604F003
:103240009DF97060FFF762B8059F7C60FFF75EB87C
:103250000C9DA88804F044FA01464FF0884004F021
:103260008DF9216E00F1004004F092FA0C9F0546A2
:10327000788804F035FA01464FF0884004F07EF972
:10328000616F04F085FA5C4B00210446C4F2201102
:10329000186804F011FC002800F09280574A0C9F37
:1032A000B2F90000FB88C01A04F01EFA049F00F176
:1032B0000040F96C04F06CFA8046FEF7D7BF39463F
:1032C000304601F04DFA014604F05AF94C4D40F6F3
:1032D000DB734C4C4C4FC3F6C9732B6000230A942C
:1032E0000E950F9720603B60FEF754BE4FF0000E26
:1032F000A3F800E0FDF70AFD444803F065F9444BEC
:103300001A68002800F0A0810A2A01D90A3A1A6036
:103310003E4C40490C940C9F0C9DDDF830E03E4B38
:103320007F880868EE882A8924886D89BEF804E0C1
:103330005F80012718281C80A3F804E0DE801A8132
:103340005D819F8140F24D84344C354F1094049739
:10335000344EB2F5007F336840F2FE83012B88BF04
:10336000314C40F2028502233360304A0023B5F528
:10337000007F136080F0E8832D4A13602D494FF4DD
:10338000085200202C4BC5F2000208700821116081
:103390001A782A4D2A4F02F0F70214951A700D97E9
:1033A00062E1606E716A04F0F3F92066FEF7D9BE3F
:1033B000079F0022FD62059F1A60F862FEF76EBF4C
:1033C00040F2D1739E4218BF4FF000087EF44EAF1A
:1033D00064E700BFAFF30080182D4454FB2109407F
:1033E000182D4454FB2109C0182D4454FB211940C9
:1033F000F4060010800E00104C0700102C0700107F
:103400007C0C0010DC0B00109C060010A00B0010C0
:10341000C80B0010400E0010D806001078060010EF
:1034200000000010040D0010B0060010900C0010F9
:1034300050070010800C001024130010380E0010EC
:10344000180C0010B84D0A9C2868216804F096F802
:1034500003F052FDAEA3D3E9002303F0EFFBAEA3CC
:10346000D3E9002303F0EAFB04F034F801F060FA3A
:10347000079C616804F08CF9DDF828E00446DEF86A
:103480000010286804F07AF803F036FDA2A3D3E90F
:10349000002303F0D3FB04F01DF801F049FA059A6C
:1034A000516804F075F90146204604F067F80A9B5C
:1034B00004461968286804F061F803F01DFD96A31E
:1034C000D3E9002303F0BAFB04F004F801F030FA6A
:1034D000DDF81CE0DEF8041004F05AF906460A98FC
:1034E0000168286804F04AF803F006FD88A3D3E9D0
:1034F000002303F0A3FB88A3D3E9002303F09EFB82
:1035000003F0E8FF01F014FA059D696804F040F942
:103510000146304604F034F83F68064606970A9F95
:10352000D7F80080049FFFF71CB9804B4FF0000EC6
:103530001968A4F818E03046D9F800B0039304F0F5
:103540001FF8024640F63840D8F884A4C1F20000C3
:103550000168774C5846029204F012F851460694DE
:1035600004F016F9029A40F6384EC1F2000E0446F5
:10357000CEF800405146104604F00AF90B90039B28
:103580000B9A06981A600168384603F0F9FFD8F8DC
:10359000E81404F0FDF8069A40F6404E0346C1F2E6
:1035A000000EDEF800101360584603F0E7FF614B91
:1035B0008246C3F800A0DFF8B88140F64043C1F26C
:1035C0000003D8F80010C3F800B0304603F0D6FF6F
:1035D000594B834640F6B43E5848C1F2000EDEF81F
:1035E00000101590C3F800B03846C8F8006003F02A
:1035F000C5FF159940F6B432C1F2000208601760A9
:10360000FEF75CBF4E4D09956868FEF798BE2846E8
:10361000002104F079FA00283EF476AE28463946B7
:1036200003F0AEFF7060FEF771BE3046002104F07B
:103630006BFA00283EF450AE3046394603F0A0FF46
:10364000C9F80400FEF74CBE0132322A1A6000F2BB
:1036500054823C4D3C4F3D4C109504973C4D3D4FA2
:103660000C943D4C14950D9702F022FB03F032FCB4
:103670002BA3D3E9002303F093FC03F02BFF374F78
:10368000054600213D60129704F03EFA002800F044
:103690001D82049F324ED7F83880324F00233B60A2
:1036A00031684046119704F073F82F4A07464146A7
:1036B0004FF07E50089203F061FF0146284604F067
:1036C00067F80146384603F05BFF089D274F2B68DB
:1036D000139730606B60286038604FF44043C4F249
:1036E00001035A6841F6B501C2F30B1201FB02F265
:1036F0009212A2801A6822F0FF021A601A6842F041
:10370000807242F080021A60FEF777BAAFF3008051
:10371000182D4454FB21F93F182D4454FB21E93F57
:10372000C3F5285C8FC2C53F58070010380D001044
:10373000840C00100C0E00104806001084060010C7
:10374000C80C00107806001000000010A00B00103C
:10375000380E0010180C0010B0060010080E0010F3
:1037600008060010300E0010040700103806001084
:10377000040E00104B88A3F5A67292B2B2F5957FA5
:1037800000F24C828B88B3F51E7FC0F0DD82A24B25
:1037900000261A68511CB2F5C87F196040F2E08219
:1037A00000221A603446FDF761F99C4F40F2EC6547
:1037B000C1F2000507972D680A9F0695D7F800808B
:1037C0007AE2DDF810E04046DEF81C1303F0E0FF7B
:1037D00083460498D0F80813504601F1004103F0E5
:1037E000D7FF049A8046D2F8F412484603F0D0FF7F
:1037F0000146404603F0C4FE594603F0C1FE884B23
:1038000081461860FFF7E1BADC69864B1B680693B6
:10381000FFF715BA0021C4F2A001204604F06CF8AD
:10382000079FB96A03F0ACFE0021C4F2A00107466D
:10383000284604F061F8DDF814E0DEF8281003F003
:103840009FFE0646FFF75AB8304639466EA3D3E9C5
:10385000002303F017FE00283FF418A86CA3D3E957
:1038600000233046394603F0E9F903F033FE82467F
:10387000FFF70CB83046394663A3D3E9002303F0C1
:1038800001FE00283EF4EBAF61A3D3E900233046EC
:10389000394603F0D3F903F01DFE0546FEF7DFBFFE
:1038A0003046394658A3D3E9002303F0EBFD002846
:1038B0003EF4BEAF56A3D3E900233046394603F0A9
:1038C000BDF903F007FE0446FEF7B2BF079C059F53
:1038D0000023A362BB62089C40F2EC67C1F20007C0
:1038E000A3613B60E361504B00221A6040F2F06E2E
:1038F0000B9BC1F2000ECEF800201A600A9C149FA8
:1039000023683A68099C03F100436360E3614AB1AC
:10391000464B4FF461771F80454B1F80454B1F80FE
:10392000454B1F804FF461710A460D9C61F31F41A6
:1039300062F31F4284E8060040F2706740F6AC4E26
:1039400040F6801040F6A84140F2D46240F6206470
:103950000023C1F20007C1F2000EC1F20000C1F263
:103960000001C1F20002C1F200043B60CEF8003059
:1039700003600B60136023602B603360FFF75BBB59
:1039800040F2EC60089940F2F0620027C1F20000BA
:103990000023C1F200020760CF611360384604F0D3
:1039A000BDF800B20690FFF769BA0698494603F0E1
:1039B000E7FD40F2EC67C1F200073860139F7C60BE
:1039C0000C9C109FB4F80080B7F90030C3EB0808D6
:1039D000FFF73BBA079F0023BB62059C089F40F29C
:1039E000EC6EC1F2000EA362BB61CEF80030FB6149
:1039F00040F2F0600C4B0022C1F2000002601A603D
:103A00007CE700BFAFF30080182D4454FB2109C0B0
:103A1000182D4454FB211940D0060010080D001049
:103A2000E80600104C0E0010F80B0010860E001077
:103A30001C1300107E0E0010FA100010AB4A136821
:103A400001331846136003F04BFED8F8F81304F066
:103A50005BF8DBF800A0002840F0F98051462046D2
:103A600003F08CFD8146DBF804105046CBF808903B
:103A700003F084FD8246D8F83013DBF81800CBF849
:103A800014A003F085FE80464046494603F078FDC9
:103A9000974BDDF820E080460B93CEF81800FFF737
:103AA0006FB90C9CB4F80080109CB4F90030C3EBE3
:103AB0000808404603F018FE40F2EC6E089CC1F284
:103AC000000ECEF80000E761FFF7BFB9894D049FF3
:103AD0001195D7F84854119F3B68013318463B6055
:103AE00003F0FEFD294604F00FF8002840F08C801A
:103AF000814D824F08951397EFE5814C3221226862
:103B0000149419604AB17F4B4FF461751D807E4B50
:103B10001D807E4B1D807E4B1D807E4F7E4D0D9700
:103B20004FF46172134610950D9D62F31F4263F3CB
:103B30001F437A4C85E80C00794F7A4B02220C9493
:103B40000497794C1A708FE5784B196809B90121EF
:103B5000116001221A6011E4A3F102014A4242EB12
:103B60000102002B14BF134642F00103002B33D097
:103B7000049C4FF07E57D4F804823946404603F047
:103B80009BFFDFF89C91002800F01681664CC9F875
:103B9000C871238843F00403238040464FF08141DD
:103BA00003F08AFF002800F016812388049D0C9FF3
:103BB00043F010034FF07E52C5F85C2423807D89CA
:103BC0000BE000214046C4F2400103F075FF564C63
:103BD0000028E2D0C9F8F071534C01233360FFF79D
:103BE000C4BB4D4F524BB2F5007F3C804C4C1E8005
:103BF00094BF4FF07E530023013010970494C4F813
:103C0000C8310860FFF7A4BB284603F0ADFF3A4D6A
:103C10003A4F0895119D139728605EE58A88A2F5B2
:103C2000A67292B2B2F5957F42D8B3F51E7FC0F06E
:103C3000ED80404B1A68511CB2F5C87F196000F244
:103C400020810A9F0026D7F80080FEF7A0BA284AF4
:103C500040F2EC6E0B920B9B00221F60364B40F241
:103C6000F067C1F2000EC1F200073A60CEF8009092
:103C70001A605146CBF81C902046029203F07EFC5D
:103C80008146DBF804105046CBF8089003F076FC30
:103C90008246D8F83013DBF81800CBF814A003F0F4
:103CA00077FD029A8046CBF818001746FFF768B8F0
:103CB000224F002607973446214F224D099705953C
:103CC000049FFEF74EBD4FF4C0411846C4F2864132
:103CD00003F0FCFE039B002840F09380184603F09D
:103CE00043FF82B21346FFF7A0B900BF8809001056
:103CF000500C0010300E00100407001038060010A1
:103D0000380E0010860E00101C1300107E0E0010DE
:103D1000FA100010180C001078060010A00B00100C
:103D200000000010800C0010B006001050070010BA
:103D30002C070010D0060010F80B0010080D001022
:103D4000C80C00103C0D0010B3F5A57F54D86F4B84
:103D500000261A68511CB2F5C87F196000F2BB80BA
:103D60000A9CD4F80080FEF712BA049C4FF07E51F2
:103D7000D4F80472DFF8A881384603F09DFE0028CD
:103D800054D0634C00222388C8F8C82123F00403D0
:103D9000238038464FF0814103F08EFE002854D036
:103DA0002388049D0C9F23F010030022C5F85C2497
:103DB00023807D89FFF7D7BA40464FF0804103F05A
:103DC0007BFE00283FF4FDAE514CC9F8DC7123881E
:103DD00043F00803238000214046C4F2A00103F011
:103DE0006BFE00283FF4F9AE0C9F4FF07E537D89A7
:103DF000049FC7F80036F0E6444B002200261A6004
:103E0000AEE740F233431A46FFF70FB9B3F5A57F8B
:103E10002CD83E4B00261A68511CB2F5C87F196099
:103E20005FD80A9FD7F80080FEF7B1B938464FF047
:103E3000804103F041FE002859D0354C00222388F0
:103E4000C8F8DC2123F00803238000213846C4F29F
:103E5000A00103F031FE00283FF485AA0C9F002347
:103E60007D89049FC7F80036FFF77DBA294C2A4F99
:103E70002A4D00260794099705953446049FFEF7BE
:103E800070BC149F00213A68196012B90620FCF733
:103E90007BFC40F6845EC1F2000EDEF80C30049C20
:103EA000DEF83420DEF85C101A4D40F2EC67C4F8FE
:103EB0006C33C4F88023C4F89413C1F20007FDF7F3
:103EC0006DFC07953F680A9D002634460697D5F895
:103ED0000080FEF75FB900221A603446FCF710FA42
:103EE00063E400221A603446FDF7A6FC5DE400217D
:103EF0003846C4F2400103F0DFFD054C00283FF4D2
:103F000048AF0023C8F8F031FFF72DBAD0060010F3
:103F1000B0060010080D0010C80C00103C0D001079
:103F200000000010AFF30080B0F5824F2FD00DD904
:103F300044F20123984233D01AD9B0F5FC4F1DD07A
:103F4000B0F5FE4F17D10C2218490FE0032818D006
:103F500012D940F2011398421CD0B0F5804F0AD11B
:103F600013498B893BB100228A81062201F078BD7A
:103F7000B0F5844F17D0704778B1704706220D49CD
:103F8000F4E70D4B00221A800C4B1A807047062272
:103F90000B49EBE703220B49E8E703220A49E5E76F
:103FA00009220A49E2E70A490922DFE71006001060
:103FB000D806001038060010F81000101413001076
:103FC000180C0010B0060010880C0010940C0010A3
:103FD000B40C00102DE9F04F40F2031398428DB05D
:103FE00000F0A08116D9B0F5FA4F00F09581B0F538
:103FF000FE4F00F05481B0F5817F59D040F2031399
:10400000984200F03981B0F5807F00F01C810DB03E
:10401000BDE8F08FB0F5807F00F08181B0F5817F41
:10402000ECD1DFF82083002A3CD00B1D984594BFCB
:104030000023012348EA010508F10404A14294BFCA
:104040001C4643F0010415F0030F14BF00230123A5
:10405000012A94BF002303F0010323404FEA520CCE
:1040600083F00103BCF1000F08BF43F001034FEAE6
:104070004C040E464546002B40F03D8256F8047B2A
:1040800001339C4545F8047BF8D8944209D065007B
:10409000491900234544CE5A0134EE520233A2425C
:1040A000F9D852000127B0F5817F28F80270A5D118
:1040B000A34B1B680493002BA9D0A24B93F812A02A
:1040C000DA7CCDF814A0069293F814A05A7DCDF8AE
:1040D0001CA0089293F816A0DA7D5F7B93F811B0CC
:1040E000CDF824A00A924FF0000A197A587A9C7AE7
:1040F000DD7A1E7B93F80EC093F80F8093F8109032
:10410000914ACDF82CA00297CDF804B092F800A007
:104110008A4540F0DA8100297AD092F801A08245E0
:1041200040F0D381002873D092F802A0A24540F05D
:10413000CC81002C6CD092F803A0AA4540F0C58138
:10414000002D65D092F804A0B24540F0BE81002E4B
:104150005ED092F805A0DDF808B0DA4540F0B581F0
:104160005F46002F54D092F806A0E24540F0AD81A2
:10417000BCF1000F4CD092F807A0C24540F0A581D9
:10418000B8F1000F44D092F808A0CA4540F09D81D4
:10419000B9F1000F3CD092F809A0DDF804B0DA457F
:1041A00040F093815F469FB392F80AA0DDF814B007
:1041B000DA4540F08A815F4657B392F80BA0DDF8EC
:1041C00018B0DA4540F081815F460FB392F80CA039
:1041D000DDF81CB0DA4540F078815F46C7B192F84F
:1041E0000DA0DDF820B0DA4540F06F815F467FB169
:1041F00092F80EA0DDF824B0DA4540F066815F4603
:1042000037B192F80FA0DDF828B0DA4540F05D81B3
:104210004E4ADDF82C9058889C8840F2000A1368BA
:10422000DDF810B009EB8901C1F2000A0AEB810147
:1042300040EA04405B45086180F03E814B4524BF65
:1042400049461160E3E6424C23880B2B34D04C2BBB
:104250007FF4DDAE6388A28843EA0243F62B7FF445
:10426000D6AE0390FCF74CF80398214603220DB01C
:10427000BDE8F04F01F0F4BB364D4FF000092C883B
:10428000A5F81490022C30D0032C00F00081012CF2
:104290004BD02E4A002313602F4A1370B7E64FF419
:1042A0000C542E4BC5F20004022525601C78DFF863
:1042B000B4806C401C70B6E66388180600F1028179
:1042C000FCF71EF86388204913F0080F244B18BF31
:1042D0004FF07E501A8812BF42F0100222F01002F6
:1042E0000020C1F85C041A8091E6FDF757FA1849DE
:1042F000F5224FF0010AA5F814A04FF04C0B4A80AC
:1043000000234FF480700322A1F800B08B800DB021
:10431000BDE8F04F01F0A4BBDFF84C8083E6DFF886
:10432000308080E6DFF82C807DE66B884FF6FF72E8
:1043300093421BD0054A1360074B1C7067E600BF11
:104340003C0E0010FC0B0010000000109006001046
:10435000440E0010E00B0010C006001024130010E3
:10436000B006001054060010580C0010634BD3F830
:104370000090B9F1000F3FF44AAE614B614A197ADF
:104380000B929A7C587A0492DA7C9C7A05921A7D78
:10439000DD7A06925A7D1E7B5F7B93F80E8093F840
:1043A0000FC093F810A093F811B007929A7DDB7DAF
:1043B00008920A9300230B9A0993CDF82C90137856
:1043C0008B4240F08E8000295AD05378834240F0CF
:1043D0008880002854D09378A34240F08280002C3B
:1043E0004ED0D378AB427CD1002D49D01379B34263
:1043F00077D1002E44D05379BB4272D1002F3FD0E9
:10440000937943456DD1B8F1000F39D0D379634525
:1044100067D1BCF1000F33D0137A534561D1BAF1A3
:10442000000F2DD0537A5B455BD1BBF1000F27D035
:10443000937ADDF810904B4553D14B4603B3D37AB2
:10444000DDF814904B454CD14B46CBB1137BDDF8D6
:1044500018904B4545D14B4693B1537BDDF81C90EA
:104460004B453ED14B465BB1937BDDF820904B45ED
:1044700037D14B4623B1D37BDDF828904B4530D163
:10448000214B099901221960204B1A70BFE5FCF7F6
:1044900029FF1F4901264C274FF0F5094FF0000A6C
:1044A000AE820F80A1F80290A1F804A022464FF43A
:1044B000807001F0D5FAECE6144BC2F800900122AE
:1044C0001A70A4E5FCF7D2FAFCE6DDF82CB0049FE4
:1044D0000BF1010B1432BB45CDF82CB07FF416AEB6
:1044E00095E5099BDDF82C90013314324B45099377
:1044F0007FF465AF8BE50024C9E500BF3C0E0010DA
:10450000FC0B00100000001090060010C006001008
:10451000440E00104FF40A53C5F2000380221A60C3
:10452000704700BF4FF40453C5F200031B68DB0261
:1045300002D5064B01221A70054A4FF40853002198
:104540001170C5F2000380221A607047910E0010AE
:10455000840E0010264A4FF400431288C4F201036F
:1045600092B210B45A62234A128892B2DA61224A95
:10457000128892B29A61214A1188214A89B219623D
:104580001378591CC9B2042B117016D91D494FF468
:1045900080430988C4F2010389B259621A49088824
:1045A0004FF6F07180B2D861D86B0140D963D96BF6
:1045B00041F00A01D963002313704FF40043C4F2A1
:1045C0000103D96B4FF6F0720A40DA63DC6B4FF4EB
:1045D00080410022C4F20101012044F00F04DC6399
:1045E0004A608A6048605A609A60586010BC7047A0
:1045F0007E0E00101C130010860E0010FA10001022
:104600002713001040130010800E001030B4134B1D
:104610001A781146DAB9124C01232080114C23700C
:10462000114C24788CB141F66314A04212D90F4D7D
:104630004FF4085400202A70C4F20100C5F20004AF
:104640008022226041608160436030BC704700225C
:104650001A70FAE7054A1370F7E700BF910E0010D1
:10466000F41000107D0E00108F0E0010840E00104C
:10467000094A137873B1002319464FF4085011709A
:10468000C5F2000080220260C4F2010301225960D9
:1046900099605A60704700BF840E001010B540301A
:1046A0008AB03D244FF40043029003910194049298
:1046B000C4F204031A6F4FF4CA53C0F2010342F666
:1046C000E06102F00302032A14BF0A461A4641F6CB
:1046D000F1730592C1F6FF7301A806A998470AB0C5
:1046E00010BD00BF10B540308AB03E244FF40043E7
:1046F0000290039101940492C4F204031A6F4FF4E0
:10470000CA53C0F2010342F6E06102F00302032A39
:1047100014BF0A461A4641F6F1730592C1F6FF73BB
:1047200001A806A998470AB010BD00BF10B545F60C
:10473000DF14C5F63774A4EB60044FF07C5103F02E
:1047400027F8214603F024F8214603F021F801461A
:104750004FF07F5002F012FF214603F019F810BD10
:1047600070B50D4604460021284603F0A5F9A0B116
:104770002046002103F0C8F940F6DB76C3F6C9767F
:1047800048B92046002103F097F9002618B940F6F1
:10479000DB76CBF6C976304670BD2946204603F05D
:1047A000ABF8064602F040FA4FF07E5103F08EF966
:1047B00048B345F629413046C3F68F6102F0E8FF61
:1047C000314602F0E5FF4FF07E5102F0D9FE01467E
:1047D000304603F091F800210646284603F076F9AA
:1047E0000028D8D02046002103F070F958BB30468D
:1047F00002F082FB1AA3D3E9002302F01FFA02F0B1
:1048000069FE0646C7E73146304602F0C1FF45F66D
:104810002941C3F68F6102F0B3FE0146304603F032
:104820006BF802F069FB02460B460FA1D1E90001CB
:1048300002F002FA02F04EFE00210646204603F086
:1048400045F90028A7D0304602F056FB04A3D3E96F
:10485000002302F0F1F902F03DFE06469BE700BF9F
:10486000182D4454FB210940182D4454FB21F93FD5
:10487000F8B5044602F0D8F9054601464FF07E50DF
:1048800002F07CFE46F630610746C3F699412846A1
:1048900002F07EFF014641F22760C3F6985002F015
:1048A0006DFE294602F074FF43F28441C3F659615C
:1048B00002F064FE294602F06BFF40F6A451C3F6F5
:1048C000C97102F05DFE4FF07C510546384602F09A
:1048D0005FFF45F6DF16C5F63776A6EB670601469D
:1048E000304602F055FF0146304602F051FF0146C6
:1048F0004FF07F5002F042FE0146304602F048FF82
:104900000146284602F0F8FF02F0F6FA02460B468E
:1049100005A1D1E9000102F08FF902F0DBFD21468B
:10492000BDE8F84002F07AB9182D4454FB21F93F54
:10493000F8B508E030A3D3E900233046394602F049
:104940007BF902F0C7FD044602F0D6FA2CA3D3E9A6
:10495000002306460F4602F0B3FD0028EAD1304698
:10496000394629A3D3E9002302F08CFDB0B122A37C
:10497000D3E900233046394602F060F902F0AAFD7F
:10498000044602F0B9FA20A3D3E9002306460F46F5
:104990003046394602F076FD0028E8D1204602F084
:1049A00043F94FF683110646C3F6A271204602F082
:1049B000EFFE48F27B110546CBF6CF61204602F0B0
:1049C000E7FE314602F0E4FE0146284602F0D8FD3B
:1049D000044602F029F9214602F0DAFE214602F0EF
:1049E000CDFD46F26661C3F6666102F0D1FE214656
:1049F00002F0C6FDF8BD00BF182D4454FB2119403C
:104A0000182D4454FB210940182D4454FB2109C0A2
:104A1000F8B502F071FA34A3D3E9002302F00EF9DD
:104A200006E033A3D3E900233046394602F004F907
:104A300002F050FD044602F05FFA2FA3D3E90023F1
:104A400006460F4602F03CFD0028EAD130463946C2
:104A50002BA3D3E9002302F015FDB0B124A3D3E9C1
:104A600000233046394602F0E9F802F033FD0446EF
:104A700002F042FA22A3D3E9002306460F4630464D
:104A8000394602F0FFFC0028E8D1204602F0CCF8BD
:104A90004FF683110646C3F6A271204602F078FE57
:104AA00048F27B110546CBF6CF61204602F070FE3E
:104AB000314602F06DFE0146284602F061FD0446D3
:104AC00002F0B2F80146204602F062FE214602F0F2
:104AD00055FD46F26661C3F6666102F059FE014675
:104AE000204602F04DFDF8BD182D4454FB21F93F3E
:104AF000182D4454FB211940182D4454FB21094022
:104B0000182D4454FB2109C04EF21003CEF20003CD
:104B10001B6882B013F0010312D04FF47A7303FBC9
:104B200000F044F6D353C1F26203A3FB00231F4AF3
:104B300000211160990913688B42FCD302B07047C1
:104B40004FF40042C4F20402126F019302F0030218
:104B5000032A019A14D09042F0D940F2E731009331
:104B6000009A8A4205D8009A01320092009A8A423D
:104B7000F9D9019A01320192019A9042EFD8DDE70A
:104B80009042DBD941F26F710093009A8A4205D8B6
:104B9000009A01320092009A8A42F9D9019A0132B0
:104BA0000192019A9042EFD8C8E700BF3C13001071
:104BB0004FF40043C4F204031B6F03F00303032B01
:104BC00008BF41F63F114EF210030BBFCEF20003B7
:104BD000CEF200034FF46D424FF46D420CBFC0F2B1
:104BE000010142F6DF6159600CBFCEF20002CEF245
:104BF00000020021996007211960102382F82330F8
:104C0000014B00221A6070473C1300100A4A08B595
:104C100011680A4B013111601A6812B11A68013A21
:104C20001A60074B0BB1FBF7E9FB064B1BB1BDE864
:104C30000840AFF3008008BD3C130010940E001034
:104C4000FD0300000000000008B50A4B00221A70A6
:104C5000094B0BB1AFF300804FF040231A6822F0EC
:104C600004021A6001221A60AA229A6055229A60F0
:104C700008BD00BF1A130010000000004FF40043ED
:104C8000C4F204031B6F03F00303032B18BF42F6A7
:104C9000E0630AD145F2D422CEF604124FF4CA538F
:104CA000904228BF1046C0F20103A0FB03014FF45D
:104CB0008043C4F206030222186019619A60996861
:104CC000002241F001019960DA60DA6198684FF4DE
:104CD000614240F008009860CEF200024FF480512B
:104CE0004023C2F8801182F80C331160704700BF76
:104CF00008B5064B0BB1FBF717FC4FF48043C4F229
:104D000006039A6842F001029A6008BD2905000076
:104D100044F2040344F2640210B463F31F4301211C
:104D20009024C4F20402014218BF43F8044C043337
:104D300093424FEA4101F6D1C30705D54FF48043B2
:104D4000C4F2040391221A60410505D54FF4804353
:104D5000C4F2040391229A62020505D54FF4804300
:104D6000C4F204039122DA62C30405D54FF48043F0
:104D7000C4F2040391221A63810405D54FF48043E1
:104D8000C4F2040391225A63420405D54FF48043D0
:104D9000C4F2040391229A63030405D54FF48043BF
:104DA000C4F204039122DA634FF40053C5F2000306
:104DB0001A6822EA0000186010BC704744F26403CD
:104DC00044F2E40210B4C4F2040301219024C4F2BA
:104DD0000402014218BF43F8044C043393424FEAE3
:104DE0004101F6D14FF40053C5F200035A6822EA9C
:104DF0000000586010BC70472DE9F00F5C4CDFF8E4
:104E000088B1914640F698620025C1F200022570F3
:104E10008BF800501560574A1560574A1360574A7F
:104E2000116003B10131002933D0554F10F0030F49
:104E300007F1040214BF00260126051D904294BF0D
:104E400000220122BD4238BF42F00102032994BF73
:104E5000002606F0010616404FEA910A86F0010688
:104E6000BAF1000F08BF46F001064FEA8A05002E8E
:104E70007CD18046BC4658F8042B013656454CF888
:104E8000042BF8D3A94204D0425DEA550135A9426A
:104E9000FAD84FF080422021116040F2011201E067
:104EA000013A52D021780129FAD19BF80020052A35
:104EB000FBD14FF080401022082102604FF4807235
:104EC000816101E0013A02D00168C906FAD4002BE1
:104ED00033D02C4A09F1040019F0030FA2F10407A2
:104EE00014BF00210121B8422CBF002001209145B0
:104EF00094BF024640F00102032B94BF002101F051
:104F0000010111409E0881F00101002E08BF41F00F
:104F10000101B200002927D13C46484654F8045B01
:104F200001318E4240F8045BF8D8934205D0D15D40
:104F300009F8021001329342F9D840F69863C1F2A1
:104F400000031868BDE8F00F70474FF08040102252
:104F5000082102604FF48072816101E0013AB6D00D
:104F60000168C906B3D5F9E70022E0E700258BE721
:104F70007C0E0010281300101013001020130010D6
:104F8000B0100010B4100010A80E001030B44FF094
:104F900080435A68884B1B78002B68D1D3B2083BFA
:104FA000502B79D8DFE813F07D0078007800780086
:104FB0007800780078007800900078007800780019
:104FC0007800780078007800A400780078007800F5
:104FD0007800780078007800B400780078007800D5
:104FE0007800780078007800650078007800780014
:104FF0007800780078007800BE00780078007800AB
:105000007800780078007800C20078007800780096
:105010007800780078007800CA007800780078007E
:105020007800780078007800D40078007800780064
:105030007800780078007800D60078007800780052
:10504000780078007800780051005C484FF0804389
:1050500001689C684D1C0560594805224454594913
:105060000A7059490A7010221A6008229A6130BCED
:105070007047564B564A196812689142C0F08480B6
:10508000544B1B68002B00F08B8020224FF0804394
:105090001A604C4B03221A7008224FF080439A6129
:1050A000E5E74A4A002313601168454B585C4FF00E
:1050B000804301319860116020229A61414A0121A8
:1050C000117008229A61D2E73C4B404A00211960D6
:1050D00011683B4B585C4FF0804301319860116080
:1050E00020229A61374A0221117008229A61BEE794
:1050F000344B1A78012ACFD1344A31481168445CC4
:1051000001314FF080408460116004221A70C3E7BF
:105110002C4A052313702C4A137008224FF0804349
:105120009A61A4E705224FF0804398E7FF22254BC0
:105130001A7008224FF080439A6198E7254B0422A9
:105140001B68012B4FF080430CBF9A611A60A3E7E4
:105150000522ECE7194B4FF0804219689568481C0E
:10516000186018681B4B01301B68154C9842655439
:1051700004D2144904230B7013608DE7114B0521F1
:1051800019700423936187E71A680D49885C01321E
:105190004FF0804188601A600A4B04221A707BE746
:1051A000084B04221A70084B05221A7010224FF087
:1051B00080431A6070E700BF8E0E0010980E00103A
:1051C000B01000107C0E0010A80E00102813001064
:1051D000201300101013001038B54FF40043C4F230
:1051E000040359684FF4804221F001015960596865
:1051F000C4F2040241F001015960D3F8804001215A
:1052000044F40064C3F880400223116204465162F2
:1052100004209362FFF77CFD4FF40053C5F20003B6
:105220001A68002142F004021A60C4F20401CA683C
:105230000023D006C4F20403F9D44FF40851C5F298
:1052400000014FF4004204200860C4F204020F2160
:1052500001251960C2F8945099689968996899680D
:105260009968996899689968996899689968996836
:105270009968996899689968CCB94FF48042C4F2EA
:105280000402956006225A615C60586058684FF4C9
:10529000614240F002005860CEF200024FF48011EB
:1052A0002023C2F8801182F81433116038BD136FC7
:1052B00003F00303032B18D0630803F53A5360335C
:1052C00093FBF4F4FE2C19D8012C88BF04F0FE04E3
:1052D00000D802240023C4F2040300221C615A6097
:1052E0005A6842F002025A6038BD34FA05F303F5F9
:1052F0008C3303F5A07393FBF4F4E3E7FE24E9E7B2
:105300000E4B10B593B14FF40044C4F2050403E012
:10531000A06880B2AFF30080E3685807F8D44FF478
:105320000043C4F2050303221A6210BD4FF4004388
:10533000C4F20503DA685207FCD4F0E7000000006D
:1053400070B44FF40044C4F20404D4F880604FF405
:105350004043C4F20003002246F08006C4F8806097
:105360004FF46141D8605A619A62DA631A675A67EA
:1053700001225A60CEF200014FF480354023C1F87B
:10538000805181F810330D6070BC704710B44B062B
:105390004FF44043C4F2000398615A6948BF41F09A
:1053A000010122F007025A61DA6B01F0070022F0D6
:1053B0003002DA635A6F22F001025A675A690243D7
:1053C00011F030005A610ED0DC6B4FF48042204364
:1053D000C4F20402D86302201062CA0610D5DA6B48
:1053E00042F00102DA63090741BF4FF44043C4F2BF
:1053F00000035A6F42F0010248BF5A6710BC704761
:10540000880642BFDA6B22F00102DA63EBE700BFE5
:1054100010B54FF44043C4F200031C681A4A04F06C
:105420001F0422B1186800F01F00AFF30080E107ED
:1054300003D5164B0BB1FCF7C3FBA20703D5144BE6
:105440000BB1AFF30080630703D5124B0BB1AFF381
:105450000080200703D5104B0BB1AFF30080E106AD
:1054600009D50E4B3BB14FF44043C4F20003D86A58
:1054700080B2AFF300804FF44043C4F200031C60DD
:1054800000BF00BF10BD00BF00000000C11B000036
:10549000000000000000000000000000000000000C
:1054A00010B50023C4F201031C68194A04F01F045C
:1054B00022B1186800F01F00AFF30080E00703D5A9
:1054C000144B0BB1FFF726F8A10703D5124B0BB114
:1054D000FFF7CEF8620703D5104B0BB1AFF3008096
:1054E000230703D50E4B0BB1FFF71CF8E00608D5D8
:1054F0000C4B33B10023C4F20103D86A80B2FFF72A
:1055000085F80023C4F201031C6000BF00BF10BD7A
:10551000000000001545000071460000000000007A
:10552000254500000D46000010B54FF48043C4F23D
:1055300001031C68194A04F01F0422B1186800F026
:105540001F00AFF30080E30703D5154B0BB1FFF746
:1055500001F8A00703D5134B0BB1AFF3008061072F
:1055600003D5114B0BB1AFF30080220703D50F4BCE
:105570000BB1AFF30080E30608D50D4B33B14FF408
:105580008043C4F20103D86AAFF300804FF4804334
:10559000C4F201031C6000BF00BF10BD000000008A
:1055A0005545000000000000000000000000000061
:1055B0000000000010B54FF40043C4F201031C6862
:1055C000184B04F01F0413B1E0B2AFF30080E20700
:1055D00003D5154B0BB1AFF30080A30703D5134BD5
:1055E0000BB1AFF30080600703D5114B0BB1AFF3E4
:1055F0000080210703D50F4B0BB1AFF30080E2060B
:1056000008D50D4B33B14FF40043C4F20103D86AFF
:10561000AFF300804FF40043C4F201031C6000BFED
:1056200000BF10BD000000000000000000000000EE
:10563000000000000000000000000000002865D00D
:10564000C30705D54FF48043C4F204030222DA6293
:10565000810705D54FF48043C4F2040302221A6384
:10566000420705D54FF48043C4F2040302225A6373
:10567000030705D54FF48043C4F2040302229A6362
:10568000C10605D54FF48043C4F204030222DA6355
:10569000820605D54FF48043C4F2040301221A6444
:1056A000430605D54FF48043C4F2040301229A65F2
:1056B00001062CD44FF40043C4F20403D3F8802035
:1056C00042F40052C3F88020D3F8382222F01002AE
:1056D000C3F838221B6F03F00303032B4FF440433E
:1056E00008BF4FF48062C4F2010318BF00221A60A1
:1056F0004FF44043C4F201031A6822F480021A6096
:105700001A6822F400021A600022DA6070474FF42F
:105710008043C4F204030122DA65CBE738B5438A3B
:10572000027C9BB29B1A0E2B9FBF418A037C89B2DD
:10573000C3EB01014FF4004288BF0F210446856886
:10574000C4F2000259B153699B06FCD5237C013990
:10575000E85C0133DBB2106023740029F3D1227CB2
:10576000638A9BB29A4200D038BD21746182E38C77
:105770009BB2002BF8D0E184638A20689BB213B1FE
:105780000123E38438BD064BA2681B6802211B6815
:105790005B6C984783B263822046A369984738BD03
:1057A0009C0E001008B540F69C63C1F200031A6815
:1057B00040F6AC631268C1F200031868D3689847DA
:1057C00008BD00BF4FF40053C5F200031A6822F071
:1057D00002021A6000BF00BF00BF4FF40452C5F2BE
:1057E000000210681968104A41F00201196013782C
:1057F000C0F3400003F00203DBB253B94FF4085387
:10580000C5F2000302211960137803F0FD03137041
:1058100070474FF40A53C5F2000302211960137850
:105820000B431370704700BF2413001008B5FFF737
:10583000D3FC41F21833C1F2000300221A7008BDF4
:1058400038B54C4C2378013B052B13D8DFE803F027
:1058500019202B4D6B03484B1B889BB2984278D084
:10586000464B23B1464B188880B2AFF3008000232B
:10587000237038BD4EF641439842FAD1012323707C
:1058800038BD41F2BE33984260D00023237038BD4A
:105890003C4B3B4A108018801A88374B92B21A80D2
:1058A0000323237038BD384A364B10801D88324997
:1058B000401980B2188008881B881B189BB20B8087
:1058C00013889BB2FF2B0AD813889BB2002B3AD1C6
:1058D0002E4B23B12A4B188880B2FEF725FB0023FC
:1058E00023702B4B00221A8038BD294B294D1A8872
:1058F00092B2511C89B219801988234B89B21B8836
:1059000025F812009BB2994201D3052323701D4B49
:10591000194A1988401880B2188011881B885B18B2
:105920009BB2138038BD174B1B889BB298421DD089
:10593000124B002BA9D0124B188880B2AFF3008015
:105940000023237038BD04232370CAE70223237089
:1059500038BD114B002B8AD0094B0E4918880A4BD1
:1059600080B21A8892B2FEF735FB80E706232370D7
:1059700038BD00BF18130010A00E0010000000007A
:10598000820E0010161300108C0E0010293F00002C
:10599000880E0010FC100010D53F00001E4A1F4961
:1059A00000232DE9F003C4F20403DFF874800F46EE
:1059B00016469C460D881488ADB2A4B2A54235BFE8
:1059C0003C883D88A4B234883DBF358804F5807496
:1059D000C5EB0404C4EB0504A4B2C4B1DC6814F044
:1059E000020F14D01488A4B2651CADB21580B2F8B1
:1059F000009038F814501FFA89F4FF2C01D90024C4
:105A00003480DC68A407FCD5CCF80850D2E7BDE8A8
:105A1000F003FFF715BF00BF14130010F8100010BB
:105A2000B00E00100D4B10B583B10024C4F2040475
:105A300003E0A06880B2FFF7B1FFE3685B07F8D42A
:105A40000023C4F2040303221A6210BD0023C4F22F
:105A50000403DA685207FCD4F2E700BF9D59000046
:105A60002DE9F003504B514C1E882588B6B2ADB2DB
:105A7000AE4225881C88ADB280F08880013D2D1B88
:105A8000ADB2941DA54240F388801C88DFF820C188
:105A9000A4B2651CADB21D801D884EF641462CF89F
:105AA0001460ACB2FF2C02D93F4C002525801C8825
:105AB00041F2BE36A4B2651CADB21D801D882CF823
:105AC0001460ACB2FF2C02D9374C002525801C880D
:105AD000A4B2651CADB21D801D882CF81400ACB2B8
