:100000000020001061010000FD000000FD00000064
:10001000FD000000FD000000FD00000000000000E9
:10002000000000000000000000000000FD000000D3
:10003000FD00000000000000FD000000E91F0000BE
:100040003D0100003D0100003D0100003D010000B8
:100050003D0100003D0100003D0100003D010000A8
:100060003D0100003D010000000000000000000014
:100070009920000000000000A925000035230000A1
:10008000E52A0000792B00000D2C00009D2C0000BB
:100090000D3000000D320000D12D00003D010000A8
:1000A0003D0100003D0100003D0100003D01000058
:1000B0003D0100003D0100003D0100000000000086
:1000C0000C45000000000010E40200000C45000098
:1000D00000400020000000000C450000000000204F
:1000E00000000000E80200107C0700000040002033
:1000F0000000000000000020000000000B4B502218
:100100005A60DA600A4B0B491A6842F00A021A6018
:100110006FF00A02C3F880200222C3F880210A226D
:10012000054B0A6000BF013BFCD1F9E700400440E9
:10013000002000500023005020A10700704710B598
:10014000002302E01C585C5004339342FAD310BDE4
:1001500000231A4601E01A5004338B42FBD3704748
:1001600037B5224C224D04E094E807000C34FFF729
:10017000E6FFAC42F8D305E094E803000834FFF74B
:10018000E7FF00E01B4DAC42F6D30023019340F2A1
:10019000E73302E0019A01320192019A9A42F9D9B9
:1001A00000F032F8144B01229A67D3F880206FF0E8
:1001B000010042F4803242F04002C3F8802000F097
:1001C00053F84FF0FF3000F07DF801F0EBFE0B4BE1
:1001D0000BB100F075F90A4B0BB1AFF30080094B7E
:1001E00013B100F031FAFCE7FEE700BFC0000000E9
:1001F000E4000000FC00000000800440C104000096
:1002000000000000490600000F4BD3F8382222F00E
:100210002002C3F8382200221A62C82200BF013A25
:10022000FCD101221A6425229A60D3F8382222F0E8
:100230008002C3F83822044BDA68D207FCD5024B9F
:1002400003221A67704700BF00800440054B00225C
:100250001A604FF47A725043B0FBF2F2196891427F
:10026000FCD370475C0A0010C20702D5134B9122E1
:100270001A60430502D5114B91229A62010502D5FD
:100280000E4B9122DA62C20402D50C4B91221A6302
:10029000830402D5094B91225A63410402D5074BCE
:1002A00091229A63020402D5044B9122DA63044B33
:1002B0001A6822EA00001860704700BF004004403E
:1002C00000200050094B0A4910B501229024024237
:1002D00018BF43F8044C043352008B42F7D1054B4E
:1002E0005A6822EA0000586010BD00BF6440044014
:1002F000E440044000200050FFFFFFFFFFFFFFFF2E
:10030000034B1860034B1A7822EA000018707047FC
:1003100000220050440A0010034B1860034B1A7867
:100320005040C0B21870704700230050440A0010BB
:10033000074A00230121117053709170D37013711B
:100340005371044A9370D37013705370704700BF99
:10035000A104001018030010F7B5504A00235360A1
:10036000536253644E4A01245360536253644D4AAE
:1003700068465360536253644B4B00229C70DA70A2
:100380006D4603F0A4F8002860D0484B02221A60A2
:10039000474B08201A7842F002021A70FFF7B0FFAC
:1003A000444B1C70444B1C704FF4FA646846013C8B
:1003B00003F08DF8A4B2022001F02CFE002CF5D140
:1003C0003C4A022313703C4A4FF4FA6513702646E8
:1003D0002746684603F07BF8BDF90030013DFF1861
:1003E000BDF902300220F618BDF90430ADB2E418B0
:1003F00001F010FE002DECD12E4B02201D702E4B73
:100400001D70FFF77DFF0820FFF77AFF384603F0E5
:1004100019FE2A4903F01EFF224D2861304603F0E1
:1004200011FE264903F016FF2863204603F00AFE5A
:10043000224903F00FFF1C4B28659A78D97842EACD
:10044000012242F002029A70120ADA70684603F042
:1004500015F848B1144B9A78D97842EA012242F053
:1004600004029A70120ADA70684603F05CF848B128
:100470000D4B9A78D97842EA012242F008029A702C
:10048000120ADA70084B9A78D97842EA012222F0EF
:10049000010292B29A70120ADA70FEBD680300106F
:1004A000CC03001008050010180300108022005033
:1004B000440A001096040010A00400100000FA4442
:1004C0002DE9F74F0A20FFF7CFFE464B0A201A68A6
:1004D000002442F00A021A60FFF712FF0A20FFF719
:1004E0000FFF414A414B1470414A00201470414AA9
:1004F00000211480404A1C701460404ADFF840918B
:10050000C2E90001019301F04DFD3D4925220A6039
:100510003C493D4D0A603D4ADFF828811470FFF7E1
:1005200007FF204602F062FC02F0D0FD384A32217B
:10053000116002F045FFFFF70FFF36494FF07E5282
:100540000A6000224A608A60CA6033491F200A603C
:100550003249C9F800200A60314901270A6031494F
:1005600026460A6030490A6002F0D2FE4FF4FA6073
:1005700001F050FDD5F84CB02C49584603F0B6FDBB
:10058000D5F810A0E8642949504603F0AFFD286172
:10059000472088F8007002F01BF8422140F2E24048
:1005A00002F09EF84FF4FA6001F034FDD9F8001023
:1005B0001F4A282011601F4A032114801E4AC5F8D3
:1005C0004CB017801D4AC5F810A0118088F8004073
:1005D00001F04AFD019B02201C7003B0BDE8F04F02
:1005E000FFF78EBE00200050A004001096040010FB
:1005F00050040010980400100C0300107005001047
:100600007C050010080300100000001020030010FB
:1006100004030010500300109C0400101403001089
:100620002403001004050010780500100000484263
:1006300060030010BE040010660300106403001085
:1006400054040010100300107047000038B5204B10
:10065000204D1C684FF47A70013400211C60D5E9EC
:100660000023121843EB0103C5E900231923B4FB4F
:10067000F3F203FB1243002B29D16423B4FBF3F202
:1006800003FB1242144B154C6AB91B7813B10220BC
:10069000FFF742FE237813B10820FFF73DFE104B11
:1006A0001B78A3B10EE01878022801D1FFF734FEC1
:1006B0002378022B02D10820FFF72EFE084B1B786F
:1006C000022B04D10120BDE83840FFF725BE38BD1C
:1006D0000C0300107005001096040010A004001018
:1006E0005004001038B51D4B1C681D4B1B689C4204
:1006F00032D21C4AA4B2210A51701B49142000FBBB
:100700000410147001699BB2C1F307259170D57074
:100710009371C1F307451B0A090E1571517102F857
:10072000073F0023C15C02F8011F11B10133102BF8
:10073000F8D14FF481700B490C2202F08FFC58B1B4
:100740000A4A064B117829B100211170044A126837
:100750001A6038BD01341C6038BD00BF08030010AA
:100760007C0500103603001000000010200300106C
:100770002DE9F843354C0546D4F88870344938469D
:1007800003F0B4FC81464946284603F04DFE48B1CB
:10079000D4F89C10284603F0A9FC394603F05AFD12
:1007A000BDE8F883D4F8B0602949304603F09EFCD8
:1007B00080464146284603F037FE18B3494628468E
:1007C00003F08AFBD4F89C5080462946D4F8C40034
:1007D00003F082FB0146404603F088FC394604469C
:1007E000304603F079FB0146204603F033FD1849FB
:1007F0000446284603F07AFC0146204603F06EFBCF
:10080000BDE8F883D4F8C470D4F8D800394603F0B2
:1008100063FB41460446284603F05EFB0146204642
:1008200003F064FC314604460A4803F055FB0146D8
:10083000204603F00FFD06490446384603F056FCF7
:100840000146204603F04AFBBDE8F8830000001093
:10085000000020410000C8422DE9F04FAB4B8FB0A3
:100860001A6E5D6A996B5B6F0CA808920993A84C8D
:10087000079102F02CFEBDF83070BDF83290BDF843
:1008800034802780A4F82090A4F8408029464FF0B7
:100890007E5003F021FB61680646284603F026FCE3
:1008A000824638B203F0CEFB0146304603F01EFC10
:1008B0000146504603F012FB616A07466060284615
:1008C00003F014FC82460FFA89F003F0BBFB0146EB
:1008D000304603F00BFC0146504603F0FFFA616C12
:1008E00081466062284603F001FC05460FFA88F055
:1008F00003F0A8FB0146304603F0F8FB014628460A
:1009000003F0ECFA216905466064384603F0E4FA26
:10091000804903F09FFC216B0746A060484603F026
:10092000DBFA7C4903F096FC216D0646A06228465E
:1009300003F0D2FA774903F08DFC77490546A064AD
:10094000384603F0D3FB03F097FDDFF8DC8180B27B
:1009500088F80600000A88F807006F49304603F05F
:10096000C5FB03F089FD80B288F80800000A88F80A
:1009700009006949284603F0B9FB03F07DFD80B208
:1009800088F80A00000A88F80B006169384603F00D
:10099000A3FA614903F05EFC616BE06006903046AB
:1009A00003F09AFA5C4903F055FC616D8246E062FF
:1009B000284603F091FA584903F04CFCE064574C88
:1009C000574BD4F80090E768D4F804B0A168C3F896
:1009D0000090DF60C3F804B09960804648460391F8
:1009E00002F038FFCDE904010698594603F07EFB7A
:1009F00003990546504603F079FB0146284603F06B
:100A00006DFA39460546404603F070FB014628461C
:100A100003F064FA02F01EFF0022424B02F06EFF68
:100A200002460B46DDE9040102F0B4FD03F000FAD2
:100A3000844620605846CDF808C002F00BFFCDE98F
:100A400004014946069803F051FB039905464046C8
:100A500003F04CFB0146284603F040FA39460546B0
:100A6000504603F043FB0146284603F035FA02F0F6
:100A7000F1FE00222B4B02F041FF02460B46DDE95E
:100A8000040102F089FD03F0D3F906466060039883
:100A900002F0E0FECDE904014946504603F026FB92
:100AA00059460546404603F021FB0146284603F01F
:100AB00013FA39460546069803F018FB0146284606
:100AC00003F00CFA02F0C6FE0022164B02F016FFED
:100AD00002460B46DDE9040102F05EFD03F0A8F9D1
:100AE0000546A060384602F0B5FECDE9040149464E
:100AF000404603F0FBFA59460746504603F0F6FA23
:100B00000146384603F0EAF910E000BF000000108B
:100B100008050010B6A04C440000484450030010E3
:100B2000400400100000E03FA904001003990746AC
:100B3000069803F0DBFA0146384603F0CDF902F0DF
:100B400089FE0022494B02F0D9FE02460B46DDE940
:100B5000040102F021FD03F06BF9DDF808C007463F
:100B60006146E060604603F0C1FA314604903046C9
:100B700003F0BCFA29460A90284603F0B7FA394632
:100B80000390384603F0B2FA039906900A9803F0EE
:100B9000A5F9DDF808C029468146604603F0A6FAAB
:100BA00039468046304603F0A1FA0146404603F03C
:100BB00093F9014603F092F939468046284603F03E
:100BC00095FADDF808C005463146604603F08EFA16
:100BD0000146284603F082F9014603F07FF94946B1
:100BE0000B90049803F07AF9069903F077F901F075
:100BF0005FF82168054603F079FA616820600646CF
:100C0000284603F073FA294660600746A06803F09F
:100C10006DFA2946A060E06803F068FA4FF07E5153
:100C2000E060404603F0F6FB50B13146384601F033
:100C30005BF8014603F052F90D4B0E4A18600FE0C5
:100C400040460D4903F0E6FBF0B13146384601F06D
:100C50004BF84FF0404103F049FA054B074A186042
:100C6000074B1A60074B00221A6044E00000E03F87
:100C700054040010DB0FC93F000080BFDB0FC9BF69
:100C80009C04001014030010404601F0B1F8AB4B77
:100C900049461860484603F021F901464FF07E505E
:100CA00003F01AF901460B9801F01EF8A44BE16815
:100CB0001860206803F01AFAA1680546606803F01E
:100CC00015FA0146284603F009F9014603F006F932
:100CD00006990446039803F001F9014603F0FEF873
:100CE00001464FF07E5003F0F7F80146204600F031
:100CF000FBFF944B1860924A934B1268C2F3072192
:100D00001A705970C2F30741120EDA708B4A99704B
:100D10001268C2F307211A715971C2F30741120E0A
:100D2000DA71884A99711168C1F3072019725872F3
:100D3000C1F30740090ED9729872844B19880131AA
:100D400089B22729198040F2B581002119800CA8A9
:100D5000019202F093FBBDF830907D4D7D4EBDF8C1
:100D60003270BDF834404FEA1923A5F800902F8463
:100D7000A5F8404073703B0AF370230A737186F83C
:100D80000090B770347107994FF07E5003F0A4F8CB
:100D900069688246079803F0A9F983460FFA89F03B
:100DA00003F050F90146504603F0A0F901465846B9
:100DB00003F094F8696A81466860079803F096F931
:100DC000834638B203F03EF90146504603F08EF9EF
:100DD0000146584603F082F8696C07466862079836
:100DE00003F084F9834620B203F02CF90146504603
:100DF00003F07CF90146584603F070F84946044672
:100E00006864484603F072F939468146384603F073
:100E10006DF90146484603F061F821460746204631
:100E200003F064F90146384603F058F800F040FF3B
:100E300004462146686803F059F92146E860686A6B
:100E400003F054F92146E862686C03F04FF9E86456
:100E50000CA802F068FBBDF830B03F4CBDF8327012
:100E6000BDF834904FEA1B23A4F800B02784A4F8FF
:100E7000409073733B0AF3734FEA1923737486F837
:100E80000CB0B77386F8109008994FF07E5003F0BD
:100E900023F861688246089803F028F906460FFA9D
:100EA0008BF003F0CFF80146504603F01FF90146DE
:100EB000304603F013F8616A06466060089803F054
:100EC00015F9834638B203F0BDF80146504603F0E9
:100ED0000DF90146584603F001F8616C074660625F
:100EE000089803F003F983460FFA89F003F0AAF893
:100EF0000146504603F0FAF80146584602F0EEFF6C
:100F0000E6606064E762E0640A998346049802F050
:100F1000E3FF039902F0E0FF069902F0DFFFD5F846
:100F20004CA0039051460B9803F0E0F8D5F82C90B4
:100F3000034649460398029310E000BF9C0400104A
:100F40001403001054040010E8020010BE04001046
:100F5000CC030010A90400106803001003F0C6F8C9
:100F6000029B0146184602F0B7FF8D4CED68A06168
:100F70002946039803F0BAF85146034640460293C7
:100F800003F0B4F8029B0146184602F0A7FF294679
:100F9000A063304603F0AAF849468046384603F07D
:100FA000A5F80146404602F099FF51468046584652
:100FB00003F09CF80146404602F090FF019A494632
:100FC000D2F800A0804603F091F80146384602F0BE
:100FD00083FF29460746404603F088F8014630461D
:100FE00002F07AFF0146384600F07EFE0146504688
:100FF00002F074FFA06502F02DFC63A3D3E9002387
:1010000006460F4602F00AFF48B161A3D3E9002368
:101010003046394602F0BEFA02F00AFFA065604C85
:10102000A06D02F017FC5CA3D3E9002306460F462F
:1010300002F0D6FE48B156A3D3E900233046394624
:1010400002F0AAFA02F0F4FEA065564D544CAE6BC5
:10105000E16B304603F04AF8696F8246E06D03F0B9
:1010600045F8D4F818908046E169304603F03EF820
:10107000494602F033FFA76BE0613946504602F063
:101080002DFFA66DE0633146404602F027FF2B6935
:10109000E06503F100484946404603F027F8394629
:1010A0006061404603F022F831466063E86C03F06B
:1010B0001DF860653C4B1A78002A40F034843B4BA5
:1010C0001988013189B20129198040F2D883384D3D
:1010D0001A80A88802F0B2FF01464FF0884002F063
:1010E000FBFE304C00F10040D4F8001102F0FEFF8E
:1010F000304B1860688802F0A1FF01464FF088402D
:1011000002F0EAFED4F8141102F0F0FF2A4B186046
:10111000E88802F093FF01464FF0884002F0DCFEC1
:10112000D4F8EC1000F1004002F0E0FF054602F0B8
:1011300029FAD4F83C1103F095F900285DD01F4C32
:101140002846216802F0CAFE206002F083FB0EA34D
:10115000D3E9002306460F4602F060FE80B30CA3DD
:10116000D3E900233046394602F014FA02F060FE5B
:101170002060606802F06EFB05A3D3E9002302F053
:1011800009FA37E0AFF30080182D4454FB210940E1
:10119000182D4454FB211940182D4454FB2109C03B
:1011A0000805001000000010100300106603001076
:1011B00030040010D8040010EC040010C00400102B
:1011C0003046394696A3D3E9002302F009FEA0B1C8
:1011D00095A3D3E900233046394602F0DDF902F049
:1011E00027FE2060606802F035FB8FA3D3E900235F
:1011F00002F0D2F902F01CFE6060914B4FF07E517C
:10120000D3F8E00203F006F98E4FDFF854923E68FF
:10121000D9F8008000228C4B002844D08B4C8C4D98
:10122000052119705A702968206802F055FE02F0F5
:1012300011FB7FA3D3E9002302F0AEF902F0F8FD21
:1012400000F016FE314602F051FF29688246206800
:1012500002F042FE00F00CFE414602F047FF01465C
:10126000504602F039FE29683860206802F034FEEA
:1012700000F0FEFD314602F039FF2968064620687D
:1012800002F02AFE02F0E6FA69A3D3E9002302F095
:1012900083F902F0CDFD00F0EBFD414602F026FFA0
:1012A0000146304623E0012119705A70694800F068
:1012B000DFFD314602F01AFF0446674800F0D8FD12
:1012C000414602F013FF0146204602F005FE386059
:1012D000614800F0CDFD314602F008FF04465D484C
:1012E00000F0C6FD414602F001FF0146204602F033
:1012F000F5FD5A4BC9F80000188802F09FFEFFF771
:1013000037FA504E0790D6F800907168484602F0C0
:10131000E3FD534DF060D5F800806968404602F067
:10132000DBFD504CE86027686168384602F0D4FD68
:101330004D4BE0601968C6F80490C5F804806760FA
:10134000484602F0CBFD494B06461968404602F07C
:10135000C3FD3F4B03901B6838461946089302F0C3
:10136000BDFD0690304602F075FA33A3D3E90023A1
:1013700004460D4602F052FD38B1204629462AA304
:10138000D3E9002302F006F90EE02046294624A303
:10139000D3E9002302F024FD48B12046294622A3C8
:1013A000D3E9002302F0F8F802F042FD0646039864
:1013B00002F050FA20A3D3E9002304460D4602F0C0
:1013C0002DFD38B12046294617A3D3E9002302F0AA
:1013D000E1F80EE02046294611A3D3E9002302F0EC
:1013E000FFFC48B1204629460FA3D3E9002302F0B1
:1013F000D3F802F01DFD0390069802F02BFA0EA31D
:10140000D3E9002304460D4602F008FD80B32046D0
:10141000294605A3D3E9002302F0BCF837E000BF5A
:10142000182D4454FB2109C0182D4454FB211940A8
:10143000182D4454FB21F93F182D4454FB21094039
:1014400000000010D8040010180300106003001002
:1014500054040010E4CB1640DB0F493F3004001069
:10146000EC040010C00400109C04001014030010D1
:1014700020462946ACA3D3E9002302F0B1FC48B1D1
:1014800020462946AAA3D3E9002302F085F802F0FA
:10149000CFFC0690A84CDFF8D882D4F86812D8F8B0
:1014A000100002F023FEA54DD4F8B8128346286937
:1014B00002F01CFEDFF8BC92D4F8F0110746D9F810
:1014C000100002F013FE314602F008FD0399824637
:1014D000C9F81000584602F001FD06990246C8F806
:1014E00010003846019202F0F9FC954F2861BD6A60
:1014F000D4F8B41105F1004002F0F8FDD4F8C81199
:10150000034601F1004B2846D9F80810029302F077
:10151000E3FC0146584602F0E9FD029B01461846ED
:1015200002F0DCFC8146D4F88C01314600F1004029
:1015300002F0DCFD0146484602F0D0FC0646D4F835
:10154000A001514600F1004002F0D0FD01463046B6
:1015500002F0C4FCBE68D4F82C12814606F10040AB
:1015600002F0C4FDD4F840328246D8F80810304664
:1015700003F1004B02F0B0FC0146584602F0B6FD04
:101580000146504602F0AAFCD4F8041280460398A3
:1015900002F0ACFD0146404602F0A0FC019A8046F4
:1015A000D4F81812104602F0A1FD0146404602F0A0
:1015B00095FCBF6CD4F89012804607F1004002F011
:1015C00095FD8246D4F87C02069900F1004002F0B5
:1015D0008DFD0146504602F081FCD4F8CC42824693
:1015E000214602F03FFF38B904F10044504621463D
:1015F00002F01AFF00B95446504BDFF878A1DFF82B
:1016000070B19F60CAF80850CBF8086009994FF094
:101610007E5002F061FC4B4D07462968099802F0A4
:1016200065FD49460646384602F060FD01463046F3
:1016300002F054FCDFF840912860D9F8001006460B
:10164000099802F053FD41460546384602F04EFD2A
:101650000146284602F042FCDFF82081C9F800006C
:10166000D8F800100546099802F040FD2146814651
:10167000384602F03BFD0146484602F02FFC324955
:101680000446C8F80000079802F0CEFE18B92F4BA8
:101690001B68312B28D92A490023CB61CB63CB654A
:1016A000264A08991361CAF81030CBF8103001F1BE
:1016B000004313605360264B4FF461721A80254B30
:1016C0006FF07B011A80244B1A80244B1A80244B24
:1016D0001A80244B032219705A709970DA701971AC
:1016E0005A719971DA71C5E0079802F0C5FE21467A
:1016F0000FFA80F8304602F0EFFB02F0BDFE00B2B8
:10170000404400F5487002F09DFC1749074602F07E
:10171000A9FE28B93846154902F086FE80BB30E0A4
:10172000114F2EE0AFF30080182D4454FB2109C067
:10173000182D4454FB21194000000010C004001073
:1017400008050010240300100000C8420403001024
:10175000B40500103C0A0010AE050010600A00102D
:1017600020080010880400100080ED4400808444AC
:10177000EC040010D80400100405001078050010D7
:101780006A4F384602F09EFE694B80B21880694B62
:1017900029461870000A5870204602F09DFB02F09E
:1017A0006BFE00B2404400F5487002F04BFC624909
:1017B000074602F057FE28B938465C4902F034FE6D
:1017C00010B902E05C4F00E0584F384602F07AFE54
:1017D0005A4B80B21880574B21469870000AD87037
:1017E00006F1004002F078FB02F046FE00B24044F1
:1017F00000F5487002F026FC4F49064602F032FE22
:1018000028B93046494902F00FFE10B902E04A4EAD
:1018100000E0464E304602F055FE494B80B218803B
:10182000484B21461880434B1871000A58712846CE
:1018300002F054FB02F020FE00B2404400F5487074
:1018400002F000FC3C49044602F00CFE28B9204698
:10185000364902F0E9FD10B902E0374C00E0334CA4
:10186000204602F02FFE384B80B21880314B987121
:10187000000AD8712F4B01221A7300225A73334B7E
:101880001A88013292B20F2A1A804CD9002119808D
:101890002F4801F093FC2F4B1A6800282ED00A2AFB
:1018A00001D90A3A1A602A4A2B4B11780020197084
:1018B0005178597091789970D178D97011791971DE
:1018C0005179597191799971D179D97111890C0A2C
:1018D00019725C72947A9C72D27A5873DA7201220D
:1018E0001A73B1F5007F1D4B8CBF002101211970C7
:1018F0001B4B18700820FEF703FD14E00132322A5A
:101900001A6010D932221A60094B4FF461721A80A2
:101910000A4B1A800A4B1A800B4B1A80094B1A800B
:101920000F4B02221A700FB0BDE8F08F0080844484
:10193000B4050010880400100080ED443C0A00103B
:10194000AE050010600A00102008001064030010AB
:10195000300400100403001028030010D404001009
:10196000A0040010AFF30080B0F5804F10B504461E
:101970001BD007D8032825D040F20113984227D066
:1019800068B110BDB0F5844F06D0B0F5FE4F22D03F
:10199000B0F5824F26D10AE0092213491DE002204A
:1019A000FEF7BAFC0322114917E0114900E0114982
:1019B0000B7B4A7B53EA022214D000230B734B7338
:1019C00006220AE00C4B00221A800C4B1A8010BD34
:1019D00003220B4901E00B490C222046BDE81040D0
:1019E00001F03CBB10BD00BFA9040010A104001011
:1019F00028030010880400101E080010340A00108C
:101A000018030010E8020010A0F581739BB2012BAF
:101A100070B510D83A4C54F823402CB90BE0CE5A8C
:101A20000135E652023301E000231D469542F6D30C
:101A3000012324F81230B0F5817F57D040F2031310
:101A400098425CD12F4B1A78597852EA012204BF90
:101A50002D4B1A6047D09A78DB7842EA03234FF681
:101A6000FF72934216D10CE08E5C10F8014FB44225
:101A700004D17CB10132102AF6D10BE001331431CC
:101A800003E0224B22491D680023AB4237D0214896
:101A90000022E9E71C4A24E08E5C14F8015FB5429D
:101AA00004D135B10132102AF6D102E001331431EC
:101AB00020E0174A142101FB0321174AD5789478B6
:101AC00044EA05241579527944EA054444EA02625D
:101AD0000A610D4A1168814203D299420FD3136003
:101AE00070BD136001220D4B1A7070BD074B084981
:101AF00018680023834202D0064C0022CCE770BD58
:101B00000445000058040010080300107C05001074
:101B100000000010750400106E0400102003001077
:101B20000123420913FA00F0014B43F822007047E9
:101B300000E100E00123420913FA00F0024B2032D9
:101B400043F82200704700BF00E100E00123420992
:101B500013FA00F0024B603243F82200704700BFD6
:101B600000E100E000284FEA011107DA0438064BD3
:101B700000F00F00C9B2C31819767047034BC9B201
:101B8000C31883F80013704700ED00E000E100E0A7
:101B9000024B01B9024B1860704700BF0022005091
:101BA0008022005070B5084A858A1268838A1268BC
:101BB0000446166D9BB200688221E268B047ADB260
:101BC0002D1AADB2A58270BDC4050010014B0022D4
:101BD0001A7070473A0A00101F4B1A881F4B92B2B6
:101BE0005A621F4A128892B2DA611E4A128892B271
:101BF0009A611D4A128892B21A621C4A1378591CC3
:101C0000C9B2012B117013D9194B1988194B89B21C
:101C100059621949098889B2D961D86B4FF6F071B8
:101C20000140D963D96B41F00A01D96300231370D5
:101C30000A4B4FF6F072D96B01200A40DA63DA6B77
:101C40000C4942F00F02DA6300224A608A60486061
:101C50005A609A6058607047B405001000800140D7
:101C60003C0A0010AE05001020080010470A0010C2
:101C7000600A001000400140B0050010022A10B5B3
:101C80000C4611D14B8A9BB263B9084B11461B68B5
:101C9000A2681B685B6C984780B26082A36920468B
:101CA000984701E00123CB84002010BDC40500103B
:101CB00010B50B4C4FF07C51A4EB600402F016FA07
:101CC000214602F013FA214602F010FA01464FF0C5
:101CD0007F5002F001F90146204602F007FA10BDDC
:101CE000DF59375F0000000070B504460E46084615
:101CF000002102F08FFB70B12046002102F0B2FB00
:101D0000374D002860D12046002102F083FB0025DA
:101D1000002859D157E03146204602F09BFA05468B
:101D200001F030FC4FF07E5102F07EFB18B32846E4
:101D30002C4902F0DBF9294602F0D8F94FF07E5128
:101D400002F0CCF80146284602F084FA002105464C
:101D5000304602F069FB002836D02046002102F010
:101D600063FB20BB284601F075FD19A3D3E90023CE
:101D700001F012FC23E02946284602F0B7F9194980
:101D800002F0ACF80146284602F064FA01F062FD68
:101D900002460B4610A1D1E9000101F0FBFB02F065
:101DA00047F800210546204602F03EFB60B1284678
:101DB00001F050FD06A3D3E9002301F0EBFB02F094
:101DC00037F8054600E0084D284670BDAFF30080A7
:101DD000182D4454FB210940182D4454FB21F93F90
:101DE000DB0FC93F295C8F3EDB0FC9BFAFF300801B
:101DF00070B5044601F0C6FB054629464FF07E50FB
:101E000002F06AF8FFF754FF15490646284602F02B
:101E10006DF90146134802F05FF8294602F066F9B1
:101E2000114902F059F8294602F060F90F4902F011
:101E300055F8314602F00EFA01F00CFD02460B4651
:101E400005A1D1E9000101F0A5FB01F0F1FF214658
:101E5000BDE8704001F090BB182D4454FB21F93FC0
:101E6000306E993C2716983D8434593EA40DC93FE5
:101E7000F8B508E028A3D3E900233046394601F03D
:101E800089FB01F0D5FF044601F0E4FC24A3D3E96B
:101E9000002306460F4601F0C1FF0028EAD109E001
:101EA0001DA3D3E900233046394601F075FB01F04C
:101EB000BFFF0446204601F0CDFC1BA3D3E900235D
:101EC00006460F4601F08CFF0028E9D1204601F0BC
:101ED00059FB17490646204602F008F91549054600
:101EE000204602F003F9314602F000F90146284687
:101EF00001F0F4FF044601F045FB0146204602F0E4
:101F0000F5F8214601F0E8FF0B4902F0EFF8214611
:101F100001F0E4FFF8BD00BF182D4454FB21194027
:101F2000182D4454FB210940182D4454FB2109C0AD
:101F300083F9A23F7B81CFBE6666663EAFF3008029
:101F4000174B82B01B6F03F00303032B4FF000030A
:101F5000019308BF41F26F720FD10AE0009302E0D3
:101F600000990131009100999142F9D9019901310B
:101F7000019101998142F1D310E040F2E7320AE089
:101F8000009302E000990131009100999142F9D942
:101F900001990131019101998142F1D302B0704759
:101FA0000080044008B50C4B4FF000011B6F4FF050
:101FB000FF3003F00303032B08BF084A084B18BF88
:101FC00042F6DF625A60072299601A60FFF7CAFD85
:101FD000044B00221A6008BD008004403F19010034
:101FE00010E000E05C0A001008B5074B1A680132E7
:101FF0001A60064B0BB1FEF729FB054B1BB1BDE880
:102000000840AFF3008008BD5C0A00104D060000D8
:1020100000000000034B1B68DB0701D5FEF716B973
:10202000FFF78EBF10E000E008B50E4B02221860EB
:1020300019619A609A680C2042F001029A600022AD
:10204000DA60DA619A6842F008029A60FFF77EFD72
:102050000C200421FFF786FD0C20BDE80840FFF7A7
:102060005FBD00BF00400640084B1B6F03F0030339
:10207000032B18BF42F6E06304D1054B984228BFFA
:102080001846044BA0FB0301FFF7CEBF00800440BD
:10209000D45204E94019010008B5054B0BB1FEF715
:1020A00021FB044B9A6842F001029A6008BD00BF10
:1020B000E50600000040064010B504461520FFF775
:1020C00039FD334A1121D2F8803043F48053C2F8ED
:1020D0008030304B9964D9640123C2F898302E4B7C
:1020E0008021D96019462CB903230B620B6AD807EB
:1020F000FCD42CE0126F02F00302032A18BF274B16
:1021000015D1B4F5614F05D0B4F5E13F18BF244BAC
:102110000DD105E000225A6047221A60A12204E096
:1021200000225A6017221A60A7229A620FE0B3FBBE
:10213000F4F44FF6FF739C4288BF1C4602D8002C73
:1021400008BF0124144B220AE4B25A601C60124BEF
:102150000322DA6005225A6006229A6001229A6000
:102160005A69DA611A4601E01168D1615969C907F3
:10217000FAD4094B80221A631520FFF7E7FC1520DB
:102180000221FFF7EFFC1520BDE81040FFF7C8BCA7
:10219000008004400040044000800040B0710B000B
:1021A00020AA440008B52A4900231A465A5401338C
:1021B000442BFBD1274B00221A7008B901221A7058
:1021C000254A00231370254A01211370244A136005
:1021D000244A1360244A1360244A1360244AD2F824
:1021E000803043F02003C2F88030224B19615961DE
:1021F00053686C2143F0020353604FF080439961B0
:10220000126F02F00302032A0CBF48F6A04241F20B
:10221000707292FBF0F0586118610E4B1B78012B25
:1022200007D14FF08043E822DA6000221A625A6236
:102230009A620F20FFF78AFC0F200321FFF792FC20
:102240000F20FFF76DFC48224FF080431A6008BD55
:10225000D8070010BC050010AC0500101C080010C9
:10226000300A0010400A0010C0050010480A001093
:10227000008004400040044070B5274D00242C70BD
:10228000264D2C70264D2C60264D2C60264C23604C
:10229000264C216003B101310024254D02E0065D8A
:1022A000665501348C42FAD120204FF080410860FD
:1022B000194840F201110478012C14D1174908780B
:1022C0000528FCD14FF0804110200860082088616B
:1022D0004FF480700C6814F0100F01D00138F9D160
:1022E0000021134813E00139E5D14FF0804110205F
:1022F0000860082088614FF480700C6814F0100F9B
:10230000EED00138F9D1EBE70C5C5454013199421D
:10231000FAD3034B186870BDAC050010D00500104F
:10232000C0050010480A0010300A0010400A0010D2
:10233000D807001010B556494FF080435A68097805
:10234000002940F0A480D2B2302A00F092800ED84A
:10235000182A35D005D8082A17D0102A40F09380C3
:1023600021E0202A33D0282A40F08D8035E0482A09
:102370005AD005D8382A4ED0402A40F084804CE00C
:10238000502A55D0582A7ED16CE04248424C016018
:102390000168645C01319C600160202199613F49C2
:1023A000012008706DE03E4A3B481160394A1168CF
:1023B000405C01319860116020229A61022134E072
:1023C000364A1178012908BF324947D10CE0334918
:1023D00005220A7033490A7052E02E49324A0868D1
:1023E000126890422D4A07D208682B4C245C0130B9
:1023F0009C600860042305E02C49096821B1202174
:1024000019600323137029E004211170254A052166
:10241000117010221DE0FF2107E0244A1268012AF2
:102420004FF0040215D118E005211C4A117027E075
:102430001B4A194811689C684454013111601168A5
:102440001A4A01311268914214494FF0040202D233
:102450000A701A6002E0052008709A6108224FF0A5
:1024600080430EE00E4A0C4811689C6844540131C8
:1024700011600A4905220A700A490A7010221A607E
:1024800008229A6110BD08224FF080439A6110BD66
:10249000BC050010480A0010D8070010AC05001059
:1024A000C0050010D0050010400A0010300A0010CE
:1024B000104B002808BF01201B6F03F00303032B00
:1024C0004FEA50039BB207BF03F58C3303F5A073AB
:1024D00003F53A53603393FBF0F0FE2803D801284C
:1024E00098BF022000E0FE20034B00F0FE001861C0
:1024F000704700BF008004400000044038B5224B04
:1025000022495A68022422F001025A605A681025B2
:1025100042F001025A60D3F8802042F40062C3F80E
:10252000802001220A624A628C628A600F24A1F52F
:1025300080410C60C3F89420013DEDB2144C8B68CF
:10254000002DF9D138B1FFF7B3FF6560636843F040
:102550000203636038BD0D4B01229A60062363615C
:102560000423606063606368142043F002036360C7
:10257000FFF7ECFA14200221FFF7F4FA1420BDE86B
:102580003840FFF7CDBA00BF00800440004004404F
:1025900000000440034BDA689207FCD5014B9860B9
:1025A000704700BF0000044038B5074C074D04E0F9
:1025B0001DB1A06880B2AFF30080E3685807F7D47C
:1025C000014B03221A6238BD008005400000000064
:1025D00008B50F4BD3F8802042F08002C3F880206A
:1025E000A3F570330022D8605A619A62DA631A67E1
:1025F0005A6701225A601020FFF7A8FA1020042120
:10260000FFF7B0FA1020BDE80840FFF789BA00BF15
:102610000080044010B50F4B0024D3F8802042F412
:102620008072C3F88020A3F560330122D8605C611A
:1026300011209C62DC631C675C675A60FFF786FAB6
:1026400011202146FFF78EFA1120BDE81040FFF758
:1026500067BA00BF0080044010B50F4B0024D3F8C8
:10266000802042F40072C3F88020A3F55033012289
:10267000D8605C6112209C62DC631C675C675A60F6
:10268000FFF764FA12202146FFF76CFA1220BDE82A
:102690001040FFF745BA00BF0080044010B50F4B53
:1026A0000024D3F8802042F48062C3F88020A3F590
:1026B00040330122D8605C6113209C62DC631C679C
:1026C0005C675A60FFF742FA13202146FFF74AFA87
:1026D0001320BDE81040FFF723BA00BF008004407C
:1026E0004B06194B48BF41F0010198615A6901F04E
:1026F000070022F007025A61DA6B22F03002DA6337
:102700005A6F22F001025A675A69024311F03000F1
:102710005A6111D0DA6B0243DA630C4A022010626C
:10272000C80644BFDA6B42F0010204D48A0603D51E
:10273000DA6B22F00102DA630B0741BF024B5A6FDA
:1027400042F001025A67704700C000400040044058
:102750004B06194B48BF41F0010198615A6901F0DD
:10276000070022F007025A61DA6B22F03002DA63C6
:102770005A6F22F001025A675A69024311F0300081
:102780005A6110D0DA6B0243DA630C4A01205065BB
:10279000CA0644BFDA6B024304D4880603D5DA6B59
:1027A00022F00102DA63090741BF034B5A6F42F07E
:1027B00001025A67704700BF00000140004004401A
:1027C0004B06194B48BF41F0010198615A6901F06D
:1027D000070022F007025A61DA6B22F03002DA6356
:1027E0005A6F22F001025A675A69024311F0300011
:1027F0005A6111D0DA6B0243DA630C4A022090640A
:10280000CA0644BFDA6B42F0010204D4880603D53D
:10281000DA6B22F00102DA63090741BF024B5A6FFB
:1028200042F001025A6770470040014000400440F6
:102830004B061A4B48BF41F00101D8615A6901F0BB
:10284000070022F038025A61DA6B22F0C002DA6324
:102850005A6F22F002025A675A6942EAC00211F026
:1028600030005A6111D0DA6B42EA8002DA630C4A16
:102870000220D064CA0644BFDA6B024304D488063F
:1028800003D5DA6B22F00202DA630A0741BF034B79
:102890005A6F42F002025A67704700BF0040014081
:1028A000004004404B061A4B48BF41F001015862FA
:1028B0005A6901F0070022F460625A61DA6B22F46F
:1028C0004062DA635A6F22F008025A675A6942EA94
:1028D000402211F030005A6112D0DA6B42EA8012C5
:1028E000DA630C4A0320D062CA0644BFDA6B42F0B6
:1028F000080204D4880603D5DA6B22F00802DA63F2
:102900000A0741BF024B5A6F42F008025A677047EC
:1029100000400140004004404B06194B48BF41F0C5
:10292000010198615A6901F0070022F007025A611B
:10293000DA6B22F03002DA635A6F22F001025A6732
:102940005A69024311F030005A6111D0DA6B024328
:10295000DA630C4A03205063CA0644BFDA6B42F0C4
:10296000010204D4880603D5DA6B22F00102DA638F
:10297000090741BF024B5A6F42F001025A67704784
:1029800000800140004004404B061A4B48BF41F014
:102990000101D8615A6901F0070022F038025A613A
:1029A000DA6B22F0C002DA635A6F22F002025A6731
:1029B0005A6942EAC00211F030005A6112D0DA6B53
:1029C00042EA8002DA630C4A03209063CA0644BFDD
:1029D000DA6B42F0020204D4880603D5DA6B22F0E7
:1029E0000202DA630A0741BF024B5A6F42F0020249
:1029F0005A67704700800140004004404B061A4B64
:102A000048BF41F0010118625A6901F0070022F441
:102A1000E0725A61DA6B22F44072DA635A6F22F084
:102A200004025A675A6942EA801211F030005A6172
:102A300012D0DA6B42EA0012DA630C4A0320D06348
:102A4000CA0644BFDA6B42F0040204D4880603D5F8
:102A5000DA6B22F00402DA630A0741BF024B5A6FB5
:102A600042F004025A677047008001400040044071
:102A70004B061A4B48BF41F0010158625A6901F0F8
:102A8000070022F460625A61DA6B22F44062DA6372
:102A90005A6F22F008025A675A6942EA402211F03E
:102AA00030005A6112D0DA6B42EA8012DA630C4AC3
:102AB00002201064CA0644BFDA6B42F0080204D454
:102AC000880603D5DA6B22F00802DA630A0741BFF1
:102AD000024B5A6F42F008025A677047008001406B
:102AE000004004401D4B10B51D4C23B1206800F080
:102AF0001F00AFF300802368DC0703D5194B0BB12F
:102B0000FDF7AAFE164B1A681C4612F0020F03D0FE
:102B1000154B0BB1AFF300802368580703D5134B57
:102B20000BB1AFF300800E4B1A681C4612F0080F71
:102B300003D00F4B0BB1AFF300802368D90606D545
:102B40000C4B23B1064BD86A80B2AFF30080044B24
:102B50001F221A6000BF00BF10BD00BF00000000B0
:102B600000C0004059080000000000000000000004
:102B700000000000000000001D4B10B51D4C23B1EB
:102B8000206800F01F00AFF300802368D90703D549
:102B9000194B0BB1FFF71AF8164B1A681C4612F0C6
:102BA000020F03D0154B0BB1AFF3008023685A0717
:102BB00003D5134B0BB1AFF300800E4B1A681C46C4
:102BC00012F0080F03D00F4B0BB1AFF30080236856
:102BD000DB0606D50C4B23B1064BD86A80B2AFF3A7
:102BE0000080044B1F221A6000BF00BF10BD00BF51
:102BF0000000000000000140CD1B000000000000AC
:102C00000000000000000000000000001C4B10B598
:102C10001C4C23B1206800F01F00AFF30080236834
:102C2000DB0703D5184B0BB1FEF7D6FF154B1A681F
:102C30001C4612F0020F03D0144B0BB1AFF300800F
:102C400023685C0703D5124B0BB1AFF300800D4B2B
:102C50001A681C4612F0080F03D00E4B0BB1AFF3ED
:102C600000802368D80605D50B4B1BB1054BD86AED
:102C7000AFF30080034B1F221A6000BF00BF10BDDE
:102C80000000000000400140D91B000000000000CF
:102C90000000000000000000000000001C4B10B508
:102CA0001C4C23B1206800F01F00AFF300802368A4
:102CB000D80703D5184B0BB1AFF30080154B1A683A
:102CC0001C4612F0020F03D0144B0BB1AFF300807F
:102CD0002368590703D5124B0BB1AFF300800D4B9E
:102CE0001A681C4612F0080F03D00E4B0BB1AFF35D
:102CF00000802368DA0605D50B4B1BB1054BD86A5B
:102D0000AFF30080034B1F221A6000BF00BF10BD4D
:102D100000000000008001400000000000000000F2
:102D200000000000000000000000000070B5438AB1
:102D3000027C9BB29B1A0E2B9FBF438A027C9BB2E4
:102D4000C2EB0303124A0146856888BF0F2314466D
:102D500009E050698006FCD5087C013B2E5C0130FF
:102D6000C0B226600874002BF3D1087C4A8A92B264
:102D700090420BD10B744B82CA8C92B232B108686C
:102D80000222CB84BDE87040FEF778BF70BD00BF63
:102D90000080004010B50D4A04465369C168DB0746
:102DA0000AD5838A9BB23F2B06D8838A12689BB2CE
:102DB000CA5401339BB28382A38A9BB2402B02D1B7
:102DC0002046FEF7EFFEE369236210BD008000405D
:102DD00008B5044B044A1B6810681B68DB689847F9
:102DE00008BD00BFC4050010D405001008B5FFF7EA
:102DF00085FB024B00221A7008BD00BF380A001084
:102E000010B54A4B1A78013A052A04D8DFE802F0D7
:102E10000A121C405F714EF64142904240F084809D
:102E2000012264E041F2BE32904201D102225EE012
:102E300000225CE03E4B18803E4B18801A883E4BC7
:102E400092B21A80032251E03C4B3A4A1880118812
:102E5000364C401880B23849108008881288121801
:102E600092B20A801A8892B2FF2A0BD81B889BB2B2
:102E70000BB1042307E0324B23B12D4B188880B2ED
:102E8000FEF772FD002323702E4B00221A8010BD26
:102E90002C4B2D491A8892B221F81200013292B2BD
:102EA0001A801A88254B92B21B889BB29A4202D391
:102EB0001E4B05221A701F4B1A88801880B21E4ABA
:102EC000188011881B885B189BB2138010BD194AAB
:102ED000128892B2904201D1062208E01B4B23B126
:102EE000134B188880B2AFF3008000220F4B1A708A
:102EF00010BD114B1B889BB298420BD1144B83B170
:102F00000B4B114918880D4B80B21A8892B2FEF70C
:102F10007BFD06E00D4B23B1054B188880B2AFF363
:102F20000080024B00221A7010BD00BF380A00104A
:102F3000B2050010360A0010C8050010BA050010CE
:102F400069190000B60500102208001000000000FA
:102F5000091A0000094B0A4A1888118880B289B200
:102F6000884210881B8880B203D20138C01A80B210
:102F70007047FF30C01A80B2704700BF1E080010B3
:102F8000340A00100A4B0B4A1088198880B289B2A3
:102F9000884210883BBF1B8880B21B8800F5807078
:102FA00035BFC3EB0000C3EB000080B280B27047B6
:102FB000340A00101E080010074B08491A8892B204
:102FC00031F81200013292B21A801A8892B2FF2AA6
:102FD00001D900221A807047340A0010D805001069
:102FE00038B50446084D03E0FFF7E6FFFFF7D2FAD5
:102FF000FFF7C8FF10B1EB689A07F5D42046BDE88B
:103000003840FFF7FDBE00BF0000044038B5074C54
:10301000074D04E01DB1A06880B2FFF7E1FFE3684F
:103020005907F7D4014B03221A6238BD000004404F
:10303000E12F0000074B08491A8892B221F81200CC
:10304000013292B21A801A8892B2FF2A01D9002264
:103050001A8070471E080010D80500102DE9F843AB
:10306000174604460D46FFF775FFBB1D98422ADD43
:103070004EF64140FFF7DEFF3E1941F2BE30FFF74A
:10308000D9FFB6B22046FFF7D5FF34193846FFF70F
:10309000D1FFA4B24FF000080AE035F8029B08F116
:1030A00001084846FFF7C6FF4E44B6B23419A4B231
:1030B000B845F2D33046FFF7BDFF2046FFF7BAFF11
:1030C0000120BDE8F8830020BDE8F88308B54FF47F
:1030D000C020FDF7C9F80E4B00211A684FF4C0203C
:1030E00042F4C0221A60FEF753FD4FF4FA70FEF767
:1030F00091FF4FF4E130FEF7DFFF4720FFF78AFA38
:1031000041F288304021BDE80840FFF721BB00BFF5
:1031100000200050234B0246187830B9032A40D1D2
:103120001A780132D2B21A7070471978012905D184
:103130001A7800200132D2B21A7070471B781A49EF
:1031400013F0010F194B1BBF09781B781A7003F09D
:1031500003031BBF42EA0322154BC2F3820223F88A
:103160001120104B08BF0A701A784FF0000001328E
:10317000D2B21A701A780F2A13D90D4A18700D4B53
:103180000120118818700C4B198051885980918842
:103190009980D188D9801189198151899289598161
:1031A0009A8170473A0A0010B8050010460A0010CC
:1031B0004C0A0010390A0010220A00100B4A13783A
:1031C00093B10B4B1988018059884180998881807F
:1031D000D988C18019890181598941819B8983815D
:1031E000002313700120704718467047390A0010F9
:1031F000220A001008B5FFF78DFF034B00225A602A
:103200009A6001225A6008BD0000014070B53B4B36
:103210009A68C2F34202013A052A6DD8DFE802F04B
:103220006143036C6C59364A1278D2B15B69DBB2E8
:1032300013F0020218BF4022590748BF42F0200293
:10324000180748BF42F01002D9062E4B2E491B68C2
:1032500048BF42F004025B6948689B682021984798
:1032600070BD5C69E4B2E20712D50CE06C692868B5
:10327000E4B26307C0B203D516B1AFF3008004E037
:10328000FFF7B8FF01E01D4D204E6B69D907EDD463
:1032900014F09C0F18BF194B01D170BD1A685A6900
:1032A000D207FBD470BD164B1B7863B114E0636981
:1032B00020685B07C0B203D515B1AFF3008004E00E
:1032C000FFF798FF01E00D4C104D6369D807EED46D
:1032D00070BD0B4B1B787BB10B48BDE87040FFF70E
:1032E00059BD074B1B783BB10748438A9BB21BB1C2
:1032F000BDE87040FFF71ABD70BD00BF0080004000
:10330000450A0010C40500108405001000000000EC
:1033100010B504464720FFF79FF94720FFF7BEF995
:10332000402140F6C410FFF74BFA1E4B4FF4617278
:103330001A801D4B1A801D4B1A801D4B1A801D4B85
:103340001A801D4B1A80E30704D54FF461701021D9
:10335000FFF78EFBA00704D54FF461701021FFF733
:1033600013FB610704D54FF461701021FFF7D4FA05
:10337000220704D54FF461701021FFF73FFBE306ED
:1033800004D54FF461701021FFF78CFAA00604D524
:103390004FF461701021FFF74BFA084B00221A70AE
:1033A00010BD00BFB40500103C0A0010AE050010AF
:1033B00020080010600A0010B0050010470A001035
:1033C00073B54FF4C870FEF7EDFE0022572330248A
:1033D000A0258DF802300321134668468DF8004081
:1033E0008DF80150FEF748FF00228823A3268DF8B0
:1033F00002300321134668468DF800408DF80160C5
:10340000FEF73AFF0022FF23D0248DF8023003217B
:10341000134668468DF800408DF80150FEF72CFFEA
:1034200000220321134668468DF800408DF80160A4
:103430008DF80250FEF720FFA42300228DF8013002
:1034400002238DF802300321134668468DF80040B0
:10345000FEF712FF3C238DF80030782300228DF810
:10346000023020238DF803306846052113468DF87D
:1034700001208DF80420FEF7FFFE7CBD13B530233C
:103480008DF80030A8238DF80130312304468DF8E3
:103490000230684602216A460623FEF7EDFEA8B117
:1034A0009DF80030012023709DF8013063709DF875
:1034B0000430A3709DF80530E3709DF8023023714D
:1034C0009DF803306371A3885B42A3801CBD13B5D4
:1034D000D0238DF80030A6238DF80130D123044687
:1034E0008DF80230684602216A460823FEF7C4FEC2
:1034F000C0B19DF80230012023709DF80330637045
:103500009DF80630A3709DF80730E3709DF80430F5
:1035100023719DF805306371A3885B42A3809DF8F9
:103520000030E3801CBD13B53C238DF8003003232D
:103530008DF801303D2304468DF8023068460221A3
:103540006A460623FEF798FEA8B19DF801300120D7
:1035500023709DF8003063709DF80530A3709DF8CE
:103560000430E3709DF8033023719DF802306371DD
:10357000A3885B42A3801CBD01F0004120F0004005
:103580000843704720F00040704700BF81F00041C1
:1035900002E000BF83F0004330B54FEA41044FEA38
:1035A000430594EA050F08BF90EA020F1FBF54EAD3
:1035B000000C55EA020C7FEA645C7FEA655C00F06F
:1035C000E2804FEA5454D4EB5555B8BF6D420CDD40
:1035D0002C4480EA020281EA030382EA000083EAC3
:1035E000010180EA020281EA0303362D88BF30BD63
:1035F00011F0004F4FEA01314FF4801C4CEA1131B9
:1036000002D0404261EB410113F0004F4FEA033317
:103610004CEA133302D0524263EB430394EA050FA2
:1036200000F0A780A4F10104D5F1200E0DDB02FA11
:103630000EFC22FA05F2801841F1000103FA0EF2A5
:10364000801843FA05F359410EE0A5F120050EF16B
:10365000200E012A03FA0EFC28BF4CF0020C43FA9C
:1036600005F3C01851EBE37101F0004507D54FF0A9
:10367000000EDCF1000C7EEB00006EEB0101B1F5F9
:10368000801F1BD3B1F5001F0CD349085FEA30003F
:103690004FEA3C0C04F101044FEA445212F5800F4A
:1036A00080F09A80BCF1004F08BF5FEA500C50F1E7
:1036B000000041EB045141EA050130BD5FEA4C0CCA
:1036C000404141EB010111F4801FA4F10104E9D153
:1036D00091F0000F04BF01460020B1FA81F308BF4A
:1036E0002033A3F10B03B3F120020CDA0C3208DD16
:1036F00002F1140CC2F10C0201FA0CF021FA02F1F1
:103700000CE002F11402D8BFC2F1200C01FA02F160
:1037100020FA0CFCDCBF41EA0C019040E41AA2BF85
:1037200001EB0451294330BD6FEA04041F3C1CDA4D
:103730000C340EDC04F11404C4F1200220FA04F06D
:1037400001FA02F340EA030021FA04F345EA030117
:1037500030BDC4F10C04C4F1200220FA02F001FAD9
:1037600004F340EA0300294630BD21FA04F029465B
:1037700030BD94F0000F83F4801306BF81F48011F4
:103780000134013D4EE77FEA645C18BF7FEA655C67
:1037900029D094EA050F08BF90EA020F05D054EA39
:1037A000000C04BF1946104630BD91EA030F1EBF3E
:1037B0000021002030BD5FEA545C05D14000494142
:1037C00028BF41F0004130BD14F580043CBF01F535
:1037D000801130BD01F0004545F0FE4141F470011B
:1037E0004FF0000030BD7FEA645C1ABF19461046F6
:1037F0007FEA655C1CBF0B46024650EA013406BFF7
:1038000052EA033591EA030F41F4002130BD00BFB5
:1038100090F0000F04BF0021704730B54FF4806472
:1038200004F132044FF000054FF0000150E700BFF3
:1038300090F0000F04BF0021704730B54FF4806452
:1038400004F1320410F0004548BF40424FF000013F
:103850003EE700BF42004FEAE2014FEA31014FEA82
:1038600002701FBF12F07F4393F07F4F81F06051D1
:10387000704792F0000F14BF93F07F4F704730B540
:103880004FF4607401F0004521F0004120E700BFD3
:1038900050EA010208BF704730B54FF000050AE05A
:1038A00050EA010208BF704730B511F0004502D55B
:1038B000404261EB41014FF4806404F132045FEA5D
:1038C000915C3FF4DCAE4FF003025FEADC0C18BF02
:1038D00003325FEADC0C18BF033202EBDC02C2F1F8
:1038E000200300FA03FC20FA02F001FA03FE40EA8A
:1038F0000E0021FA02F11444C1E600BF70B54FF08A
:10390000FF0C4CF4E06C1CEA11541DBF1CEA13556B
:1039100094EA0C0F95EA0C0F00F0DEF82C4481EAD3
:10392000030621EA4C5123EA4C5350EA013518BFF3
:1039300052EA033541F4801143F4801338D0A0FBE0
:1039400002CE4FF00005E1FB02E506F00042E0FB8D
:1039500003E54FF00006E1FB03569CF0000F18BF93
:103960004EF0010EA4F1FF04B6F5007F64F540743B
:1039700004D25FEA4E0E6D4146EB060642EAC621CE
:1039800041EA55514FEAC52040EA5E504FEACE2E3B
:10399000B4F1FD0C88BFBCF5E06F1ED8BEF1004F3E
:1039A00008BF5FEA500E50F1000041EB045170BDBA
:1039B00006F0004646EA010140EA020081EA0301FE
:1039C000B4EB5C04C2BFD4EB0C0541EA045170BDFA
:1039D00041F480114FF0000E013C00F3AB8014F174
:1039E000360FDEBF002001F0004170BDC4F10004BD
:1039F000203C35DA0C341BDC04F11404C4F120053E
:103A000000FA05F320FA04F001FA05F240EA020098
:103A100001F0004221F0004110EBD37021FA04F6CE
:103A200042EB06015EEA430E08BF20EAD37070BD88
:103A3000C4F10C04C4F1200500FA04F320FA05F0E7
:103A400001FA04F240EA020001F0004110EBD370E9
:103A500041F100015EEA430E08BF20EAD37070BD59
:103A6000C4F1200500FA05F24EEA020E20FA04F332
:103A700001FA05F243EA020321FA04F001F00041E1
:103A800021FA04F220EA020000EBD3705EEA430E52
:103A900008BF20EAD37070BD94F0000F0FD101F081
:103AA0000046400041EB010111F4801F08BF013CBA
:103AB000F7D041EA060195F0000F18BF704703F0F8
:103AC0000046520043EB030313F4801F08BF013D7F
:103AD000F7D043EA0603704794EA0C0F0CEA13553B
:103AE00018BF95EA0C0F0CD050EA410618BF52EAF5
:103AF0004306D1D181EA030101F000414FF00000FB
:103B000070BD50EA410606BF1046194652EA430608
:103B100019D094EA0C0F02D150EA013613D195EA7C
:103B20000C0F05D152EA03361CBF104619460AD1C4
:103B300081EA030101F0004141F0FE4141F47001CE
:103B40004FF0000070BD41F0FE4141F4780170BDBE
:103B500070B54FF0FF0C4CF4E06C1CEA11541DBF23
:103B60001CEA135594EA0C0F95EA0C0F00F0A7F825
:103B7000A4EB050481EA030E52EA03354FEA013152
:103B800000F088804FEA03334FF0805545EA131365
:103B900043EA12634FEA022245EA111545EA10652D
:103BA0004FEA00260EF000419D4208BF964244F1C4
:103BB000FD0404F5407402D25B084FEA3202B61AE3
:103BC00065EB03055B084FEA32024FF480104FF4B7
:103BD000002CB6EB020E75EB030E22BFB61A75462B
:103BE00040EA0C005B084FEA3202B6EB020E75EBBE
:103BF000030E22BFB61A754640EA5C005B084FEA26
:103C00003202B6EB020E75EB030E22BFB61A7546F2
:103C100040EA9C005B084FEA3202B6EB020E75EBFD
:103C2000030E22BFB61A754640EADC0055EA060EBE
:103C300018D04FEA051545EA16754FEA06164FEA01
:103C4000C30343EA52734FEAC2025FEA1C1CC0D1AD
:103C500011F4801F0BD141EA00014FF000004FF03A
:103C6000004CB6E711F4801F04BF01430020B4F1FB
:103C7000FD0C88BFBCF5E06F3FF6AFAEB5EB030CB3
:103C800004BFB6EB020C5FEA500C50F1000041EBB0
:103C9000045170BD0EF0004E4EEA113114EB5C047D
:103CA000C2BFD4EB0C0541EA045170BD41F4801150
:103CB0004FF0000E013C90E645EA060E8DE60CEA58
:103CC000135594EA0C0F08BF95EA0C0F3FF43BAF75
:103CD00094EA0C0F0AD150EA01347FF434AF95EA2C
:103CE0000C0F7FF425AF104619462CE795EA0C0F10
:103CF00006D152EA03353FF4FDAE1046194622E7DD
:103D000050EA410618BF52EA43067FF4C5AE50EAB6
:103D100041047FF40DAF52EA43057FF4EBAE12E7A6
:103D20004FF0FF3C06E000BF4FF0010C02E000BF87
:103D30004FF0010C4DF804CD4FEA410C7FEA6C5C6A
:103D40004FEA430C18BF7FEA6C5C1BD001B050EA0D
:103D5000410C0CBF52EA430C91EA030F02BF90EAF8
:103D6000020F0020704710F1000F91EA030F58BFB7
:103D7000994208BF90422CBFD8176FEAE37040F019
:103D8000010070474FEA410C7FEA6C5C02D150EAB7
:103D9000013C07D14FEA430C7FEA6C5CD6D152EA72
:103DA000033CD3D05DF8040B704700BF8446104637
:103DB00062468C461946634600E000BF01B5FFF736
:103DC000B7FF002848BF10F1000F01BD4DF808ED06
:103DD000FFF7F4FF0CBF012000205DF808FB00BFD7
:103DE0004DF808EDFFF7EAFF34BF012000205DF831
:103DF00008FB00BF4DF808EDFFF7E0FF94BF01207E
:103E000000205DF808FB00BF4DF808EDFFF7CEFF7E
:103E100094BF012000205DF808FB00BF4DF808EDBD
:103E2000FFF7C4FF34BF012000205DF808FB00BF8E
:103E30004FEA4102B2F1E04324BFB3F5001CDCF1CC
:103E4000FE5C0DD901F0004C4FEAC0024CEA507004
:103E5000B2F1004F40EB830008BF20F00100704733
:103E600011F0804F21D113F13872BCBF01F0004036
:103E7000704741F480114FEA5252C2F11802C2F168
:103E8000200C10FA0CF320FA02F018BF40F00100E9
:103E90004FEAC1234FEAD32303FA0CFC40EA0C009B
:103EA00023FA02F34FEA4303CCE77FEA625307D1D8
:103EB00050EA01331EBF4FF0FE4040F4400070470F
:103EC00001F0004040F0FE4040F40000704700BFA9
:103ED00080F0004002E000BF81F0004142001FBFBF
:103EE0005FEA410392EA030F7FEA226C7FEA236CC8
:103EF0006AD04FEA1262D2EB1363C1BFD2184140BD
:103F000048404140B8BF5B42192B88BF704710F052
:103F1000004F40F4000020F07F4018BF404211F0F5
:103F2000004F41F4000121F07F4118BF494292EA5D
:103F3000030F3FD0A2F1010241FA03FC10EB0C0089
:103F4000C3F1200301FA03F100F0004302D5494216
:103F500060EB4000B0F5000F13D3B0F1807F06D3C3
:103F600040084FEA310102F10102FE2A51D2B1F1BB
:103F7000004F40EBC25008BF20F0010040EA0300B0
:103F80007047490040EB000010F4000FA2F101025D
:103F9000EDD1B0FA80FCACF1080CB2EB0C0200FAE7
:103FA0000CF0AABF00EBC25052421843BCBFD04035
:103FB0001843704792F0000F81F4000106BF80F4AF
:103FC00000000132013BB5E74FEA41037FEA226C72
:103FD00018BF7FEA236C21D092EA030F04D092F03D
:103FE000000F08BF0846704790EA010F1CBF002071
:103FF000704712F07F4F04D1400028BF40F00040CE
:10400000704712F100723CBF00F50000704700F0ED
:10401000004343F0FE4040F4000070477FEA226214
:1040200016BF08467FEA23630146420206BF5FEAE5
:10403000412390EA010F40F4800070474FF00003E5
:1040400004E000BF10F0004348BF40425FEA000CAC
:1040500008BF704743F0964301464FF000001CE054
:1040600050EA010208BF70474FF000030AE000BFAA
:1040700050EA010208BF704711F0004302D54042E8
:1040800061EB41015FEA010C02BF8446014600205A
:1040900043F0B64308BFA3F18053A3F50003BCFA75
:1040A0008CF2083AA3EBC25310DB01FA02FC634422
:1040B00000FA02FCC2F12002BCF1004F20FA02F229
:1040C00043EB020008BF20F00100704702F120021C
:1040D00001FA02FCC2F1200250EA4C0021FA02F27D
:1040E00043EB020008BF20EADC7070474FF0FF0C82
:1040F0001CEAD0521EBF1CEAD15392EA0C0F93EA7D
:104100000C0F6FD01A4480EA010C400218BF5FEA1E
:1041100041211ED04FF0006343EA501043EA511191
:10412000A0FB01310CF00040B1F5000F3EBF49008B
:1041300041EAD3715B0040EA010062F17F02FD2A8F
:104140001DD8B3F1004F40EBC25008BF20F0010072
:10415000704790F0000F0CF0004C08BF49024CEA89
:10416000502040EA51207F3AC2BFD2F1FF0340EA1B
:10417000C250704740F400004FF00003013A5DDC8C
:1041800012F1190FDCBF00F000407047C2F10002CD
:10419000410021FA02F1C2F1200200FA02FC5FEABA
:1041A000310040F1000053EA4C0308BF20EADC7004
:1041B000704792F0000F00F0004C02BF400010F476
:1041C000000F013AF9D040EA0C0093F0000F01F023
:1041D000004C02BF490011F4000F013BF9D041EA45
:1041E0000C018FE70CEAD15392EA0C0F18BF93EA47
:1041F0000C0F0AD030F0004C18BF31F0004CD8D171
:1042000080EA010000F00040704790F0000F17BFF7
:1042100090F0004F084691F0000F91F0004F14D03D
:1042200092EA0C0F01D142020FD193EA0C0F03D195
:104230004B0218BF084608D180EA010000F0004098
:1042400040F0FE4040F40000704740F0FE4040F473
:10425000400070474FF0FF0C1CEAD0521EBF1CEA12
:10426000D15392EA0C0F93EA0C0F69D0A2EB030230
:1042700080EA010C49024FEA402037D04FF08053CA
:1042800043EA111143EA10130CF000408B4238BF8F
:104290005B0042F17D024FF4000C8B4224BF5B1A9D
:1042A00040EA0C00B3EB510F24BFA3EB510340EAEB
:1042B0005C00B3EB910F24BFA3EB910340EA9C0099
:1042C000B3EBD10F24BFA3EBD10340EADC001B0109
:1042D00018BF5FEA1C1CE0D1FD2A3FF650AF8B42AD
:1042E00040EBC25008BF20F0010070470CF0004CBA
:1042F0004CEA50207F32C2BFD2F1FF0340EAC250E5
:10430000704740F400004FF00003013A37E792F0A5
:10431000000F00F0004C02BF400010F4000F013A03
:10432000F9D040EA0C0093F0000F01F0004C02BFFE
:10433000490011F4000F013BF9D041EA0C0195E767
:104340000CEAD15392EA0C0F08D142027FF47DAF00
:1043500093EA0C0F7FF470AF084676E793EA0C0FF0
:1043600004D14B023FF44CAF08466EE730F0004CEE
:1043700018BF31F0004CCAD130F000427FF45CAF7E
:1043800031F000437FF43CAF5FE700BF4FF0FF3CEC
:1043900006E000BF4FF0010C02E000BF4FF0010C3F
:1043A0004DF804CD4FEA40024FEA41037FEA226C08
:1043B00018BF7FEA236C11D001B052EA530C18BF2A
:1043C00090EA010F58BFB2EB030088BFC81738BF8F
:1043D0006FEAE17018BF40F0010070477FEA226C7D
:1043E00002D15FEA402C05D17FEA236CE4D15FEA79
:1043F000412CE1D05DF8040B704700BF84460846AD
:104400006146FFE70FB5FFF7C9FF002848BF10F16D
:10441000000F0FBD4DF808EDFFF7F4FF0CBF0120B2
:1044200000205DF808FB00BF4DF808EDFFF7EAFF3C
:1044300034BF012000205DF808FB00BF4DF808EDF7
:10444000FFF7E0FF94BF012000205DF808FB00BFEC
:104450004DF808EDFFF7D2FF94BF012000205DF872
:1044600008FB00BF4DF808EDFFF7C8FF34BF01207F
:1044700000205DF808FB00BF4FEA4002B2F1FE4F9A
:104480000FD34FF09E03B3EB12620DD94FEA002316
:1044900043F0004310F0004F23FA02F018BF4042EF
:1044A00070474FF00000704712F1610F01D14202D6
:1044B00005D110F0004008BF6FF0004070474FF08A
:1044C0000000704742000ED2B2F1FE4F0BD34FF006
:1044D0009E03B3EB126209D44FEA002343F000437A
:1044E00023FA02F070474FF00000704712F1610F9D
:1044F00001D1420202D14FF0FF3070474FF000006F
:0C450000704700BF6E040010580400104B
:10450C0044524946545F414B7000000000000000CB
:10451C000AD7233D44524946545F414B6900000081
:10452C00000000000000000044524946545F414422
:10453C0065000000000000000000000044524946E5
:10454C00545F4D4B70000000000000000AD7233D63
:10455C0044524946545F4D4B690000000000000076
:10456C000000000044524946545F4D446500000071
:10457C0000000000CDCC4C3F43555256455F58319E
:10458C0000000000000000000000C84143555256D6
:10459C00455F59310000000000000000000020427F
:1045AC0043555256455F5832000000000000000091
:1045BC000000484243555256455F593200000000F6
:1045CC000000000000008C4243555256455F596E66
:1045DC00000000000000000000008C425941575FB1
:1045EC0053454E000000000000000000ACC5A7378A
:1045FC0050495443485F53454E00000000000000F2
:10460C00A69B443B524F4C4C5F53454E0000000060
:10461C0000000000A69B443B5448525553545F5332
:10462C00454E0000000000000000803E5941575FDD
:10463C00445A4E00000000000000000017B7D139AA
:10464C0050495443485F445A4E000000000000009B
:10465C000000003F524F4C4C5F445A4E000000008B
:10466C00000000000000003F5448525553545F4472
:10467C005A4E000000000000CDCC4C3D5049544334
:10468C00485F4B7000000000000000000000484331
:10469C0050495443485F4B69000000000000000083
:1046AC000000003F50495443485F4B640000000039
:1046BC00000000000000204250495443485F427300
:1046CC0074000000000000000000C8425049544330
:1046DC00485F4B6464000000000000000000000014
:1046EC0050495443485F446500000000000000003E
:1046FC0077BE7F3F524F4C4C5F4B70000000000068
:10470C000000000000004843524F4C4C5F4B6900C6
:10471C0000000000000000000000003F524F4C4C15
:10472C005F4B64000000000000000000000020420D
:10473C00524F4C4C5F4B64640000000000000000C2
:10474C0000000000524F4C4C5F427374000000009C
:10475C000000000000000000524F4C4C5F4465000C
:10476C00000000000000000077BE7F3F5941575FFA
:10477C004B70000000000000000000000000164418
:10478C005941575F4B64000000000000000000001E
:10479C000000F0425941575F427374000000000062
:1047AC0000000000000000005941575F4465000004
:1047BC0000000000000000000000803F5941575FDE
:1047CC004C494D0000000000000000000000964322
:1047DC004D4F44455F53494D500000000000000010
:0447EC0000000000C9
:040000030000016197
:00000001FF
