:1000000000200010FD000000B5010000B501000057
:10001000B5010000B5010000B501000000000000BE
:10002000000000000000000000000000B50100001A
:10003000B501000000000000B50100004D4B0000BC
:100040000D0200000D0200000D0200000D02000074
:100050000D0200000D0200000D0200000D02000064
:100060000D0200000D020000000000000000000072
:10007000314C00000000000041520000CD4E000055
:1000800051530000E153000069540000F554000092
:1000900065590000D9610000E55600000D0200001E
:1000A0000D020000894B00000D0200000D0200004F
:1000B0000D0200000D0200000D0200000000000013
:1000C0007C7B000000000010F00500007C7B00003D
:1000D00000400020000000007C7B000000000020A9
:1000E00000000000F0050010240D0000004000207A
:1000F00000000000000000200000000070B5274B49
:10010000274905E0986893E830000C3300283DD17A
:100110008B42F7D3234900248B4202D30DE08B425C
:100120000BD258681D6808330028F8D000225451BB
:1001300004329042FBD88B42F3D300F07BF84FF4AB
:100140000043C4F2040301229A67D3F880206FF0C1
:10015000010042F4803242F04002C3F8802004F0F3
:1001600077FD4FF0FF3004F0C9FD04F0C1FC0E4BE9
:100170000BB101F0E1F80D4B0BB1AFF300800C4B6C
:100180005BB100F01FF900F01DF9FAE700221659E3
:10019000565104329042BBD9F9E7FEE7C000000097
:1001A000E4000000FC000000391300000000000023
:1001B000C503000010B44FF48042C4F20402502181
:1001C0004FF400535160C5F20003D1601C684FF436
:1001D000025144F00A041C60C5F200016FF00A03EA
:1001E0004FF406500B60C5F200004FF40C5202238E
:1001F000C5F200020A2103604AF220131160C0F226
:10020000070300BF013BFCD1F6E700BF704700BF0A
:1002100010B42AB100231C585C5004339A42FAD817
:1002200010BC704729B100231A461A500433994272
:10023000FBD870474FF40042C4F20402D2F83832BF
:10024000002123F02003C2F83832C823116200BF16
:10025000013BFCD14FF40043C4F2040301221A64B1
:1002600025229A60D3F83822194622F08002C3F87A
:100270003822CA684FF40043D207C4F20403F8D509
:1002800003221A67704700BFFFFFFFFFFFFFFFFF5A
:10029000FFFFFFFFFFFFFFFFFFFFFFFFFFFFFFFF6E
:1002A000FFFFFFFFFFFFFFFFFFFFFFFFFFFFFFFF5E
:1002B000FFFFFFFFFFFFFFFFFFFFFFFFFFFFFFFF4E
:1002C000FFFFFFFFFFFFFFFFFFFFFFFFFFFFFFFF3E
:1002D000FFFFFFFFFFFFFFFFFFFFFFFFFFFFFFFF2E
:1002E000FFFFFFFFFFFFFFFFFFFFFFFFFFFFFFFF1E
:1002F000FFFFFFFFFFFFFFFFFFFFFFFFFFFFFFFF0E
:100300002DE9F041DFF8B880284FD8F80030284EAA
:10031000284D294C002B38D04FF461733B8064206A
:1003200033802B80238004F08FFB40F23343642022
:100330003B8004F089FB4FF4617321203B8004F083
:1003400083FB40F233436420338004F07DFB4FF4A1
:1003500061732120338004F077FB40F23343642043
:100360002B8004F071FB4FF4617321202B8004F08B
:100370006BFB40F233436420238004F065FB4FF4B1
:1003800061736420238004F05FFB0C4A00235188D2
:100390003B8021F0070141F003013380C8F80030B1
:1003A0002B8051802380BDE8F08100BF560E0010E5
:1003B000EC1200104E0E0010CA100010740600104F
:1003C000080E001070B50A4D2C682CB9094E40F685
:1003D000B83332689A4201D830BF70BD05F0FEFCD8
:1003E000054B34601C60C8232B6030BF70BD00BF5C
:1003F00040060010EC06001018070010F8B5414E3A
:1004000048F21F533468C5F2EB130134A3FB0427F1
:100410003D4DF90801EB81014FF47A70D5E90023D5
:1004200001EB810E0021121843EB01037445346087
:10043000C5E9002322D164237F0903FB1744334B12
:100440001B78002C2AD14BB14FF40C52304BC5F223
:100450000002022111601A784A401A702D4B1B7855
:100460004BB14FF40C522A4BC5F200020821116027
:100470001A784A401A70284B1B78CBB905F042F91C
:10048000264B002823D0264A1C68264811680460A1
:100490000020186009B101391160F8BD022B25D088
:1004A0001C4B1B78022B16D01B4B1B78022BE5D163
:1004B0004FF40C52164B0121C5F2000211601A785C
:1004C0004A401A7005F01EF9144B0028DBD11A6857
:1004D00001321A60F8BD4FF40C520D4BC5F2000208
:1004E000082111601A784A401A70DDE74FF40C5168
:1004F000074AC5F200010B60137883F00203137002
:10050000CEE700BF58060010E80D0010100C0010D8
:10051000F4120010640C0010A40B0010EC06001084
:1005200040060010180700102DE9F041324D334EFF
:100530002C6833689C4256D2A4B24FEA840C3048EF
:100540000CEB0407BF00C119D1F810E02D4AC75DBC
:100550004FEA1E481480A2F802E0A2F80480D3807B
:100560001772002F33D04F785772002F2FD08F780B
:100570009772002F2BD0CB78D372002B27D00B791A
:10058000137323B34B7953730BB38B799373F3B119
:10059000CB79D373DBB10B7A1374C3B10CEB0403C7
:1005A00000EB8303587A1146507480B19A7A8A74AA
:1005B0006AB1DA7ACA7452B11A7B0A753AB15A7BB7
:1005C0004A7522B19A7B8A750AB1DB7BCB754FF4F1
:1005D00081700C490C2205F0E3F920B10A4B1A781E
:1005E0001AB901342C60BDE8F0813268002119701D
:1005F0002A60BDE8F08100BF540600100C0E001008
:1006000000000010F40600108406001070B582B0DF
:10061000684606F02FFA002800F09C80504CBDF888
:100620000000A56FBDF80220BDF8043005F10C01F3
:10063000208004EB41012285A4F85030A069B1F973
:10064000043005F12002C31AA36104EB4202266CB8
:10065000B2F9040005F13403301A206404EB4303BB
:10066000A66EB3F904000135301AA066A669208889
:1006700000B23018A061266C208D00B230182064C2
:10068000A66EB4F8500000B23018A06620888880AA
:10069000218D9180B4F850209A80A06906F0C4FFA3
:1006A0000021C4F2C00107F0C7F86060206C06F0BA
:1006B000BBFF0021C4F2C00107F0BEF8E062A06EEB
:1006C00006F0B2FF0021C4F2C00107F0B5F8052D15
:1006D0006065A56740D86068E16806F0EFFE4AF201
:1006E000B601C4F24C4107F0A7F8A060E06A616B64
:1006F00006F0E4FE4AF2B601C4F24C4107F09CF861
:100700002063606DE16D06F0D9FE4AF2B601C4F2D5
:100710004C4107F091F80021A065A068C4F27A412D
:1007200006F0D6FF07F09AF90E4D03460021206B24
:10073000C4F27A41EB8006F0CBFF07F08FF900217D
:100740000346C4F27A41A06D2B8106F0C1FF07F089
:1007500085F9688102B070BD0023A367BBE700BFC5
:10076000580D0010740C00102DE9F04FB44C87B0F8
:100770000590FFF74BFF20884FF0000800B206F00D
:1007800053FF0746208D00B206F04EFF0646B4F830
:10079000500041F2883200B2019206F045FF054652
:1007A00040F610400123C1F200000370CDF80C8028
:1007B000CDF80880CDF8108068E0029840F65852D5
:1007C000C1F20002118801301346128DB3F8503087
:1007D0000290049809B24018039912B28918029A3B
:1007E0001BB2B2F5A67F04900391984400F2B78043
:1007F00043F23331C3F67371384606F069FF07469A
:10080000208800B206F010FF4CF6CD41C3F64C51E3
:1008100006F05EFF0146384606F052FE43F23331E1
:10082000C3F673710746304606F052FF0646208D28
:1008300000B206F0F9FE4CF6CD41C3F64C5106F07D
:1008400047FF0146304606F03BFE43F23331C3F624
:1008500073710646284606F03BFF0546B4F8500083
:1008600000B206F0E1FE4CF6CD41C3F64C5106F065
:100870002FFF0146284606F023FE0546032004F01C
:10088000E3F8019B013B019300F0D680FFF7BEFE29
:100890002088B4F800A000B206F0C6FE0146384633
:1008A00006F00CFE1FFA8AFA81460FFA8AF006F06B
:1008B000BBFE0146384606F001FE0146484606F0FA
:1008C00007FF8146208DB4F828B000B206F0ACFED8
:1008D0000146304606F0F2FD1FFA8BFB82460FFA06
:1008E0008BF006F0A1FE0146304606F0E7FD01461A
:1008F000504606F0EDFE0146484606F0E1FD814611
:10090000B4F85000B4F850B000B206F08DFE0146C5
:10091000284606F0D3FD1FFA8BFB82460FFA8BF0B8
:1009200006F082FE0146284606F0C8FD0146504604
:1009300006F0CEFE0146484606F0C2FD0021C4F294
:10094000FA4107F063F800287FF437AF4FF0000852
:10095000CDF80C80CDF81080CDF8088048E78146AE
:10096000384D022269884FF40A5321F007011143E0
:10097000698040F610400599334EC5F20003C1F27C
:10098000000040F24D1A02700AFB01FA1A60337837
:1009900013433370BAF1000F16D0DDF80CB0002706
:1009A000FFF734FE2188228DB4F8503009B212B21C
:1009B0001BB20320013789449344984404F044F85F
:1009C0005745EDD1CDF80CB0059A40F24D1002FB21
:1009D000000006F025FE0746484606F025FE39468B
:1009E00006F02AFF03460398E36006F01DFE394631
:1009F00006F022FF03464046636306F015FE3946C3
:100A000006F01AFFE06540F6104000224FF408534C
:100A1000C1F200000270C5F2000302221A606B8866
:100A2000327823F0070302F0FD0243F00303327033
:100A30006B8007B0BDE8F08FDDF8109090E700BF45
:100A4000580D001074060010F41200102C4B2DE904
:100A5000F0410021D3F8240506F0F6FFDFF8C0804E
:100A6000002845D10F2005F089FD264F264E274D41
:100A7000274CD8F800304FF461723A8032802A80D7
:100A800022802BBB4FF4FA7003F0DEFF40F23343B9
:100A90003B80642033802B80238003F0D5FF4FF40C
:100AA00061723A804FF4967032802A80228003F07F
:100AB000CBFF40F233433B80642033802B80238084
:100AC00003F0C2FF4FF461723A8032802A802280A4
:100AD000104B11495A880868012122F00702C8F812
:100AE00000100E4942F0040208605A80BDE8F0810F
:100AF000D8F80030002BB5D10120FFF735FEB1E763
:100B000000000010560E0010EC1200104E0E0010E7
:100B1000CA10001074060010C00B00101C07001053
:100B2000080E00102DE9F04383B0684605F076FF0B
:100B3000002800F0C180644CBDF80010D4F81052B9
:100B4000BDF80220BDF804302180A4F8B02005F1E2
:100B50000801A4F86031E06834F9113005F1600251
:100B6000C31AE360D4F8BC6034F9120005F1B8038D
:100B7000301AC4F8BC00D4F86C6134F913000135A4
:100B8000301AC4F86C01E668208800B23018E060C2
:100B9000D4F8BC60B4F8B00000B23018C4F8BC009F
:100BA000D4F86C61B4F8600100B23018C4F86C017C
:100BB000208824F81100B4F8B01024F81210B4F80A
:100BC000602124F81320E06806F02EFD0021C4F215
:100BD000A02106F031FE6060D4F8BC0006F024FDD0
:100BE0000021C4F2A02106F027FEC4F8B400D4F816
:100BF0006C0106F019FD0021C4F2A02106F01CFED4
:100C00004F2DC4F86401C4F8105258D86068616868
:100C1000D4F8B420D4F8B4309146984606F058FD84
:100C200041460546484606F053FD0146284606F073
:100C300047FCD4F86471D4F86461054631463846FF
:100C400006F046FD0146284606F03AFC03F00CFD8E
:100C500005462946606806F03BFDA060D4F8B40064
:100C6000294606F035FDC4F8B800D4F864012946D9
:100C700006F02EFD0021C4F86801A068C4F27A4194
:100C800006F026FD06F0EAFE104D03460021D4F8DA
:100C9000B800C4F27A412B8006F01AFD06F0DEFEA1
:100CA00000210346C4F27A41D4F868016B8006F053
:100CB0000FFD06F0D3FEA88003B0BDE8F08300234B
:100CC000C4F81032A2E700BF30070010740C001007
:100CD0002DE9F04F87B004A805F0FAFE002800F0D7
:100CE0004181A24CBDF81010D4F81052BDF812206A
:100CF000BDF814302180A4F8B02005F10801A4F853
:100D00006031E06834F9113005F16002C31AE36024
:100D1000D4F8BC6034F9120005F1B803301AC4F8F5
:100D2000BC00D4F86C6134F913000135301AC4F8F2
:100D30006C01E668208800B23018E060D4F8BC602E
:100D4000B4F8B00000B23018C4F8BC00D4F86C613C
:100D5000B4F8600100B23018C4F86C01208824F89F
:100D60001100B4F8B01024F81210B4F8602124F87F
:100D70001320E06806F058FC0021C4F2C00106F020
:100D80005BFD6060D4F8BC0006F04EFC0021C4F2AC
:100D9000C00106F051FDC4F8B400D4F86C0106F0AF
:100DA00043FC0021C4F2C00106F046FD052DC4F845
:100DB0006401C4F8105202D90023C4F810326068EC
:100DC00006F04CFE6A4DD4F8B430A881184606F0FF
:100DD00045FE0346D4F86401EB8106F03FFE40F285
:100DE0001072C1F20002D2F800B003460021C4F232
:100DF000201158462B8206F0FFFD5C4EA8B15D4BDA
:100E00007068196806F05CFB5B4B7060D6F8B40044
:100E1000196806F055FB594BC6F8B400D6F86401C2
:100E2000196806F04DFBC6F86401554E6368D6F8A4
:100E3000CC12D4F8B400984606F040FBD6F8E01285
:100E40000746D4F8640106F039FBD6F8B81281469B
:100E5000404606F033FBD6F8401206F039FCD6F8CF
:100E600054128046384606F033FC0146404606F0F0
:100E700027FBD6F868128046484606F029FC014652
:100E8000404606F01DFBD6F87C128046384606F038
:100E90001FFCD6F890120746484606F019FC01469A
:100EA000384606F00DFBD6F8A4120746484606F071
:100EB0000FFC344B2D4AD3F800900646484600926A
:100EC00006F0CCFD304903464846D1F800904FF07B
:100ED000000A51462B80A5F8029006F08DFD009A7D
:100EE00088B15068294BD2F8B410D2F86421186048
:100EF000274BD3461960274B1A6040F21073C1F29A
:100F00000003C3F800A0B9F1010F45D041464046A7
:100F100006F0DEFB39460546384606F0D9FB0146A9
:100F2000284606F0CDFA31460546304606F0D0FB9D
:100F30000146284606F0C4FA03F096FB054629460A
:100F4000404606F0C5FB294603463846A36006F036
:100F5000BFFB294603463046C4F8B83006F0B8FB5C
:100F6000C4F8680107B0BDE8F08F00BF7009001039
:100F7000940C0010D40D0010FC0D0010180C001083
:100F800000000010B0060010B4060010A80B0010FE
:100F9000440D0010200C001000215846C4F220110E
:100FA00006F034FD0028B1D04FF07E51584606F0CF
:100FB00087FADFF8C8902D4B40F2107E6568C1F2C9
:100FC000000E82461968CEF800A0D9F8000006F09D
:100FD00077FA294606F072FADFF8A4B0244A0346ED
:100FE000D4F8B4501168C9F80030DBF80000019360
:100FF00006F066FA294606F061FA0290DDF808E08C
:101000001C4D1D49D4F864212868CBF800E009681C
:10101000009206F055FA009A114606F04FFA039036
:10102000039A0021C4F2201150462A6006F0E4FC25
:10103000019B00283FF46AAF0021C4F2201118463A
:1010400006F0FAFB00210346C4F22011C9F8003073
:10105000029806F0F1FB00210346C4F22011039828
:10106000CBF8003006F0E8FB28604FE7A80B001033
:10107000440D0010180C0010200C0010D40D0010AE
:10108000FC0D00102DE9F04182B0684605F0F2FC3D
:1010900018B1684605F01CFD48BB0A2003F0D8FDD6
:1010A0004FF40052C5F2000210684FF4085140F0AE
:1010B0000A0010607D4BC5F200010A220A601C780C
:1010C0004FF40A500222C5F2000004F0F5041C702F
:1010D000026018781043187008200860197801F031
:1010E000F7011970724B1A70724B1A70FEE768465E
:1010F00005F094FC0028D0D005F012FD0028CCD0DB
:10110000DFF8C08100246C4D6C4E00272146A022E0
:1011100008F11000AC612C772C646C77AC66AC776E
:10112000C8F80C40EC77C8F8BC4085F82040C8F8F7
:101130006C4185F82140F46085F82240C6F8BC4037
:1011400085F82340C6F86C4185F824402F6185F866
:101150002540AF6385F826402F6685F827406F61EC
:1011600085F84440EF6385F8454085F8464085F8AA
:10117000474085F8484085F849406F6685F84A4001
:1011800085F84B4085F84C4085F84D4085F84E4039
:1011900085F84F4085F86C4085F86D4085F86E40C5
:1011A00085F86F4085F8704085F8714085F8724089
:1011B00085F8734085F8744085F8754085F8764069
:1011C00085F8774006F090FC2146A02208F1C00087
:1011D00006F08AFC2146A02208F5B87006F084FCCF
:1011E00006F5BA7334747474B474F4743475747525
:1011F000B475F47534767476B476F47686F8C040B7
:1012000086F8C14086F8C24086F8C34086F8C440DC
:1012100086F8C54086F8C64086F8C74086F8C840BC
:1012200086F8C94086F8CA4086F8CB4086F87041F7
:1012300086F8714186F8724186F8734186F87441E8
:101240005C7006F5BC7386F8764186F8774186F8BF
:1012500078415C70EF6086F87A4186F87B416F6375
:10126000EF65FFF7D3F9FFF7D1F9FFF7CFF9FFF7F4
:10127000CDF9FFF7CBF9FFF7C9F95024FFF752FC7E
:10128000013CFBD1FFF724FDFFF722FDFFF720FD16
:10129000FFF71EFDFFF71CFDFFF71AFD084B5A88EC
:1012A00042F078025A8002B0BDE8F081F4120010DA
:1012B000100C0010640C0010580D00107009001084
:1012C000740600103007001070B5194CE6B02268A3
:1012D00000209200023201A903F0A2F92668B5218C
:1012E000B50001AA08BF0B460BD054190B4612F8E3
:1012F000010BC318DBB25918A242C9B2F7D101A839
:10130000421912789A4201D066B070BD01AA5319F1
:101310005B788B42F8D1002EF6D06B46054AE81870
:1013200053F8041F116114328342F9D1ECE700BF76
:101330000C0E0010000000102DE9F04F0A208DB0B7
:1013400003F086FC4FF0A04303F50052116841F210
:10135000F4244FF40855C1F200040A23C5F2000535
:1013600041F00A01116004942B60227840F20006DB
:1013700002F0F502C1F2000622702B60039640F6DF
:10138000A4364FF0000C94F800E0C1F2000640F2E1
:10139000946286F800C0DDF80C900026DDF810A0FD
:1013A000C1F2000240F6644740F6086540F214645A
:1013B00040F6AC3340F610480EF0F50EC1F20003D3
:1013C000C1F200081660C1F200073222C1F2000526
:1013D000C1F200048AF800E088F800C087F800C075
:1013E0001A604FF07E51D9F848042E602660CDF87F
:1013F000148006F065F806F057FB40F6006240F2F4
:101400005863C1F20003C1F2000240F6E851C1F294
:10141000000110601E6000220023C1E9002340F695
:101420000C6403F065FBC1F200044C232360FFF75A
:101430004BFF40F27466246840F2546140F28462CB
:1014400040F66C430125C1F20003C1F20006C1F26F
:101450000001C1F2000200274FF000080C60177075
:101460007580358000201D805D80A3F8048004F025
:101470007DF940F2B06140F6106240F6E043C1F2FF
:1014800000010020C1F200034FF00009C1F2000288
:10149000C1F800901060186040F65F62069204F098
:1014A000B9FB04F027FB069F40F2C863C1F20007B6
:1014B000C1F200034FF001084FF44044C4F20104AC
:1014C000802087F80080C3F81C90069704F056F837
:1014D0002368284623F0FF032360236840F26C68EA
:1014E00043F0807343F08003236003F0ADFA636838
:1014F00041F6B502C3F30B1302FB03F39B12B38057
:101500004FF4FA7003F0A0FA05F08CF9FFF7BAFD7A
:1015100040F21073C1F20003C3F8009004F0EAFA3D
:1015200040F25C63C1F20003029340F69043C1F2C3
:10153000000340F2BC620793C1F2000240F6D443BC
:101540000192DDF80C90DDF80CA0C1F2000340F62A
:101550004C520993C1F20002069BD9F82490DAF8A4
:1015600010A0089240F20C67012240F6943640F633
:10157000485540F2C0641A70C1F2000800234FF0D1
:101580007E52C1F20007C1F20006C1F20005C1F2AD
:1015900000043A6033602B602360C8F80030CDF857
:1015A0002C90029C019D079E089FCDF828A0002149
:1015B000DDF8248040F6A03940F6681C40F6E45E71
:1015C00040F2C46A40F2306BC1F2000CC1F2000E6E
:1015D000C1F20009C1F2000AC4F2C8210B98C1F29D
:1015E000000BC9F80020CCF80030CEF800302260A3
:1015F00032602B60CAF800303B60CBF80030C8F88E
:10160000003006F065F8DDF80C9003460021C4F2C6
:10161000C821C9F824300A9806F05AF80346C9F8D8
:1016200010303B2003F02CFE422140F6B83003F08E
:101630004DFE4FF47A7003F007FADDF82CA040F667
:10164000B838C9F824A0DDF828A040F2346C40F680
:101650008C4E40F6481740F6884640F2986540F6B2
:10166000F05440F2247140F69C3240F65843C1F2E7
:10167000000CC1F20001C1F20002C1F2000EC1F281
:101680000003C9F810A0C1F200084FF0000AC1F22F
:101690000007C1F20006C1F20005C1F200044FF0DC
:1016A0000009CCF800A0C1F800A0C2F800A03020CA
:1016B000A8F80090CEF800A0C7F800A0C6F800A0D7
:1016C000C5F800A0C4F800A0C3F800A004F056FFBD
:1016D00040F2B863C1F200034220C3F800A003F057
:1016E0006DFA4FF40854059A0223C5F20004049DD4
:1016F0004FF0000C82F800C023602F7840F61050A5
:10170000C1F2000040F2506640F6F85540F61C4425
:1017100040F6E05140F2286240F6DC33DDF81080FC
:1017200007F0FD07C1F20006C1F20005C1F2000496
:10173000C1F20001C1F20002C1F20003C0F800A032
:10174000002088F80070C6F800A0C5F800A0C4F812
:1017500000A0C1F800A0C2F800A018600DB0BDE85C
:10176000F08F00BF2DE9F041234BE6B0D3F800E045
:10177000B5267346304601A9BEF1000F2DD01F4C8F
:101780006F460023304601A9256901EB830247F823
:10179000045F11F823C055786044C0B2451992F82F
:1017A0000280EDB2A84492F803C086195FFA88F26D
:1017B00001337619734502EB0C002CBF002501257F
:1017C000B618C0B23618632B8CBF002505F0010592
:1017D00006F0FF061434002DD6D14FEA8E0201EB3D
:1017E000830401F8230002326670002002F0F4FE48
:1017F00066B0BDE8F08100BF0C0E001000000010C4
:101800002DE9F04F784B8BB01C6814B10BB0BDE8DC
:10181000F08F40F2746140F66442C1F2000101238E
:10182000C1F20002022013704880FFF751FA40F61F
:101830007013C1F200031988B3F8B020B3F8603117
:1018400012B21BB20592069341F288320292059BB6
:10185000069A0025039409B20491644C2F462E4643
:10186000DDF80C8007910893099259E008F101080E
:10187000B8F1090F09D940F664410220C1F2000114
:101880000122087003924FF0000843F23331C3F68F
:101890007371304605F01CFF0646208800B205F043
:1018A000C3FE4CF6CD41C3F64C5105F011FF314655
:1018B00005F006FE43F23331C3F67371064638462F
:1018C00005F006FF0746208D00B205F0ADFE4CF690
:1018D000CD41C3F64C5105F0FBFE394605F0F0FD55
:1018E00043F23331C3F673710746284605F0F0FE24
:1018F0000546B4F8500000B205F096FE4CF6CD4116
:10190000C3F64C5105F0E4FE294605F0D9FD054625
:101910000E2003F099F8029A013A029200F0AE808C
:10192000FEF774FE2088B4F800A000B205F07CFE3B
:101930000146304605F0C2FD1FFA8AFA81460FFAC9
:101940008AF005F071FE0146304605F0B7FD01460C
:10195000484605F0BDFE8146208DB4F828B000B29F
:1019600005F062FE0146384605F0A8FD1FFA8BFB24
:1019700082460FFA8BF005F057FE0146384605F017
:101980009DFD0146504605F0A3FE494605F098FD31
:101990008146B4F85000B4F850B000B205F044FEEF
:1019A0000146284605F08AFD1FFA8BFB82460FFA96
:1019B0008BF005F039FE0146284605F07FFD014613
:1019C000504605F085FE494605F07AFD039B7BB93C
:1019D0000021C4F2FA4106F037F800287FF446AF40
:1019E000DDF80C8051E700BF080E0010580D001004
:1019F0000190FFF76DF940F67011C1F200010B88FC
:101A0000049A1BB29342019840F3A38040F67011F0
:101A1000C1F200010B881BB2049340F67012C1F2B0
:101A20000002B2F8B030059A1BB293427DDD40F659
:101A30007011C1F20001B1F8B0301BB2059340F64D
:101A40007012C1F20002B2F86031069A1BB29342E2
:101A500057DD40F67011C1F20001B1F860311BB2E0
:101A600006930021C4F2FA4105F0D0FF002845D0CA
:101A700008F10108B8F1C70F7FF607AF049A07987D
:101A80003D4C131803EBD373581005F0CDFD0599A9
:101A900002460898C4F8B8220B1803EBD373581009
:101AA00005F0C2FD069902460998C4F8CC220B182D
:101AB00003EBD373581005F0B7FDC4F8E002FFF74D
:101AC00051FE2E494FF408520020C5F20002087062
:101AD000022111602A4B40F27461C1F200014A8870
:101AE000197822F0070201F0FD01197040F27463C9
:101AF00042F00302C1F200035A8087E64FF000086B
:101B0000C3E640F67012C1F20002B2F86031099AE1
:101B10001BB29342BFBF40F67011C1F20001B1F891
:101B200060311BB2B8BF09939BE740F67012C1F257
:101B30000002B2F8B030089A1BB29342BFBF40F621
:101B40007011C1F20001B1F8B0301BB2B8BF0893F8
:101B500075E740F67012C1F200021388079A1BB2B3
:101B60009342BFBF40F67011C1F200010B881BB257
:101B7000B8BF079351E700BF00000010100C001021
:101B8000F412001000000000AE4B2DE9F04F1A884F
:101B900097B0013292B2042A1A8001F26983AA4CEA
:101BA000AA4DAB4F0A941095AA4CAB4D0497AB4F7E
:101BB000139414950D97AA4CAA4DAB4F12941195FE
:101BC000089740F65857C1F20007FEF7ABFFFEF743
:101BD0001DFDB868396905F071FC0021C4F2C831F7
:101BE00005F02AFE40F6585EC1F2000E0746DEF808
:101BF0003000DEF8381005F061FC0021C4F2C83175
:101C000005F01AFE40F65851C1F200018146886D78
:101C1000096E05F053FC0021C4F2C83105F00CFE3A
:101C200040F26C63C1F20003D3F800808246414663
:101C3000384605F04DFD40F668148C4DC1F20004A5
:101C400026682A68044631464846059205F040FD5C
:101C50000146204605F034FC05998346504605F0C0
:101C600037FD834C01465846D4F800B005F028FCF7
:101C70004FF03F4105F02CFD594605F021FC84460C
:101C8000C4F800C059463846CDF804C005F020FD20
:101C9000314603465046039305F01AFD039B014667
:101CA000184605F00DFC059903464846039305F0D8
:101CB0000FFD039B0146184605F000FC4FF07C51D8
:101CC00005F006FD0146404605F0FAFB40F26C6364
:101CD00002465946C1F2000348461A60029205F0D6
:101CE000F7FC414603465046039305F0F1FC039B85
:101CF0000146184605F0E2FB059903463846039372
:101D000005F0E6FC039B0146184605F0D9FB4FF0B1
:101D10007C5105F0DDFC0146304605F0D1FB40F674
:101D2000681EC1F2000E0346CEF8003059465046F8
:101D3000039305F0CDFC41468246484605F0C8FCB9
:101D40000146504605F0BCFB31468046384605F05A
:101D5000BFFC0146404605F0B1FB4FF07C5105F059
:101D6000B7FC0146059805F0ABFBDDF804C006465C
:101D7000614660462E6005F0ABFC029A07461146AC
:101D8000104605F0A5FC0146384605F099FB039B7B
:101D900007461946184605F09BFC0146384605F0F3
:101DA0008FFB31460746304605F092FC0146384627
:101DB00005F086FB02F058FC2168804605F088FC9F
:101DC000074640F26C60C1F200000168276040469F
:101DD00005F07EFC40F6681240F26C63C1F200022E
:101DE000C1F20003064611681E60404605F070FC13
:101DF00040F6681EC1F2000E8146CEF800902968B8
:101E0000404605F065FC80463946C5F800803846F6
:101E100005F05EFC31460690304605F059FC494617
:101E20000590484605F054FC41468346404605F07F
:101E30004FFC49460790384605F04AFC4146824629
:101E4000304617E0B80B0010840B00103C06001061
:101E500000000010B8060010080E0010FC0B001067
:101E6000DC0D0010000E0010C8060010E40D00107C
:101E7000A00B001005F02CFC0146504605F01EFB9F
:101E8000014605F01DFB41468246484605F020FC10
:101E900031468046384605F01BFC0146404605F0B9
:101EA0000FFB014605F00CFB4FF07E51804650467B
:101EB00005F0A2FD002841F0C48100215046CBF678
:101EC000807105F099FD002840F07681AC4F5046B6
:101ED0000E9702F06DFC03463B605946059805F0ED
:101EE000EFFA014605F0ECFA01464FF07E5005F09E
:101EF000E5FAA44F014640460F9702F0D1FB034696
:101F00003B602968206805F0E3FB40F6681E40F25C
:101F10006C62C1F2000EC1F20002DEF8001004464D
:101F2000106805F0D5FB0146204605F0C9FA0146C8
:101F300005F0C6FA07990446584605F0C1FA01466D
:101F400005F0BEFA01464FF07E5005F0B7FA0146A3
:101F500020468D4C0B9402F0A3FB20600599069857
:101F600005F0ACFA594605F0A9FA079905F0A8FA68
:101F7000864C05464146D4F8680105F0A9FBD4F823
:101F8000B86007462946304605F0A2FB01463846B0
:101F900005F094FA40F65857C1F200077861A0683E
:101FA000294605F095FBD4F8686105465146304650
:101FB00005F08EFB0146284605F082FA744DF86361
:101FC000A868A168D5F8B820D4F8B83092469946E8
:101FD00005F07EFB49468046504605F079FB0146F8
:101FE000404605F06DFAD5F86871D4F8686180460E
:101FF0003146384605F06CFB0146404605F060FA74
:10200000AB680646A768D5F8B8203146D4F8B800C2
:102010001D46144605F05CFB0146204605F04EFACD
:1020200031460446384605F053FB0146284605F084
:1020300045FA0146204602F033FB0B9C40F658550A
:10204000D4F80080C1F20005414605F039FA68660F
:10205000686E04F0F1FE44A3D3E900234D4C05F073
:10206000CFF950B1606E04F0E7FE41A3D3E900233D
:1020700004F082FD05F0CEF9606640F65857C1F2D3
:102080000007786E04F0D8FE3BA3D3E90023414C4F
:1020900005F098F950B1606E04F0CEFE34A3D3E998
:1020A000002304F06BFD05F0B5F96066049D40F671
:1020B000585E2C69C1F2000E04F10044DEF81410E1
:1020C000204605F005FB40F65857C1F2000738617D
:1020D000F96B204605F0FCFA40F2B064C1F200044E
:1020E0002468034600212046BB63069405F084FC67
:1020F000294E284C002800F08882706A04F09CFE6B
:10210000656E00230022C4F2590304F0E9FE06467E
:1021100028460F4604F090FE02460B4630463946EC
:1021200004F0DEFE05F076F920660A9D109F2A88ED
:10213000B7F900301949D31A312B5BDC184B1B68F7
:10214000002B57D0174B1B68312B41F2D282164B14
:10215000002200261A60154D34460595144F154D82
:1021600007970995049F3AE3182D4454FB21094031
:10217000182D4454FB211940182D4454FB2109C04B
:10218000600C001060060010C00B0010300700103B
:1021900070090010580D001000000010840B001092
:1021A000100E0010AC0B001094060010E40C001090
:1021B000140D0010A80C00103946304602F070FAD9
:1021C0004FF0404105F084FA074D40F6DB73074CB1
:1021D000074FCBF6C9732B6000230B940E950F9716
:1021E00020603B60BAE600BF600C0010C00B00101E
:1021F000600600100A9FB44CB888059405F010FAE8
:1022000001464FF0884005F059F9049D00F1004067
:10221000296E05F05DFA0546A560788805F000FA9C
:1022200001464FF0884005F049F9049FA74C796FAB
:10223000079405F04DFA079F04460021C4F2AF3120
:102240000698BC6005F000FCA14A166808B101368A
:10225000166040F2D1739E4284BF13601E469D4BB0
:102260000021C4F22011186805F0C6FB002840F0D8
:10227000918140F2D1739E4218BF4FF0000800F0E8
:102280008981059F28467E68DFF83C92314605F03B
:10229000DBFB049F002800F098810021D7F8BC03E5
:1022A000C4F2C83105F0C8FA31460746284605F0A1
:1022B00005F9394605F0C8FB002841F07A81DDF8C0
:1022C00014E0CEF804500798804E45682046294611
:1022D00005F0BAFB002800F0AB812946204605F046
:1022E000EDF8394605F0B0FB002841F05481079D18
:1022F0006C60404604F038FC049CD4F8881005F06B
:10230000A3FB002840F0B481734D0995734CDFF8AE
:10231000F0912568E068294605F0D0F804F08CFDBE
:1023200063A3D3E9002304F0DBFD05F073F8034653
:1023300061682069C9F8003005F0C0F804F07CFD40
:102340005BA3D3E9002304F0CBFD064628460F46E5
:1023500004F072FD58A3D3E9002304F0C1FD05F099
:1023600059F802F0F5FA04F067FD02460B463046D4
:10237000394604F0B5FD05F04DF8594B0646A16805
:1023800060691E6005F09AF8049F564DD7F8101545
:1023900005F096F8DDF810E007464FF07E51DEF8C4
:1023A0005C042F6005F028FBDFF85881002800F05E
:1023B000B381238B002B41F081804B4B4B4F1C682A
:1023C0004B4B0697D3F800A04A4B4B4F1B68159711
:1023D0000C934A4BD3F800B0049FD9F80010D7F8FB
:1023E0007084D7F89874404605F072F9214681460A
:1023F000384605F06DF9DDF810E001464846DEF894
:10240000AC4405F05DF851468146204605F060F980
:102410000146484605F054F8059A03465360414684
:10242000304605F055F90C990646384605F050F946
:102430000146304605F044F859460646204605F068
:1024400047F90146304605F03BF80B9C079F23688F
:10245000786003F1004004F0EFFC19A3D3E90023F6
:1024600004F08CFB04F0D6FF02F002FA059C6168D0
:1024700005F02EF90B9F0446386800F1004002F089
:10248000F7F9079F796805F023F90146204605F022
:1024900015F80B9F0446386800F1004002F0E8F997
:1024A000059F796805F014F90B9F06462CE000BFE4
:1024B000AD3E89D3AE25FB40399D52A246DF913F08
:1024C000182D4454FB21F93FE40C0010140D0010AA
:1024D000DC0B001010070010A80C00103C0C0010C2
:1024E000F80D0010680600101C0C0010680C00109D
:1024F000E00D0010100D0010480600102806001016
:102500005006001000000010386800F1004004F090
:1025100093FC73A3D3E9002304F030FB04F07AFFAB
:1025200002F0A6F9079F796805F0D2F80146304617
:1025300004F0C6FF2968049D0646D5F8C00405F0DE
:10254000C7F8069F05463968049FD7F8D40405F0FC
:10255000BFF80146284604F0B3FF159F05463968C9
:10256000049FD7F8FC0405F0B3F80146284604F0B0
:10257000A7FF634B196804F0A3FF40F2B06E614BF4
:102580000B9DC1F2000E0690CEF800001860D5F841
:10259000008024E15C4A0A9FB2F90000FB88DFF862
:1025A0007491C01A05F040F8049F00F10040F96CE6
:1025B00005F08EF8059F80467E682846314605F076
:1025C00043FA049F00287FF468AE0021D7F8BC03CB
:1025D000C4F2C83105F030F929460746304604F008
:1025E0006DFF394605F030FA00283FF468AE3046FA
:1025F000002105F00BFA00283FF461AE3046394661
:1026000004F05CFFC9F804005DE6404B0021C4F211
:102610002011186805F0F0F9002800F08486706A2F
:1026200004F00AFC0023656E0022C4F224036CE56A
:102630002146284604F042FF394605F005FA50B11C
:102640002846002105F0E2F928B12846394604F071
:1026500035FF70604DE6079F40467C6004F084FAC9
:10266000049CD4F8881005F0EFF900283FF44CAE34
:10267000274F40467968099704F022FF03467B60A4
:1026800004F0DAFB18A3D3E9002304460D4604F056
:10269000B7FE002840F04E862046294614A3D3E911
:1026A000002304F08FFE00283FF430AE12A3D3E9DC
:1026B00000232946204604F061FA04F0ABFE099D90
:1026C00003466B60E86904F0B7FB0BA3D3E9002372
:1026D00004F054FA04F09EFEE86117E6AFF30080C0
:1026E000182D4454FB21F93F182D4454FB21094077
:1026F000182D4454FB2109C0182D4454FB211940C6
:102700002C0C0010380C0010F00600101007001000
:10271000A80C0010E40C0010854C00232360854CAD
:10272000D9F800202360844C40F2B06E2260834AC6
:10273000C1F2000E1660824ADEF800501360814A32
:10274000D8F8C8011360804A4FF07E5113607F4A69
:1027500017607F4A7F4F13607F4B1D6005F04CF977
:10276000002840F000864CF6E430C4F2160002F077
:102770007FF8059C616804F0ABFF044640F6DB700F
:10278000C3F6497002F074F8079D696804F0A0FF71
:102790000146204604F092FE044640F6DB70C3F684
:1027A000497002F065F8059D696804F091FF0546DF
:1027B0004CF6E430C4F2160002F05AF8DDF81CE0E2
:1027C000DEF8041004F084FF0146284604F078FE89
:1027D0003F680B9D0697D5F80080049F0646D7F802
:1027E00018522146284605F011F900B12C4605F192
:1027F00000473846214605F027F900B13C463046EF
:10280000294605F021F900B12E463046394605F03B
:10281000FDF800B13E46059D2046E96904F04EFEF4
:10282000079F8146F9693046C5F8249004F046FEBA
:10283000099D83466F68E969079D3846C5F824B04D
:1028400004F03CFE0E9D0C90DDF824E029680C9D00
:102850002046CEF82450059DCEF81C70EC61079CF4
:10286000E66104F02DFE0F9D04462968304604F011
:1028700025FE41460546384604F022FE82462046A3
:1028800004F0DAFA26A3D3E9002306460F4604F043
:10289000B7FD002800F0AA8723A3D3E90023304620
:1028A000394604F069F904F0B5FD0446284604F001
:1028B000C3FA1BA3D3E9002306460F4604F0A0FD8C
:1028C000002800F0B48718A3D3E900233046394626
:1028D00004F052F904F09EFD0546504604F0ACFAAF
:1028E0000FA3D3E9002306460F4604F089FD002814
:1028F00000F0BE870CA3D3E900233046394604F02C
:102900003BF904F087FD824600210698C4F2AF31FE
:1029100005F09AF8002800F0C8871FE0AFF30080A8
:10292000182D4454FB210940182D4454FB21194013
:102930001C0C0010100D0010240C0010D80D0010FD
:10294000E00D001028060010680C0010980B001015
:1029500048060010B00600102C0C0010059F204601
:10296000B96A04F0ADFDDDF81CE00746DEF828107A
:10297000284604F0A5FD06460498D0F80011384614
:1029800004F0A6FE049A059B0746D2F878119F62D0
:10299000304604F09DFE40F6585E079AC1F2000EE4
:1029A00006460498DEF83030D0F8EC1096624846BF
:1029B000984604F08DFE0146404604F07FFD049BDE
:1029C00000F10040D3F8C41004F082FE0499059A87
:1029D00040F6585EC1F2000ED1F8D8308046116A38
:1029E000DEF8300003F1004904F068FD0146484676
:1029F00004F06EFE414604F063FD049B8046D3F86C
:102A00009C00214600F1004004F062FE414604F0C3
:102A100057FDDDF810E00446DEF8B010384601F14D
:102A2000004104F055FE214604F04AFD049F804613
:102A300040F65850C1F200008468D7F86411584637
:102A400004F046FE0146204604F038FDD7F83C115C
:102A500000F1004004F03CFE079A40F6585EC1F2D7
:102A6000000E116A0446DEF8080004F027FD049FFA
:102A70000146D7F8507107F10047384604F028FEA8
:102A8000214604F01DFD04462846049DD5F8141186
:102A900004F01EFE214604F013FDD5F8281104466B
:102AA000304604F015FE214604F00AFD40F6585E5B
:102AB000C1F2000E0746D5F8B4110C98DEF8584064
:102AC00004F006FE0146204604F0FAFCD5F8A011F9
:102AD00000F1004004F0FCFD0446D5F88C0151469D
:102AE00000F1004004F0F4FD214604F0E9FC044646
:102AF00040F65850C1F20000036B059D21462B6241
:102B00008268079D836D2A62099D40462B6204F00E
:102B1000D5FC40F2346EC1F2000E0646CEF80060DD
:102B20003946204604F0CAFC40F68C42C1F200024D
:102B300005461560214608F1004004F0BFFC40F650
:102B40004813C1F200038146C3F80090214638467D
:102B500004F0B6FC049F40F6884ED7F8EC45C1F26D
:102B6000000E8046CEF8008021464FF07E5004F0E3
:102B7000A5FC074640F29860C1F2000001682046BB
:102B800004F0A6FD39468246304604F0A1FD014618
:102B9000504604F095FC40F6F05240F2986EC1F2B7
:102BA000000E0346C1F20002CEF800301168204644
:102BB00004F08EFD39468246284604F089FD014620
:102BC000504604F07DFCA24E40F6F052C1F20002E5
:102BD000034613603168204604F07AFD3946824688
:102BE000484604F075FD0146504604F069FC994DD5
:102BF000034633602968204604F06AFD39460446DE
:102C0000404604F065FD0146204604F059FC40F2C0
:102C1000B463C1F20003D3F800808F4C2860B8F190
:102C2000000F2DD10A9F3888109FB7F900308B4FC5
:102C3000C01A04F0F9FC089AD7F8009040F2B06E80
:102C4000C1F2000E0023D4F80CA44946CEF80000CF
:102C5000D361069004F032FC514604F0F5FE68B1F1
:102C6000D4F8DC014FF07E5104F0C6FE30B1484686
:102C7000514604F025FC7A4B06901860069C3C6097
:102C8000049F089CD7F844A32068514604F0DCFE5A
:102C9000744B002800F0A485B8F1000F40F0A08527
:102CA00040F2B4670122C1F200073A606E49069F04
:102CB00000240F60DC6190460A9F388804F0B0FC65
:102CC000DDF840E00746BEF9000004F0ADFC014627
:102CD000384604F0F3FB0699834604F0EFFB814687
:102CE0000498D0F834744846394604F0ADFE28B94B
:102CF00007F10041484604F089FEE8B15B4F049AB1
:102D0000069B0021D2F8E403C4F2C8313C60BB60EA
:102D1000C7F804B004F090FD034601463B61484605
:102D200004F0D6FC0146204604F0CAFBDDF820E0A2
:102D30000446CEF81C00F86004982146D0F82C72A6
:102D400007F10049484604F07FFE18B1089CC4F81A
:102D50001C904C463846214604F058FE10B1089CA1
:102D6000E7613C462146504604F0AAFBDDF848E006
:102D7000089ADEF8007004464FF0000938464946CC
:102D8000D46004F061FE50B13846049FD7F8581360
:102D900004F03CFE18B1B8F1010F00F02087344A6E
:102DA000344B0C9200221A60089B20461F6839465B
:102DB00004F084FBDDF820E00446DEF80410CEF8D1
:102DC0000840384604F07AFB049F8146D7F8301358
:102DD000089FB869C7F8149004F07AFC01462046B1
:102DE00004F06EFB0899DDF844E007468F61DEF8D9
:102DF000000004F015FC049AD2F8481404F01AFEFE
:102E0000002800F09D8440F2B063C1F2000300216D
:102E10001868C4F2483104F017FE002800F09084CE
:102E2000154C0D4B2068D3F8201404F047FB0746DF
:102E30002060DDF810E04FF07E51DEF8DC412046E6
:102E400004F0DAFDD0B1B8F1010F00F0B78515E05C
:102E5000240700109C0B001000000010580C0010FC
:102E6000B0060010C80600101C0E0010F00500107F
:102E7000340C00106C090010AC060010002720462E
:102E8000394604F0B9FD002800F0A185049C3946BC
:102E9000D4F85C0404F0B0FD002840F0B9850A9F26
:102EA000109CB7F80080B4F90030C3EB08080C9F01
:102EB0003C68002C40F06D8540F2B06EC1F2000E0F
:102EC000DEF800704FF000093846494604F09EFDD8
:102ED000002800F06C85AE4B0694C3F800904F4676
:102EE00040F29863C1F20003186804F0B7FD069938
:102EF00000B2401800F5617004F096FBA54B40F657
:102F0000F052C1F200028246C3F800A0106804F03B
:102F1000A5FD069B00B2C01800F5617004F084FBAB
:102F20009D4B8146C3F80090306804F097FD0699E8
:102F300000B2401800F5617004F076FB974B8346B1
:102F4000C3F800B0286804F089FD069A00B2801822
:102F500000F5617004F068FB914AB8F1310F034647
:102F6000106040F3BC84002C40F03B858D4A126811
:102F7000192A00F23685149D2A68002A00F08D80F7
:102F80000024C4F2874438462146039304F05CFDD4
:102F9000039B20B140F2B067C1F200073C604FF4E0
:102FA00080415046C4F20351039304F04DFD40F6B6
:102FB0003402039B154688B94FF4C0415046C4F211
:102FC000864104F023FD40F23342039B154628B9A5
:102FD000504604F069FD039B85B22A46724C4FF4BB
:102FE000804122800D9C48462580C4F20351039302
:102FF00004F02AFD40F63402039B154688B94FF4CD
:10300000C0414846C4F2864104F000FD40F233421C
:10301000039B154628B9484604F046FD039B85B23C
:103020002A46624C0D9F4FF4804122807D80584695
:10303000C4F20351039304F007FD40F63402039BEE
:10304000154688B94FF4C0415846C4F2864104F091
:10305000DDFC40F23342039B154628B9584604F084
:1030600023FD039B85B22A46514C4FF480412280B8
:103070000D9C1846A580C4F20351039304F0E4FCB0
:10308000039B002800F0F88540F634031A460D9D96
:103090000127EA80474AAF8113804CF6C230C4F260
:1030A000160001F0E5FB0E9C216804F011FB0446BC
:1030B00040F65270C3F6497001F0DAFB0F9D2968A3
:1030C00004F006FB0146204604F0F8F9044640F6F9
:1030D0005270C3F6497001F0CBFB0E9F396804F0C3
:1030E000F7FA05464CF6C230C4F2160001F0C0FBF8
:1030F000049F8046D7F89C0503F09EFEDDF83CE077
:1031000006460F464046DEF8001004F0E1FA01469C
:10311000284604F0D5F9049DD5F8B01504F0D8FA86
:1031200003F08AFE18A3D3E9002304F003F8024653
:103130000B463046394603F021FD04F06BF9049D3F
:103140000646D5F8C4550146284604F05FFC00B990
:103150003546049F2946D7F8D865304604F074FCFC
:1031600000B92E46304604F09FFC134A049D0D9F83
:10317000034681B23B811180D5F8380503F05CFE2F
:103180000F461BE0AFF30080182D4454FB2109408B
:10319000B0060010280C0010800600103806001041
:1031A0008C060010AC0B0010560E0010EC12001034
:1031B0004E0E0010CA100010101300100646D5F86D
:1031C0004C15204604F084FA03F036FEA0A3D3E9A0
:1031D000002303F0AFFF02460B463046394603F0AA
:1031E000CDFC139F0D463968049F0446D7F8880527
:1031F00004F06EFA03F020FE02460B4620462946F4
:1032000003F0BCFC04F006F9D7F86045054601461A
:10321000204604F0FBFB08B9049F2C46D7F87455F0
:103220002146284604F010FC00B92546284604F043
:103230003BFC8F4B0D9C82B21A80608117B0BDE8B9
:10324000F08F3946304601F02BFA014604F038F988
:10325000884D40F6DB73884C884FC3F6C9732B60EA
:1032600000230B940E950F9720603B60FEF776BE0F
:103270004FF0000EA3F800E0FDF72AFD804803F0B0
:1032800043F9804B1A68002800F0A2810A2A01D96C
:103290000A3A1A607A4C7C490A940A9F0A9DDDF822
:1032A00028E07A4B7F880868EE882A8924886D890F
:1032B000BEF804E05F80012718281C80A3F804E012
:1032C000DE801A815D819F8140F25484704C714F81
:1032D00010940497704EB2F5007F336840F2078473
:1032E000012B88BF6D4C40F2EA8402233360B5F5B0
:1032F000007F80F052846A4B6A4D00221A60139559
:1033000069494FF408520020684BC5F2000208706A
:10331000082111601A78664D664F02F0F702149585
:103320001A700D9766E1606E716A04F0D1F920663B
:10333000FEF7FBBE48A3D3E900232046294603F04D
:103340001BFC04F067F8099C03466360E06903F026
:1033500073FD41A3D3E9002303F00EFC04F05AF8F7
:10336000E061FEF7D3BF544D0B9C2868216804F040
:10337000A5F803F061FD3AA3D3E9002303F0FEFBB7
:1033800039A3D3E9002303F0F9FB04F043F801F07B
:103390006FFA059C616804F09BF9DDF82CE00446A7
:1033A000DEF80010286804F089F803F045FD2EA32C
:1033B000D3E9002303F0E2FB04F02CF801F058FA03
:1033C000079A516804F084F90146204604F076F823
:1033D0000B9B04461968286804F070F803F02CFD74
:1033E00021A3D3E9002303F0C9FB04F013F801F093
:1033F0003FFADDF814E0DEF8041004F069F906463F
:103400000B980168286804F059F803F015FD14A31F
:10341000D3E9002303F0B2FB13A3D3E9002303F0A5
:10342000ADFB03F0F7FF01F023FA079D696804F094
:103430004FF90146304604F043F83F6806460697C8
:103440000B9FD7F80080049FFFF7C9B9AFF3008046
:10345000182D4454FB210940182D4454FB211940D8
:10346000182D4454FB21F93F182D4454FB21E93F0A
:10347000500E0010600C0010C00B00106006001011
:10348000840B0010AC0B0010100E00109C060010F6
:103490003C06001000000010E00C00107406001044
:1034A00014070010B8060010640C0010F41200108D
:1034B000080E0010FC0B00101C070010B44B4FF05E
:1034C000000E1968A4F818E03046D9F800B003934C
:1034D00003F0F6FF024640F61C40D8F884A4C1F27F
:1034E00000000168AB4C5846029203F0E9FF5146D8
:1034F000069404F0EDF8029A40F61C4EC1F2000E5C
:103500000446CEF800405146104604F0E1F80C9015
:10351000039B0C9A06981A600168384603F0D0FFA6
:10352000D8F8E81404F0D4F8069A40F6244E03467E
:10353000C1F2000EDEF800101360584603F0BEFF23
:10354000954B8246C3F800A0DFF8908240F62443F2
:10355000C1F20003D8F80010C3F800B0304603F001
:10356000ADFF8E4B834640F6983E8D48C1F2000E6B
:10357000DEF800101590C3F800B03846C8F80060B7
:1035800003F09CFF159940F69832C1F200020860E2
:103590001760FEF721BF2846002104F055FA0028E5
:1035A0003EF4A5AE2846394603F08AFF7060FEF768
:1035B000A0BE3046002104F047FA00283EF47FAE5A
:1035C0003046394603F07CFFC9F80400FEF77BBEA5
:1035D0000132322A1A6000F25D82724D724F1095EC
:1035E000724D734C04971395724F734D0A94734C3C
:1035F00014970D9502F0FCFA03F00CFC62A3D3E9DA
:10360000002303F06DFC03F005FF6D4F05463D60A0
:103610000021129704F018FA6A4F1197002800F061
:103620000C82049F0023D7F8D003119F00213B6038
:10363000C4F2C83104F000F90021C4F2962104F06C
:10364000FBF8614E804637682846394603F036FF5E
:10365000414604F0F9F940B12846414603F030FFF5
:10366000DDF848E00546CEF800002946384603F06C
:1036700025FF0146404604F0C9F930B128464146CD
:1036800003F01CFF05461298056004993846D1F8EE
:103690003880414604F01CF84C4A074641464FF03A
:1036A0007E50089203F00AFF294604F011F8014603
:1036B000384603F005FF089D30602B6828606B607A
:1036C0004FF44043C4F201035A6841F6B501C2F316
:1036D0000B1201FB02F29212A2801A6822F0FF0282
:1036E0001A601A6842F0807242F080021A60FEF797
:1036F00068BA4B88A3F5A67292B2B2F5957F00F234
:1037000093828B88B3F51E7FC0F0C882304B0026B1
:103710001A68511CB2F5C87F196040F2CB820022B2
:103720001A603446FDF792F92A4F40F2B065C1F2B3
:10373000000505972D680B9F0695D7F8008094E249
:10374000DDF810E04846DEF8081301F1004103F00F
:10375000BFFF81462046049CD4F8F41203F0B8FF62
:103760000146484603F0ACFE04463846049FD7F8AD
:103770001C1303F0ADFF0146204603F0A1FE164BDB
:1037800007461860FFF755BBC3F5285C8FC2C53FDD
:10379000100D0010680C0010E00D0010280600103D
:1037A000480600103C06001000000010B80600108B
:1037B000840B0010080E0010FC0B001074060010A3
:1037C000DC0D0010000E001028070010C8060010C5
:1037D00094060010E40C0010AC060010D80D001088
:1037E000DC69A54B1B680693FFF766BA304639467D
:1037F0009BA3D3E9002303F0E5FD00283FF456A87E
:1038000099A3D3E900233046394603F0B7F903F012
:1038100001FE0446284603F00FFB95A3D3E90023DD
:1038200006460F4603F0ECFD00287FF44CA8304616
:1038300039468BA3D3E9002303F0C4FD00283FF4ED
:103840004CA889A3D3E900233046394603F096F902
:1038500003F0E0FD0546504603F0EEFA84A3D3E9F9
:10386000002306460F4603F0CBFD00287FF442A854
:10387000304639467AA3D3E9002303F0A3FD00289C
:103880003FF442A878A3D3E900233046394603F039
:1038900075F903F0BFFD00218246C4F2AF310698EE
:1038A00004F0D2F800287FF459A80021C4F2A00146
:1038B000204603F0C1FF059FB96A03F001FE002115
:1038C000C4F2A0010746284603F0B6FFDDF81CE06D
:1038D000DEF8281003F0F4FD0646FFF74DB8059C0E
:1038E000079F0023A362BB62089C40F2B067C1F24D
:1038F0000007A3613B60E361604B00221A6040F265
:10390000B46E0C9BC1F2000ECEF800201A600B9C26
:10391000149F23683A68099C03F100436360E361E4
:103920004AB1574B4FF461771F80564B1F80564B5F
:103930001F80564B1F804FF461710A460D9C61F346
:103940001F4162F31F4284E8060040F2346740F6EC
:103950008C4E40F6481040F6884140F2986240F69E
:10396000F0540023C1F20007C1F2000EC1F20000C2
:10397000C1F20001C1F20002C1F200043B60CEF8C6
:10398000003003600B601360236033602B60FFF72F
:1039900084BB40F2B060089940F2B4620027C1F2E3
:1039A00000000023C1F200020760CF6113603846B7
:1039B00004F054F800B20690FFF792BA3946069820
:1039C00003F07EFD40F2B061C1F2000108600A9C84
:1039D000109FB4F80080B7F90030C3EB0808FFF778
:1039E00066BA059F0023BB62079C089F40F2B06E39
:1039F000C1F2000EA362BB61CEF80030FB6140F261
:103A0000B4601E4B0022C1F2000002601A607EE723
:103A10000A9CB4F80080109CB4F90030C3EB08088D
:103A2000404603F001FE40F2B06E089CC1F2000E69
:103A3000CEF80000E761FFF73ABA049FD7F8485480
:103A4000119F3B68013318463B6003F0E9FD2946AE
:103A500003F0FAFF002840F0BA800D4D08952FE6DC
:103A6000182D4454FB2109C0182D4454FB21194042
:103A7000182D4454FB2109401C0E0010DC0B0010D3
:103A8000560E0010EC1200104E0E0010CA1000105E
:103A9000C8060010A84F32213A68149719606AB11D
:103AA000A64B4FF4617EA3F800E0A54BA3F800E01D
:103AB000A44BA3F800E0A44BA3F800E0A34CA44F50
:103AC0000D944FF461721346A24D10970D9F62F34F
:103AD0001F4263F31F43A04C87E80C000A959F4BDD
:103AE0009F4D0222049413959E4C1A7082E5A3F117
:103AF00002014A4242EB0102002B14BF134642F07E
:103B00000103002B31D0049C4FF07E57D4F804827F
:103B10003946404603F070FFDFF83C92002800F081
:103B2000F680904CC9F8C871238843F004032380C1
:103B300040464FF0814103F05FFFB8B10A9F2388F0
:103B40007D89049F43F010034FF07E52C7F85C2438
:103B500023800BE000214046C4F2400103F04CFFFB
:103B6000804C0028E4D0C9F8F0717E4C012333600A
:103B7000FFF7BDBB764F7C4BB2F5007F3C80764CA7
:103B80001E8094BF4FF07E530023013010970494A1
:103B9000C4F8C8310860FFF79DBB744D704F2B68A7
:103BA000139783B94FF07E51386803F089FC0021E8
:103BB0000346C4F2C0013B6003F046FF18B1002386
:103BC000CCF2C0033B6001232B60FFF799BB284672
:103BD00003F06AFF664F119D0897286070E5654AFB
:103BE000136801331846136003F01AFD5A4BD3F8DB
:103BF000F81303F029FF80B35F4B40F2B467C3F8BA
:103C000000800C935A4B40F2B06EC3F81C905B4B93
:103C10000022C1F20007C1F2000E3A60CEF8009017
:103C20001A609046FFF7C0B88A88A2F5A67292B2D1
:103C3000B2F5957F15D8B3F51E7FC0F0A980504B23
:103C40001A68511CB2F5C87F196000F2D2800B9F30
:103C50000026D7F80080FEF77EBA474A0C92FFF79D
:103C6000A3B8484F002605973446474F474D09975C
:103C70000795049FFEF7B3BD4FF4C0411846C4F248
:103C8000864103F0C3FE039B002840F09180184654
:103C900003F00AFF82B21346FFF7F9B9B3F5A57F27
:103CA00045D8374B00261A68511CB2F5C87F1960F9
:103CB00000F2C9800B9CD4F80080FEF74CBA049C3B
:103CC0004FF07E51D4F80472DFF88C80384603F050
:103CD00093FE002871D0234C00222388C8F8C82105
:103CE00023F00403238038464FF0814103F084FE23
:103CF00000283FF4FAAA0A9F23887D89049F23F0B5
:103D000010030022C7F85C242380FFF7EEBA404678
:103D10004FF0804103F070FE00283FF41BAF114CC0
:103D2000C9F8DC71238843F0080323801EE7144B95
:103D3000002200261A60BDE7080E0010560E001083
:103D4000EC1200104E0E0010CA100010FC0B0010F8
:103D50003C060010840B001000000010640C0010E2
:103D6000B806001074060010F006001014070010CA
:103D7000C80600106C090010340C0010DC0B001099
:103D800094060010E40C0010A80C0010140D001094
:103D9000B3F5A57F22D8394B00261A68511CB2F51D
:103DA000C87F196055D80B9FD7F80080FEF7D3B9AC
:103DB00040F233431A46FFF76AB938464FF0804164
:103DC00003F01AFE00284AD02D4C00222388C8F8A0
:103DD000DC2123F008032380FFF787BA294C2A4F00
:103DE0002A4D00260594099707953446049FFEF74F
:103DF000F6BC149F00213A68196012B90620FCF73E
:103E0000B3FC40F6585EC1F2000EDEF80C30049CA4
:103E1000DEF83420DEF85C101A4D40F2B067C4F8CA
:103E20006C33C4F88023C4F89413C1F20007FDF783
:103E300099FC05953F680B9D002634460697D5F8FA
:103E40000080FEF78BB900221A603446FCF758FA5E
:103E50006AE400221A603446FDF7D2FC64E40021D3
:103E60003846C4F2400103F0C7FD054C00283FF47A
:103E70003AAF0023C8F8F031FFF737BA94060010C4
:103E800074060010E40C0010A80C0010140D0010B3
:103E9000B0F5824F2FD00DD944F20123984233D090
:103EA0001AD9B0F5FC4F1DD0B0F5FE4F17D10C223A
:103EB00018490FE0032818D012D940F20113984294
:103EC0001CD0B0F5804F0AD113498B893BB1002239
:103ED0008A81062201F064BDB0F5844F17D0704787
:103EE00078B1704706220D49F4E70D4B00221A8085
:103EF0000C4B1A80704706220B49EBE703220B4953
:103F0000E8E703220A49E5E709220A49E2E70A4904
:103F10000922DFE7F00500109C06001018060010CB
:103F2000C8100010E4120010FC0B00107406001002
:103F30006C0C0010740C0010940C00102DE9F04F64
:103F4000B0F5817F8DB000F0608112D8B0F5807F30
:103F500000F05581B0F5817F5AD040F203139842AA
:103F600000F03A81B0F5807F00F01D810DB0BDE812
:103F7000F08F40F20313984200F04481B0F5FA4FFD
:103F8000E8D1DFF82083002A3CD00B1D984594BF70
:103F90000023012348EA010508F10404A14294BF6B
:103FA0001C4643F0010415F0030F14BF0023012346
:103FB000012A94BF002303F0010323404FEA520C6F
:103FC00083F00103BCF1000F08BF43F001034FEA87
:103FD0004C040E464546002B40F02B8256F8047BDD
:103FE00001339C4545F8047BF8D8944209D065001C
:103FF000491900234544CE5A0134EE520233A242FD
:10400000F9D852000127B0F5817F28F80270A4D1B9
:104010009C4B1B680493002BA8D09B4B93F812A0D9
:10402000DA7CCDF814A0069293F814A05A7DCDF84E
:104030001CA0089293F816A0DA7D5F7B93F811B06C
:10404000CDF824A00A924FF0000A197A587A9C7A87
:10405000DD7A1E7B93F80EC093F80F8093F81090D2
:104060008A4ACDF82CA00297CDF804B092F800A0AF
:104070008A4540F0C88100297AD092F801A0824593
:1040800040F0C181002873D092F802A0A24540F010
:10409000BA81002C6CD092F803A0AA4540F0B381FD
:1040A000002D65D092F804A0B24540F0AC81002EFE
:1040B0005ED092F805A0DDF808B0DA4540F0A381A3
:1040C0005F46002F54D092F806A0E24540F09B8155
:1040D000BCF1000F4CD092F807A0C24540F093818C
:1040E000B8F1000F44D092F808A0CA4540F08B8187
:1040F000B9F1000F3CD092F809A0DDF804B0DA4520
:1041000040F081815F469FB392F80AA0DDF814B0B9
:10411000DA4540F078815F4657B392F80BA0DDF89E
:1041200018B0DA4540F06F815F460FB392F80CA0EB
:10413000DDF81CB0DA4540F066815F46C7B192F801
:104140000DA0DDF820B0DA4540F05D815F467FB11B
:1041500092F80EA0DDF824B0DA4540F054815F46B5
:1041600037B192F80FA0DDF828B0DA4540F04B8166
:10417000474ADDF82C9058889C8840F2000A136862
:10418000DDF810B009EB8901C1F2000A0AEB8101E8
:1041900040EA04405B45086180F02C814B4524BF18
:1041A00049461160E2E63B4C23880B2B30D04C2B68
:1041B0007FF4DCAE6388A28843EA0243F62B7FF4E7
:1041C000D5AE0390FCF79CF80398214603220DB06E
:1041D000BDE8F04F01F0E4BB2F4D4FF000092C88F3
:1041E000A5F81490022C2CD0032C00F0EE80012CAA
:1041F0003ED0274A00231360284A1370B6E6DFF842
:104200009480C0E6DFF89080BDE6DFF87C80BAE6F7
:104210006388180600F1F480FCF772F863881B4984
:1042200013F0080F1E4B18BF4FF07E501A8812BFB4
:1042300042F0100222F010020020C1F85C041A8043
:1042400094E6FDF78FFA1349F5224FF0010AA5F81D
:1042500014A04FF04C0B4A8000234FF480700322CF
:10426000A1F800B08B800DB0BDE8F04F01F098BB15
:104270006B884FF6FF72934216D0054A1360074BC6
:104280001C7073E60C0E0010E00B00100000001014
:1042900054060010140E0010C40B00108406001009
:1042A000740600103C0C0010634BD3F80090B9F179
:1042B000000F3FF45BAE614B614A197A0B929A7C16
:1042C000587A0492DA7C9C7A05921A7DDD7A0692FD
:1042D0005A7D1E7B5F7B93F80E8093F80FC093F896
:1042E00010A093F811B007929A7DDB7D08920A9393
:1042F00000230B9A0993CDF82C9013788B4240F051
:104300008E8000295AD05378834240F0888000285C
:1043100054D09378A34240F08280002C4ED0D378C2
:10432000AB427CD1002D49D01379B34277D1002E16
:1043300044D05379BB4272D1002F3FD0937943458B
:104340006DD1B8F1000F39D0D379634567D1BCF195
:10435000000F33D0137A534561D1BAF1000F2DD03D
:10436000537A5B455BD1BBF1000F27D0937ADDF820
:1043700010904B4553D14B4603B3D37ADDF81490DC
:104380004B454CD14B46CBB1137BDDF818904B45D8
:1043900045D14B4693B1537BDDF81C904B453ED144
:1043A0004B465BB1937BDDF820904B4537D14B46B4
:1043B00023B1D37BDDF828904B4530D1214B0999AF
:1043C00001221960204B1A70D0E5FCF77DFF1F49D0
:1043D00001264C274FF0F5094FF0000AAE820F80FE
:1043E000A1F80290A1F804A022464FF4807001F0D9
:1043F000D7FAFEE6144BC2F8009001221A70B5E518
:10440000FCF724FB0AE7DDF82CB0049F0BF1010B4D
:104410001432BB45CDF82CB07FF428AEA6E5099B3D
:10442000DDF82C90013314324B4509937FF465AFCE
:104430009CE50024DBE500BF0C0E0010E00B001033
:10444000000000105406001084060010140E001026
:104450004FF40A53C5F2000380221A60704700BF70
:104460004FF40453C5F200031B68DB0202D5064B70
:1044700001221A70054A4FF4085300211170C5F249
:10448000000380221A607047610E0010540E001065
:10449000264A4FF400431288C4F2010392B210B4CA
:1044A0005A62234A128892B2DA61224A128892B280
:1044B0009A61214A1188214A89B219621378591CDC
:1044C000C9B2042B117016D91D494FF480430988D5
:1044D000C4F2010389B259621A4908884FF6F07193
:1044E00080B2D861D86B0140D963D96B41F00A0121
:1044F000D963002313704FF40043C4F20103D96B56
:104500004FF6F0720A40DA63DC6B4FF48041002210
:10451000C4F20101012044F00F04DC634A608A60A8
:1045200048605A609A60586010BC70474E0E001088
:10453000EC120010560E0010CA100010F7120010F6
:1045400010130010500E001030B4134B1A7811469F
:10455000DAB9124C01232080114C2370114C2478BD
:104560008CB141F66314A04212D90F4D4FF4085498
:1045700000202A70C4F20100C5F2000480222260EB
:1045800041608160436030BC704700221A70FAE7D6
:10459000054A1370F7E700BF610E0010C410001049
:1045A0004D0E00105F0E0010540E0010094A1378D3
:1045B00073B1002319464FF408501170C5F2000082
:1045C00080220260C4F201030122596099605A609E
:1045D000704700BF540E001010B540308AB03D2423
:1045E0004FF400430290039101940492C4F2040337
:1045F0001A6F4FF4CA53C0F2010342F6E06102F0B1
:104600000302032A14BF0A461A4641F6F1730592C3
:10461000C1F6FF7301A806A998470AB010BD00BFF4
:1046200010B540308AB03E244FF40043029003910D
:1046300001940492C4F204031A6F4FF4CA53C0F2F7
:10464000010342F6E06102F00302032A14BF0A46A6
:104650001A4641F6F1730592C1F6FF7301A806A947
:1046600098470AB010BD00BF10B545F6DF14C5F677
:104670003774A4EB60044FF07C5103F029F8214615
:1046800003F026F8214603F023F801464FF07F504F
:1046900002F014FF214603F01BF810BD00000000DB
:1046A00070B50D4604460021284603F0A5F9A0B1D7
:1046B0002046002103F0C8F940F6DB76C3F6C97640
:1046C00048B92046002103F097F9002618B940F6B2
:1046D000DB76CBF6C976304670BD2946204603F01E
:1046E000ABF8064602F040FA4FF07E5103F08EF927
:1046F00048B345F629413046C3F68F6102F0E8FF22
:10470000314602F0E5FF4FF07E5102F0D9FE01463E
:10471000304603F091F800210646284603F076F96A
:104720000028D8D02046002103F070F958BB30464D
:1047300002F082FB1AA3D3E9002302F01FFA02F071
:1047400069FE0646C7E73146304602F0C1FF45F62E
:104750002941C3F68F6102F0B3FE0146304603F0F3
:104760006BF802F069FB02460B460FA1D1E900018C
:1047700002F002FA02F04EFE00210646204603F047
:1047800045F90028A7D0304602F056FB04A3D3E930
:10479000002302F0F1F902F03DFE06469BE700BF60
:1047A000182D4454FB210940182D4454FB21F93F96
:1047B000F8B5044602F0D8F9054601464FF07E50A0
:1047C00002F07CFE46F630610746C3F69941284662
:1047D00002F07EFF014641F22760C3F6985002F0D6
:1047E0006DFE294602F074FF43F28441C3F659611D
:1047F00002F064FE294602F06BFF40F6A451C3F6B6
:10480000C97102F05DFE4FF07C510546384602F05A
:104810005FFF45F6DF16C5F63776A6EB670601465D
:10482000304602F055FF0146304602F051FF014686
:104830004FF07F5002F042FE0146304602F048FF42
:104840000146284602F0F8FF02F0F6FA02460B464F
:1048500005A1D1E9000102F08FF902F0DBFD21464C
:10486000BDE8F84002F07AB9182D4454FB21F93F15
:10487000F8B508E030A3D3E900233046394602F00A
:104880007BF902F0C7FD044602F0D6FA2CA3D3E967
:10489000002306460F4602F0B3FD0028EAD1304659
:1048A000394629A3D3E9002302F08CFDB0B122A33D
:1048B000D3E900233046394602F060F902F0AAFD40
:1048C000044602F0B9FA20A3D3E9002306460F46B6
:1048D0003046394602F076FD0028E8D1204602F045
:1048E00043F94FF683110646C3F6A271204602F043
:1048F000EFFE48F27B110546CBF6CF61204602F071
:10490000E7FE314602F0E4FE0146284602F0D8FDFB
:10491000044602F029F9214602F0DAFE214602F0AF
:10492000CDFD46F26661C3F6666102F0D1FE214616
:1049300002F0C6FDF8BD00BF182D4454FB211940FC
:10494000182D4454FB210940182D4454FB2109C063
:10495000F8B502F071FA34A3D3E9002302F00EF99E
:1049600006E033A3D3E900233046394602F004F9C8
:1049700002F050FD044602F05FFA2FA3D3E90023B2
:1049800006460F4602F03CFD0028EAD13046394683
:104990002BA3D3E9002302F015FDB0B124A3D3E982
:1049A00000233046394602F0E9F802F033FD0446B0
:1049B00002F042FA22A3D3E9002306460F4630460E
:1049C000394602F0FFFC0028E8D1204602F0CCF87E
:1049D0004FF683110646C3F6A271204602F078FE18
:1049E00048F27B110546CBF6CF61204602F070FEFF
:1049F000314602F06DFE0146284602F061FD044694
:104A000002F0B2F80146204602F062FE214602F0B2
:104A100055FD46F26661C3F6666102F059FE014635
:104A2000204602F04DFDF8BD182D4454FB21F93FFE
:104A3000182D4454FB211940182D4454FB210940E2
:104A4000182D4454FB2109C04EF21003CEF200038E
:104A50001B6882B013F0010312D04FF47A7303FB8A
:104A600000F044F6D353C1F26203A3FB00231F4AB4
:104A700000211160990913688B42FCD302B0704782
:104A80004FF40042C4F20402126F019302F00302D9
:104A9000032A019A14D09042F0D940F2E7310093F2
:104AA000009A8A4205D8009A01320092009A8A42FE
:104AB000F9D9019A01320192019A9042EFD8DDE7CB
:104AC0009042DBD941F26F710093009A8A4205D877
:104AD000009A01320092009A8A42F9D9019A013271
:104AE0000192019A9042EFD8C8E700BF0C13001062
:104AF0004FF40043C4F204031B6F03F00303032BC2
:104B000008BF41F63F114EF210030BBFCEF2000377
:104B1000CEF200034FF46D424FF46D420CBFC0F271
:104B2000010142F6DF6159600CBFCEF20002CEF205
:104B300000020021996007211960102382F82330B8
:104B4000014B00221A6070470C1300100A4A08B586
:104B500011680A4B013111601A6812B11A68013AE2
:104B60001A60074B0BB1FBF749FC064B1BB1BDE8C4
:104B70000840AFF3008008BD0C130010640E001055
:104B8000FD0300000000000008B50A4B00221A7067
:104B9000094B0BB1AFF300804FF040231A6822F0AD
:104BA00004021A6001221A60AA229A6055229A60B1
:104BB00008BD00BFEA120010000000004FF40043DF
:104BC000C4F204031B6F03F00303032B18BF42F668
:104BD000E0630AD145F2D422CEF604124FF4CA5350
:104BE000904228BF1046C0F20103A0FB03014FF41E
:104BF0008043C4F206030222186019619A60996822
:104C0000002241F001019960DA60DA6198684FF49E
:104C1000614240F008009860CEF200024FF48051EB
:104C20004023C2F8801182F80C331160704700BF36
:104C300008B5064B0BB1FBF777FC4FF48043C4F289
:104C400006039A6842F001029A6008BD2905000037
:104C500044F2040344F2640210B463F31F430121DD
:104C60009024C4F20402014218BF43F8044C0433F8
:104C700093424FEA4101F6D1C30705D54FF4804373
:104C8000C4F2040391221A60410505D54FF4804314
:104C9000C4F2040391229A62020505D54FF48043C1
:104CA000C4F204039122DA62C30405D54FF48043B1
:104CB000C4F2040391221A63810405D54FF48043A2
:104CC000C4F2040391225A63420405D54FF4804391
:104CD000C4F2040391229A63030405D54FF4804380
:104CE000C4F204039122DA634FF40053C5F20003C7
:104CF0001A6822EA0000186010BC704744F264038E
:104D000044F2E40210B4C4F2040301219024C4F27A
:104D10000402014218BF43F8044C043393424FEAA3
:104D20004101F6D14FF40053C5F200035A6822EA5C
:104D30000000586010BC70472DE9F00F5C4CDFF8A4
:104D400088B1914640F668620025C1F200022570E4
:104D50008BF800501560574A1560574A1360574A40
:104D6000116003B10131002933D0554F10F0030F0A
:104D700007F1040214BF00260126051D904294BFCE
:104D800000220122BD4238BF42F00102032994BF34
:104D9000002606F0010616404FEA910A86F0010649
:104DA000BAF1000F08BF46F001064FEA8A05002E4F
:104DB0007CD18046BC4658F8042B013656454CF849
:104DC000042BF8D3A94204D0425DEA550135A9422B
:104DD000FAD84FF080422021116040F2011201E028
:104DE000013A52D021780129FAD19BF80020052AF6
:104DF000FBD14FF080401022082102604FF48072F6
:104E0000816101E0013A02D00168C906FAD4002BA1
:104E100033D02C4A09F1040019F0030FA2F1040762
:104E200014BF00210121B8422CBF00200120914570
:104E300094BF024640F00102032B94BF002101F011
:104E4000010111409E0881F00101002E08BF41F0D0
:104E50000101B200002927D13C46484654F8045BC2
:104E600001318E4240F8045BF8D8934205D0D15D01
:104E700009F8021001329342F9D840F66863C1F292
:104E800000031868BDE8F00F70474FF08040102213
:104E9000082102604FF48072816101E0013AB6D0CE
:104EA0000168C906B3D5F9E70022E0E700258BE7E2
:104EB0004C0E0010F8120010E0120010F01200105A
:104EC0008010001084100010780E001030B44FF0E5
:104ED00080435A68884B1B78002B68D1D3B2083BBB
:104EE000502B79D8DFE813F07D0078007800780047
:104EF00078007800780078009000780078007800DA
:104F00007800780078007800A400780078007800B5
:104F10007800780078007800B40078007800780095
:104F200078007800780078006500780078007800D4
:104F30007800780078007800BE007800780078006B
:104F40007800780078007800C20078007800780057
:104F50007800780078007800CA007800780078003F
:104F60007800780078007800D40078007800780025
:104F70007800780078007800D60078007800780013
:104F8000780078007800780051005C484FF080434A
:104F900001689C684D1C05605948052244545949D4
:104FA0000A7059490A7010221A6008229A6130BCAE
:104FB0007047564B564A196812689142C0F0848077
:104FC000544B1B68002B00F08B8020224FF0804355
:104FD0001A604C4B03221A7008224FF080439A61EA
:104FE000E5E74A4A002313601168454B585C4FF0CF
:104FF000804301319860116020229A61414A012169
:10500000117008229A61D2E73C4B404A0021196096
:1050100011683B4B585C4FF0804301319860116040
:1050200020229A61374A0221117008229A61BEE754
:10503000344B1A78012ACFD1344A31481168445C84
:1050400001314FF080408460116004221A70C3E780
:105050002C4A052313702C4A137008224FF080430A
:105060009A61A4E705224FF0804398E7FF22254B81
:105070001A7008224FF080439A6198E7254B04226A
:105080001B68012B4FF080430CBF9A611A60A3E7A5
:105090000522ECE7194B4FF0804219689568481CCF
:1050A000186018681B4B01301B68154C98426554FA
:1050B00004D2144904230B7013608DE7114B0521B2
:1050C00019700423936187E71A680D49885C0132DF
:1050D0004FF0804188601A600A4B04221A707BE707
:1050E000084B04221A70084B05221A7010224FF048
:1050F00080431A6070E700BF5E0E0010680E00105B
:10510000801000104C0E0010780E0010F8120010E5
:10511000F0120010E012001038B54FF40043C4F252
:10512000040359684FF4804221F001015960596825
:10513000C4F2040241F001015960D3F8804001211A
:1051400044F40064C3F880400223116204465162B3
:1051500004209362FFF77CFD4FF40053C5F2000377
:105160001A68002142F004021A60C4F20401CA68FD
:105170000023D006C4F20403F9D44FF40851C5F259
:1051800000014FF4004204200860C4F204020F2121
:1051900001251960C2F894509968996899689968CE
:1051A00099689968996899689968996899689968F7
:1051B0009968996899689968CCB94FF48042C4F2AB
:1051C0000402956006225A615C60586058684FF48A
:1051D000614240F002005860CEF200024FF48011AC
:1051E0002023C2F8801182F81433116038BD136F88
:1051F00003F00303032B18D0630803F53A5360331D
:1052000093FBF4F4FE2C19D8012C88BF04F0FE04A3
:1052100000D802240023C4F2040300221C615A6057
:105220005A6842F002025A6038BD34FA05F303F5B9
:105230008C3303F5A07393FBF4F4E3E7FE24E9E772
:105240000E4B10B593B14FF40044C4F2050403E0D3
:10525000A06880B2AFF30080E3685807F8D44FF439
:105260000043C4F2050303221A6210BD4FF4004349
:10527000C4F20503DA685207FCD4F0E7000000002E
:1052800070B44FF40044C4F20404D4F880604FF4C6
:105290004043C4F20003002246F08006C4F8806058
:1052A0004FF46141D8605A619A62DA631A675A67AB
:1052B00001225A60CEF200014FF480354023C1F83C
:1052C000805181F810330D6070BC704710B44B06EC
:1052D0004FF44043C4F2000398615A6948BF41F05B
:1052E000010122F007025A61DA6B01F0070022F097
:1052F0003002DA635A6F22F001025A675A69024398
:1053000011F030005A610ED0DC6B4FF48042204324
:10531000C4F20402D86302201062CA0610D5DA6B08
:1053200042F00102DA63090741BF4FF44043C4F27F
:1053300000035A6F42F0010248BF5A6710BC704721
:10534000880642BFDA6B22F00102DA63EBE700BFA6
:1053500010B54FF44043C4F200031C681A4A04F02D
:105360001F0422B1186800F01F00AFF30080E107AE
:1053700003D5164B0BB1FCF707FCA20703D5144B62
:105380000BB1AFF30080630703D5124B0BB1AFF342
:105390000080200703D5104B0BB1AFF30080E1066E
:1053A00009D50E4B3BB14FF44043C4F20003D86A19
:1053B00080B2AFF300804FF44043C4F200031C609E
:1053C00000BF00BF10BD00BF00000000891B00002F
:1053D00000000000000000000000000000000000CD
:1053E00010B50023C4F201031C68194A04F01F041D
:1053F00022B1186800F01F00AFF30080E00703D56A
:10540000144B0BB1FFF724F8A10703D5124B0BB1D6
:10541000FFF7CCF8620703D5104B0BB1AFF3008058
:10542000230703D50E4B0BB1FFF71AF8E00608D59A
:105430000C4B33B10023C4F20103D86A80B2FFF7EA
:1054400083F80023C4F201031C6000BF00BF10BD3D
:105450000000000051440000AD45000000000000C5
:10546000614400004945000010B54FF48043C4F288
:1054700001031C68194A04F01F0422B1186800F0E7
:105480001F00AFF30080E30703D5154B0BB1FEF708
:10549000FFFFA00703D5134B0BB1AFF300806107EB
:1054A00003D5114B0BB1AFF30080220703D50F4B8F
:1054B0000BB1AFF30080E30608D50D4B33B14FF4C9
:1054C0008043C4F20103D86AAFF300804FF48043F5
:1054D000C4F201031C6000BF00BF10BD000000004B
:1054E00091440000000000000000000000000000E7
:1054F0000000000010B54FF40043C4F201031C6823
:10550000184B04F01F0413B1E0B2AFF30080E207C0
:1055100003D5154B0BB1AFF30080A30703D5134B95
:105520000BB1AFF30080600703D5114B0BB1AFF3A4
:105530000080210703D50F4B0BB1AFF30080E206CB
:1055400008D50D4B33B14FF40043C4F20103D86AC0
:10555000AFF300804FF40043C4F201031C6000BFAE
:1055600000BF10BD000000000000000000000000AF
:10557000000000000000000000000000002865D0CE
:10558000C30705D54FF48043C4F204030222DA6254
:10559000810705D54FF48043C4F2040302221A6345
:1055A000420705D54FF48043C4F2040302225A6334
:1055B000030705D54FF48043C4F2040302229A6323
:1055C000C10605D54FF48043C4F204030222DA6316
:1055D000820605D54FF48043C4F2040301221A6405
:1055E000430605D54FF48043C4F2040301229A65B3
:1055F00001062CD44FF40043C4F20403D3F88020F6
:1056000042F40052C3F88020D3F8382222F010026E
:10561000C3F838221B6F03F00303032B4FF44043FE
:1056200008BF4FF48062C4F2010318BF00221A6061
:105630004FF44043C4F201031A6822F480021A6056
:105640001A6822F400021A600022DA6070474FF4F0
:105650008043C4F204030122DA65CBE738B5438AFC
:10566000027C9BB29B1A0E2B9FBF418A037C89B29E
:10567000C3EB01014FF4004288BF0F210446856847
:10568000C4F2000259B153699B06FCD5237C013951
:10569000E85C0133DBB2106023740029F3D1227C73
:1056A000638A9BB29A4200D038BD21746182E38C38
:1056B0009BB2002BF8D0E184638A20689BB213B1BF
:1056C0000123E38438BD064BA2681B6802211B68D6
:1056D0005B6C984783B263822046A369984738BDC4
:1056E0006C0E001008B540F66C63C1F200031A6836
:1056F00040F67C631268C1F200031868D3689847CB
:1057000008BD00BF4FF40053C5F200031A6822F031
:1057100002021A6000BF00BF00BF4FF40452C5F27E
:10572000000210681968104A41F0020119601378EC
:10573000C0F3400003F00203DBB253B94FF4085347
:10574000C5F2000302211960137803F0FD03137002
:1057500070474FF40A53C5F2000302211960137811
:105760000B431370704700BFF412001008B5FFF729
:10577000D3FC41F2E823C1F2000300221A7008BDF5
:1057800038B54C4C2378013B052B13D8DFE803F0E8
:1057900019202B4D6B03484B1B889BB2984278D045
:1057A000464B23B1464B188880B2AFF300800023EC
:1057B000237038BD4EF641439842FAD1012323703D
:1057C00038BD41F2BE33984260D00023237038BD0B
:1057D0003C4B3B4A108018801A88374B92B21A8093
:1057E0000323237038BD384A364B10801D88324958
:1057F000401980B2188008881B881B189BB20B8048
:1058000013889BB2FF2B0AD813889BB2002B3AD186
:105810002E4B23B12A4B188880B2FEF739FB0023A8
:1058200023702B4B00221A8038BD294B294D1A8832
:1058300092B2511C89B219801988234B89B21B88F6
:1058400025F812009BB2994201D3052323701D4B0A
:10585000194A1988401880B2188011881B885B1873
:105860009BB2138038BD174B1B889BB298421DD04A
:10587000124B002BA9D0124B188880B2AFF30080D6
:105880000023237038BD04232370CAE7022323704A
:1058900038BD114B002B8AD0094B0E4918880A4B92
:1058A00080B21A8892B2FEF749FB80E70623237084
:1058B00038BD00BFE8120010700E0010000000009C
:1058C000520E0010E61200105C0E0010913E000017
:1058D000580E0010CC1000103D3F00001E4A1F491A
:1058E00000232DE9F003C4F20403DFF874800F46AF
:1058F00016469C460D881488ADB2A4B2A54235BFA9
:105900003C883D88A4B234883DBF358804F5807456
:10591000C5EB0404C4EB0504A4B2C4B1DC6814F004
:10592000020F14D01488A4B2651CADB21580B2F871
:10593000009038F814501FFA89F4FF2C01D9002484
:105940003480DC68A407FCD5CCF80850D2E7BDE869
:10595000F003FFF715BF00BFE4120010C8100010DD
:10596000800E00100D4B10B583B10024C4F2040466
:1059700003E0A06880B2FFF7B1FFE3685B07F8D4EB
:105980000023C4F2040303221A6210BD0023C4F2F0
:105990000403DA685207FCD4F2E700BFDD580000C8
:1059A0002DE9F003504B514C1E882588B6B2ADB29C
:1059B000AE4225881C88ADB280F08880013D2D1B49
:1059C000ADB2941DA54240F388801C88DFF820C149
:1059D000A4B2651CADB21D801D884EF641462CF860
:1059E0001460ACB2FF2C02D93F4C002525801C88E6
:1059F00041F2BE36A4B2651CADB21D801D882CF8E4
:105A00001460ACB2FF2C02D9374C002525801C88CD
:105A1000A4B2651CADB21D801D882CF81400ACB278
:105A2000FF2C02D9304C002626801C88A4B2651CAD
:105A3000ADB21D801D882CF81420ACB2FF2C4ED8BE
:105A40001418A4B2201880B2FAB1DFF89C800025A7
:105A50001E8831F8027BB6B206F101091FFA89F9F6
:105A6000A3F80090B3F800903C19A4B21FFA89F98A
:105A700020180135B9F1FF0F2CF8167080B202D949
:105A80000026A8F800609542E2D31A8892B2511C11
:105A900089B2198019882CF812408AB2FF2A02D9DB
:105AA000114A002111801A8892B2511C89B21980C2
:105AB0001B882CF812009BB20120FF2B03D90A4B44
:105AC00000221A800120BDE8F0037047FF352D1B2E
:105AD000ADB2941DA5423FF778AF0020F3E7024C2A
