:100000000020001061010000FD000000FD00000064
:10001000FD000000FD000000FD00000000000000E9
:10002000000000000000000000000000FD000000D3
:10003000FD00000000000000FD0000005907000066
:100040003D0100003D0100003D0100003D010000B8
:100050003D0100003D0100003D0100003D010000A8
:100060003D0100003D010000000000000000000014
:10007000D107000000000000450B0000B50900009A
:100080006D0B0000010C0000950C0000250D000018
:10009000BD130000A1140000C51100003D010000C7
:1000A0003D010000A90700003D0100003D010000E6
:1000B0003D0100003D0100003D0100000000000086
:1000C000F81800000000001000000000F818000000
:1000D0000040002000000000F81800000000002090
:1000E0000000000000000010180500000040002083
:1000F0000000000000000020000000000B4B502218
:100100005A60DA600A4B0B491A6842F00A021A6018
:100110006FF00A02C3F880200222C3F880210A226D
:10012000054B0A6000BF013BFCD1F9E700400440E9
:10013000002000500023005020A10700704710B598
:10014000002302E01C585C5004339342FAD310BDE4
:1001500000231A4601E01A5004338B42FBD3704748
:1001600038B51C4C1C4D04E094E807000C34FFF734
:10017000E6FFAC42F8D305E094E803000834FFF74B
:10018000E7FF00E0154DAC42F6D300F031F8144B18
:1001900001229A67D3F880206FF0010042F4803288
:1001A00042F04002C3F8802000F052F84FF0FF30D8
:1001B00000F01EFB00F0AEFA0A4B0BB100F0A0F805
:1001C000094B0BB1AFF30080084B13B100F0D8F826
:1001D000FCE7FEE7C0000000E4000000FC000000B7
:1001E00000800440010300000000000081030000C3
:1001F0000F4BD3F8382222F02002C3F83822002215
:100200001A62C82200BF013AFCD101221A642522D9
:100210009A60D3F8382222F08002C3F83822044BC7
:10022000DA68D207FCD5024B03221A67704700BF79
:1002300000800440054B00221A604FF47A7250434C
:10024000B0FBF2F219689142FCD370471005001020
:100250001A4B1B4910B501229024024218BF43F8E3
:10026000044C043352008B42F7D1C20702D5154B20
:1002700091221A60430502D5124B91229A62010520
:1002800002D5104B9122DA62C20402D50D4B9122A5
:100290001A63830402D50B4B91225A63410402D5A1
:1002A000084B91229A63020402D5064B9122DA632D
:1002B000054B1A6822EA0000186010BD0440044093
:1002C000644004400040044000200050FFFFFFFF56
:1002D000FFFFFFFFFFFFFFFFFFFFFFFFFFFFFFFF2E
:1002E000FFFFFFFFFFFFFFFFFFFFFFFFFFFFFFFF1E
:1002F000FFFFFFFFFFFFFFFFFFFFFFFFFFFFFFFF0E
:1003000008B5002000F010FE4FF4FA6000F042FA49
:10031000BDE8084001F046B97047000007B56846DF
:1003200001F0F1F948B1134BBDF800201A80BDF877
:1003300002205A80BDF804209A80684601F0BAF97C
:1003400048B10D4BBDF800201A80BDF802205A803C
:10035000BDF804209A80684601F001FA48B1074BC5
:10036000BDF800201A80BDF802205A80BDF8042094
:100370009A800EBD1C000010040000101000001038
:1003800010B50B20194C00F0F7FE162000F0F4FE1B
:10039000FFF7C4FF2046022100F008FFA01C022145
:1003A00000F004FF201D124C022100F0FFFE204649
:1003B000022100F0FBFEA01C022100F0F7FE201D30
:1003C0000C4C022100F0F2FE2046022100F0EEFE6D
:1003D000A01C022100F0EAFE201D022100F0E6FE32
:1003E0000A20BDE8104000F0D5B900BF1C00001085
:1003F00004000010100000100123420913FA00F05D
:10040000014B43F82200704700E100E0012342095C
:1004100013FA00F0024B603243F82200704700BF2D
:1004200000E100E000284FEA011107DA0438064B2A
:1004300000F00F00C9B2C31819767047034BC9B258
:10044000C31883F80013704700ED00E000E100E0FE
:10045000024B01B9024B1860704700BF00220050E8
:100460008022005070B5084A858A1268838A126813
:100470000446166D9BB200688221E268B047ADB2B7
:100480002D1AADB2A58270BD7400001010B5124BCC
:10049000DC69196ADA690132DA619A8C92B28AB13E
:1004A0009A8C013A92B29A849B8C9BB253B90B4BB3
:1004B0001B783BB10A4BDA68D2B2500644BF02F057
:1004C000BF02DA600448036A23B1631A052B01D91D
:1004D000FFF7C8FF002010BD2C000010F904001029
:1004E00000800040084B1B784BB1084AD368DBB250
:1004F00011B143F0400301E003F0BF03D360044BAC
:1005000000209984704700BFF9040010008000406B
:100510002C0000100020704780200021FFF798BFBA
:10052000064B1B68DB0202D5054B01221A70054BF6
:100530000022802001211A70FFF78ABF002100509D
:10054000690000105C000010014B00221A70704717
:10055000EE0400101F4B1A881F4B92B25A621F4ABA
:10056000128892B2DA611E4A128892B29A611D4ACA
:10057000128892B21A621C4A1378591CC9B2042B11
:10058000117013D9194B1988194B89B2596219493D
:10059000098889B2D961D86B4FF6F0710140D963EF
:1005A000D96B41F00A01D963002313700A4B4FF64F
:1005B000F072D96B01200A40DA63DA6B0C4942F021
:1005C0000F02DA6300224A608A6048605A609A60CB
:1005D000586070475600001000800140F004001081
:1005E0005E000010D2020010FB0400101405001081
:1005F0000040014058000010022A10B50C4611D1ED
:100600004B8A9BB263B9084B11461B68A2681B68F2
:100610005B6C984780B26082A3692046984701E0EE
:100620000123CB84002010BD7400001038B5104A9F
:1006300013781D4613B10023137038BD0D4A0124F1
:1006400010800D4A14700D4A12787AB141F6631287
:1006500090420B4A01D8147038BD13708020214697
:10066000FFF7F6FE074B5D609D605C6038BD00BF24
:1006700069000010CC020010550000106700001047
:100680005C0000100000014010B5074B1A7852B111
:1006900000241C7080200121FFF7DAFE034B0122A9
:1006A0005C609C605A6010BD5C000010000001405E
:1006B000174B82B01B6F03F00303032B4FF00003B3
:1006C000019308BF41F26F720FD10AE0009302E07C
:1006D00000990131009100999142F9D901990131B4
:1006E000019101998142F1D310E040F2E7320AE032
:1006F000009302E000990131009100999142F9D9EB
:1007000001990131019101998142F1D302B0704701
:100710000080044008B50C4B4FF000011B6F4FF0F8
:10072000FF3003F00303032B08BF084A084B18BF30
:1007300042F6DF625A60072299601A60FFF772FE84
:10074000044B00221A6008BD008004403F190100DC
:1007500010E000E01005001008B50A4B1A680132DD
:100760001A60094B1A6812B11A68013A1A60074BED
:100770000BB1AFF30080064B1BB1BDE80840AFF3EF
:10078000008008BD100500106C0000100000000083
:1007900000000000034B1B68DB0701D5FFF74ABDD3
:1007A000FFF786BF10E000E008B5084B0BB1FFF77C
:1007B000CBFE4FF040231A6822F004021A60012297
:1007C0001A60AA229A6055229A6008BD4905000065
:1007D00008B5054B0BB1AFF30080044B9A6842F0AB
:1007E00001029A6008BD00BF000000000040064002
:1007F000094B0A4910B501229024024218BF43F860
:10080000044C043352008B42F7D1054B5A6822EA5C
:100810000000586010BD00BF64400440E440044044
:100820000020005008B52A4900231A465A540133C3
:10083000442BFBD1274B00221A7008B901221A70F1
:10084000254A00231370254A01211370244A13609E
:10085000244A1360244A1360244A1360244AD2F8BD
:10086000803043F02003C2F88030224B1961596177
:1008700053686C2143F0020353604FF08043996149
:10088000126F02F00302032A0CBF48F6A04241F2A5
:10089000707292FBF0F0586118610E4B1B78012BBF
:1008A00007D14FF08043E822DA6000221A625A62D0
:1008B0009A620F20FFF7AAFD0F200321FFF7B2FD78
:1008C0000F20FFF799FD48224FF080431A6008BDC2
:1008D000880200106600001054000010CE020010C4
:1008E000E4040010F404001070000010FC04001078
:1008F000008004400040044070B5274D00242C7057
:10090000264D2C70264D2C60264D2C60264C2360E5
:10091000264C216003B101310024254D02E0065D23
:10092000665501348C42FAD120204FF08041086096
:10093000194840F201110478012C14D117490878A4
:100940000528FCD14FF08041102008600820886104
:100950004FF480700C6814F0100F01D00138F9D1F9
:100960000021134813E00139E5D14FF080411020F8
:100970000860082088614FF480700C6814F0100F34
:10098000EED00138F9D1EBE70C5C545401319942B7
:10099000FAD3034B186870BD54000010800000109B
:1009A00070000010FC040010E4040010F4040010B7
:1009B0008802001010B556494FF080435A680978F4
:1009C000002940F0A480D2B2302A00F092800ED8E4
:1009D000182A35D005D8082A17D0102A40F093805D
:1009E00021E0202A33D0282A40F08D8035E0482AA3
:1009F0005AD005D8382A4ED0402A40F084804CE0A6
:100A0000502A55D0582A7ED16CE04248424C0160B1
:100A10000168645C01319C600160202199613F495B
:100A2000012008706DE03E4A3B481160394A116868
:100A3000405C01319860116020229A61022134E00B
:100A4000364A1178012908BF324947D10CE03349B1
:100A500005220A7033490A7052E02E49324A08686A
:100A6000126890422D4A07D208682B4C245C013052
:100A70009C600860042305E02C49096821B120210D
:100A800019600323137029E004211170254A052100
:100A9000117010221DE0FF2107E0244A1268012A8C
:100AA0004FF0040215D118E005211C4A117027E00F
:100AB0001B4A194811689C6844540131116011683F
:100AC0001A4A01311268914214494FF0040202D2CD
:100AD0000A701A6002E0052008709A6108224FF03F
:100AE00080430EE00E4A0C4811689C684454013162
:100AF00011600A4905220A700A490A7010221A6018
:100B000008229A6110BD08224FF080439A6110BDFF
:100B100066000010FC040010880200105400001051
:100B20007000001080000010F4040010E4040010B5
:100B3000034BDA689207FCD5014B9860704700BF01
:100B40000000044038B5074C074D04E01DB1A06813
:100B500080B2AFF30080E3685907F7D4014B03225A
:100B60001A6238BD00800540000000001D4B10B522
:100B70001D4C23B1206800F01F00AFF300802368F4
:100B8000DC0703D5194B0BB1AFF30080164B1A6885
:100B90001C4612F0020F03D0154B0BB1AFF30080CF
:100BA0002368580703D5134B0BB1AFF300800E4BEE
:100BB0001A681C4612F0080F03D00F4B0BB1AFF3AD
:100BC00000802368D90606D50C4B23B1064BD86AA2
:100BD00080B2AFF30080044B1F221A6000BF00BF39
:100BE00010BD00BF0000000000C000400000000079
:100BF00000000000000000000000000000000000F5
:100C00001D4B10B51D4C23B1206800F01F00AFF341
:100C100000802368D90703D5194B0BB1FFF77CFC83
:100C2000164B1A681C4612F0020F03D0154B0BB17D
:100C3000FFF72AFD23685A0703D5134B0BB1AFF317
:100C400000800E4B1A681C4612F0080F03D00F4BA1
:100C50000BB1FFF765FC2368DB0606D50C4B23B10F
:100C6000064BD86A80B2FFF7E1FC044B1F221A60E2
:100C700000BF00BF10BD00BF000000000000014029
:100C80001905000089060000000000002105000091
:100C90002D0600001C4B10B51C4C23B1206800F041
:100CA0001F00AFF300802368DB0703D5184B0BB19F
:100CB000FFF750FC154B1A681C4612F0020F03D0C8
:100CC000144B0BB1AFF3008023685C0703D5124BC4
:100CD0000BB1AFF300800D4B1A681C4612F0080FE1
:100CE00003D00E4B0BB1AFF300802368D80605D5B7
:100CF0000B4B1BB1054BD86AAFF30080034B1F228F
:100D00001A6000BF00BF10BD00000000004001409D
:100D10005505000000000000000000000000000079
:100D2000000000001C4B10B51C4C23B1206800F0E3
:100D30001F00AFF300802368D80703D5184B0BB111
:100D4000AFF30080154B1A681C4612F0020F03D057
:100D5000144B0BB1AFF300802368590703D5124B36
:100D60000BB1AFF300800D4B1A681C4612F0080F50
:100D700003D00E4B0BB1AFF300802368DA0605D524
:100D80000B4B1BB1054BD86AAFF30080034B1F22FE
:100D90001A6000BF00BF10BD0000000000800140CD
:100DA0000000000000000000000000000000000043
:100DB00000000000134BD3F8382222F4A062C3F8DD
:100DC000382201229A6423221A6159690D4AC907FF
:100DD000FBD50023C2F8C0300123C2F8C830D2F8D6
:100DE000801041F0006141F48041C2F88010A2F50A
:100DF0008042D3609361044B1B681A68034B1A60EE
:100E0000704700BF00800440F81FFF1F74000010EF
:100E100070B551B30C794B79002C14BF072403240F
:100E200033B1013B44F0080403F0030344EA031424
:100E30008B7923B1053B03F003031C4301E044F02D
:100E400003040B784D780F2243EA05258B78006860
:100E500045EA0345CB78002145EA03651F4B1B6833
:100E60001B689E6D0123B0471EE01D4B0324D3F881
:100E700080204FF4165542F48052C3F8802001229E
:100E8000C3F89820A3F580439A6C22F007029A6475
:100E90009A6C42F001029A64DA6C22F00702DA647A
:100EA000DA6C42F00102DA640D4B0E4AD3F8983046
:100EB000B2FBF3F3B3FBF5F50B4B00225A6044F0A1
:100EC0008002DA602A0A5A60EDB210221D609A622E
:100ED0000722DC609A605A6070BD00BF7400001089
:100EE0000080044020AA44000080004010B50B4858
:100EF0000023037483824382094B1B7813B1FFF7ED
:100F000087FF09E041B1074A194612680068126874
:100F10000123946D0F22A047002010BD2C0000106B
:100F2000F9040010740000102DE9F043ABB0044642
:100F3000DFF84891FFF73EFF424B4FF0000889F879
:100F400000402493404C414B4146442213A8259332
:100F500026942794CDF8A08000F028FC3C4B414615
:100F600013934FF0102314934FF40063159348220A
:100F7000032301A88DF8583000F018FC354B364E8D
:100F80001093364B364D1B93364B24A90F93336881
:100F900013AA1B6828465B689847149B01A9019314
:100FA000159B29AA029304F10903039333682C3497
:100FB0005B6904942C4C5B6828689847414628225A
:100FC000204600F0F3FB299B28686360274B05212E
:100FD000A361019B264AA3604033E360029B20602B
:100FE000A3F58073029333685B685F682346B84754
:100FF0003368204A5B6804215E6828682346B0474E
:1010000016200221FFF70EFA1620FFF7F5F91A4B0A
:10101000A36199F8003053B120464146FFF7F8FE2E
:1010200015200221FFF7FEF91520FFF7E5F90A4B1D
:101030000B4A1B6810681B6801219B6898472BB0FE
:10104000BDE8F083E4180000401800008418000098
:1010500000000840ED0E0000740000108D04000038
:1010600084000010E50400002C000010650400005E
:1010700015050000F9050000E9100000F904001052
:1010800070B5438A027C9BB29B1A0E2B9FBF438A8A
:10109000027C9BB2C2EB0303124A0146856888BFFB
:1010A0000F23144609E050698006FCD5087C013BFB
:1010B0002E5C0130C0B226600874002BF3D1087C8E
:1010C0004A8A92B290420BD10B744B82CA8C92B274
:1010D00032B108680222CB84BDE87040FFF78CBAB9
:1010E00070BD00BF0080004070B5134B04461B78F4
:1010F00086681BB1BDE87040FFF7C2BF458A037C1C
:10110000ADB2ED1A07E0237C013DF05C0133DBB2A8
:101110002374FFF701F9002DF5D125746582E38C66
:101120009BB23BB1206821460222E584BDE87040B5
:10113000FFF762BA70BD00BFF904001010B50D4A88
:1011400004465369C168DB070AD5838A9BB23F2BEB
:1011500006D8838A12689BB2CA5401339BB2838239
:10116000A38A9BB2402B02D12046FFF77BF9E369AB
:10117000236210BD0080004008B50B4B9A8A92B2E2
:101180003F2A06D89A8AD96892B28854013292B21C
:101190009A829B8A9BB2402B02D10348FFF762F9E7
:1011A000014BDA691A6208BD2C00001070B50446C4
:1011B0000E46002503E0605DFFF7DEFF0135B54216
:1011C000F9D170BD08B5044B044A1B6810681B6850
:1011D000DB68984708BD00BF740000108400001051
:1011E00010B54A4B1A78013A052A04D8DFE802F014
:1011F0000A121C405F714EF64142904240F08480DA
:10120000012264E041F2BE32904201D102225EE04E
:1012100000225CE03E4B18803E4B18801A883E4B03
:1012200092B21A80032251E03C4B3A4A188011884E
:10123000364C401880B2384910800888128812183D
:1012400092B20A801A8892B2FF2A0BD81B889BB2EE
:101250000BB1042307E0324B23B12D4B188880B229
:10126000AFF30080002323702E4B00221A8010BDA4
:101270002C4B2D491A8892B221F81200013292B2F9
:101280001A801A88254B92B21B889BB29A4202D3CD
:101290001E4B05221A701F4B1A88801880B21E4AF6
:1012A000188011881B885B189BB2138010BD194AE7
:1012B000128892B2904201D1062208E01B4B23B162
:1012C000134B188880B2AFF3008000220F4B1A70C6
:1012D00010BD114B1B889BB298420BD1144B83B1AC
:1012E0000B4B114918880D4B80B21A8892B2AFF39C
:1012F000008006E00D4B23B1054B188880B2AFF398
:101300000080024B00221A7010BD00BFEC040010D8
:101310005A000010EA040010780000106400001069
:101320000000000060000010D40200100000000067
:10133000000000000A4B0B4A1088198880B289B25D
:10134000884210883BBF1B8880B21B8800F58070E4
:1013500035BFC3EB0000C3EB000080B280B2704722
:10136000E8040010D0020010074B08491A8892B216
:1013700031F81200013292B21A801A8892B2FF2A12
:1013800001D900221A807047E8040010880000107C
:1013900038B50446084D03E0FFF7E6FFFFF7C8FB4A
:1013A000FFF7C8FF10B1EB689A07F5D42046BDE8F7
:1013B0003840FFF715BF00BF0000044038B5074CA8
:1013C000074D04E01DB1A06880B2FFF7E1FFE368BC
:1013D0005907F7D4014B03221A6238BD00000440BC
:1013E00091130000234B0246187830B9032A40D1EC
:1013F0001A780132D2B21A7070471978012905D1D2
:101400001A7800200132D2B21A7070471B781A493C
:1014100013F0010F194B1BBF09781B781A7003F0EA
:1014200003031BBF42EA0322154BC2F3820223F8D7
:101430001120104B08BF0A701A784FF000000132DB
:10144000D2B21A701A780F2A13D90D4A18700D4BA0
:101450000120118818700C4B19805188598091888F
:101460009980D188D98011891981518992895981AE
:101470009A817047EE04001062000010FA04001018
:1014800000050010ED040010D404001008B5FFF7AB
:10149000A9FF4FF04023AA229A6055229A6008BD06
:1014A00070B53B4B9A68C2F34202013A052A6DD8E7
:1014B000DFE802F06143036C6C59364A1278D2B10E
:1014C0005B69DBB213F0020218BF4022590748BF24
:1014D00042F02002180748BF42F01002D9062E4BF6
:1014E0002E491B6848BF42F004025B6948689B684C
:1014F0002021984770BD5C69E4B2E20712D50CE088
:101500006C692868E4B26307C0B203D516B1AFF3C3
:10151000008004E0FFF7BAFF01E01D4D204E6B692B
:10152000D907EDD414F09C0F18BF194B01D170BD31
:101530001A685A69D207FBD470BD164B1B7863B189
:1015400014E0636920685B07C0B203D515B1AFF33F
:10155000008004E0FFF79AFF01E00D4C104D636935
:10156000D807EED470BD0B4B1B787BB10B48BDE8A0
:101570007040FFF7E3BD074B1B783BB10748438A38
:101580009BB21BB1BDE87040FFF77ABD70BD00BFD4
:1015900000800040F9040010740000102C000010BE
:1015A00000000000F7B54FF4C870FFF73BF90022C8
:1015B0007723A02530248DF8023003211346684696
:1015C0008DF800408DF80150FFF796F9002288232E
:1015D000A3268DF802300321134668468DF800409B
:1015E0008DF80160FFF788F90022AF23D0248DF831
:1015F00002300321134668468DF800408DF80150F3
:10160000FFF77AF900220321134668468DF800405F
:101610008DF801608DF80250FFF76EF9A4230022C7
:101620008DF8013002238DF80230032113466846FD
:101630008DF80040FFF760F93C2300248DF800305E
:10164000782320278DF8023005212246234668465C
:101650008DF801408DF803708DF80440FFF74CF9C8
:101660001023B8268DF8013049238DF8023003216C
:101670002246234668468DF80060FFF73DF9742343
:101680008DF8023003212246234668468DF800601B
:101690008DF80170FFF730F9F4238DF802306846B9
:1016A0000321224623468DF800608DF80150FFF794
:1016B00023F9FEBD13B530238DF80030A8238DF833
:1016C0000130312304468DF80230684602216A4613
:1016D0000623FFF711F9A8B19DF80030012023700F
:1016E0009DF8013063709DF80430A3709DF80530BB
:1016F000E3709DF8023023719DF803306371A38875
:101700005B42A3801CBD13B5D0238DF80030A62307
:101710008DF80130D12304468DF80230684602214D
:101720006A460823FFF7E8F8C0B19DF802300120AF
:1017300023709DF8033063709DF80630A3709DF808
:101740000730E3709DF8043023719DF80530637114
:10175000A3885B42A3809DF80030E3801CBD13B5D5
:101760003C238DF8003003238DF801303D230446DF
:101770008DF80230684602216A460623FFF7BCF85E
:1017800090B19DF80130012023709DF80030637006
:101790009DF80330A3709DF80230E3709DF805308A
:1017A00023719DF8043063711CBD000010F0030F1D
:1017B000034670B441D0002A3DD0CEB201E0002AE9
:1017C00039D003F8016B541E13F0030F22461D4657
:1017D000F5D1032C29D9CAB20F2C84BF2B4626463B
:1017E00042EA022242EA024211D9103E1A605A60CD
:1017F0009A60DA6010330F2EF7D8A4F1100304F0CA
:101800000F0423F00F031033032C1D440DD92E4673
:101810002346043B46F8042B032BFAD8231F04F07D
:10182000030423F003030433ED18C9B21CB1013CD7
:1018300005F8011BFBD170BC704705461446C8E78C
:101840000902430002010080320904000001020283
:1018500000040524001001052401010104240202F2
:101860000524060001070581031000020904010098
:10187000020A000004070502024000000705820278
:10188000400000000403090426034E0058005000E5
:101890002000530065006D00690063006F006E005A
:1018A00064007500630074006F00720073001A0317
:1018B0004C0050004300310033003400370020005A
:1018C000560043004F004D001203550041006900CF
:1018D000720020004300440043000A035600430006
:1018E0004F004D001201000202000040C91F3202E9
:0818F000000101020301FFFFEA
:040000030000016197
:00000001FF
